:020000040800F2
:10000000F804002049010008CF140008A1130008DB
:10001000CD140008B5010008E11700080000000039
:10002000000000000000000000000000F1140008C3
:10003000B701000800000000D1140008F314000804
:100040006301000863010008630100086301000800
:1000500063010008630100086301000863010008F0
:10006000B90100086301000863010008630100088A
:1000700063010008630100086301000863010008D0
:1000800063010008630100086301000863010008C0
:1000900063010008630100086301000863010008B0
:1000A00063010008630100086301000863010008A0
:1000B0006301000863010008630100086301000890
:1000C000630100086301000863010008D5140008FB
:1000D00063010008D51700086301000863010008E8
:1000E0006301000863010008630100086301000860
:1000F0006301000863010008630100086301000850
:10010000630100086301000863010008630100083F
:100110006301000863010008551500086301000829
:10012000630100086301000863010008630100081F
:10013000DFF810D000F02CF8004800472118000824
:10014000AFF30080F80400200648804706480047C7
:10015000FEE7FEE7FEE7FEE7FEE7FEE7FEE7FEE777
:10016000FEE7FEE75315000831010008D2B201E0B6
:1001700000F8012B491EFBD270470022F6E710B5AC
:1001800013460A4604461946FFF7F0FF204610BD05
:10019000064C074D06E0E06840F0010394E80700D4
:1001A00098471034AC42F6D3FFF7C6FF7818000822
:1001B00098180008FEE77047042000F0D1B872B626
:1001C000FEE710B590F821100022022905D0042185
:1001D000816380F82020012010BD01680B6823F0A6
:1001E0000E030B6001680B6823F001030B6090F8AD
:1001F0004030C46B012101FA03F3636080F82110E1
:1002000080F82020104610BD2DE9F05F90F82110F5
:100210000024022903D004218163012485E00168C0
:100220000A6822F00E020A6001680A6822F00102E0
:100230000A603F4E3E4FB215DFF8F4C0DFF8F09091
:10024000DFF8ECA0DFF8E8B0DFF8E4E00168783F21
:1002500013011502ACF1640CA9F15009AAF13C0A92
:10026000ABF1280BAEF1140E4FF48018B14227D930
:10027000B9420ED0614512D049451DD0514518D024
:10028000594518D0714501D1424615E0294EB14279
:1002900001D1012210E0274E1436B14201D11022C3
:1002A0000AE0244E2836B14206D0224A3C3291421E
:1002B00001D11A4600E02A461E49091F0A602BE0B8
:1002C000B94213D0614517D0494522D051451DD0C0
:1002D00059451DD0714501D142461AE0B14202D1C3
:1002E0004FF0807215E0134EB14201D1012210E0AF
:1002F000104E1436B14201D110220AE00D4E2836BC
:10030000B14206D00B4A3C32914201D11A4600E07C
:100310002A46074980394A60012180F821100021CE
:1003200080F82010416B01B188472046BDE8F09F5E
:10033000800002400804024070B5044600F026F92F
:100340000546601C02D004480078044400F01EF901
:10035000401BA042FAD370BD00000020704700008F
:10036000044910B50A68024202D00860FFF7F6FFA0
:1003700010BD0000140401402DE9F84FDFF8C891CA
:100380000024A9F1040B23460F2709F1040AABF15D
:10039000040ED1E00125A54006EA0502AA4276D165
:1003A000DFF8A8C14E68A6EB0C0866452BD00DDC23
:1003B000032E34D005DC36B3012E19D0022E2FD1F6
:1003C0001BE0112E16D0122E2AD119E0B8F5881F85
:1003D00019D006DCB8F5803F15D0B8F5801F1FD1C5
:1003E00011E0B8F5001F0ED0B8F5041F18D10AE0CF
:1003F000CB6815E0CB681B1D12E0CB6808330FE01B
:10040000CB680C330CE08B682BB1012B4FF0080349
:1004100003D0456104E0042302E0056100E000230D
:10042000FF2A01D8064601E000F104064FEA8405E0
:1004300001D9A5F12005D6F8008007FA05FC28EAC5
:100440000C0803FA05F548EA0508C6F800804D686F
:10045000ED0070D53E4DAE6946F00106AE61AD6966
:1004600024F0030605F0010500953A4D06EB050C56
:10047000DCF80850A607360F07FA06F825EA080543
:10048000DFF8D480404503D14FF0000825E052E06A
:10049000DFF8C880404502D14FF001081DE0DFF8C9
:1004A000C080404502D14FF0020816E0DFF8B4806A
:1004B000404502D14FF003080FE0DFF8AC80404523
:1004C00002D14FF0040808E0DFF8A080404502D1D7
:1004D0004FF0050801E04FF0060808FA06F848EA70
:1004E0000508CCF808804D68D9F80060ED024D464B
:1004F00001D5164300E096432E604D68DAF800609F
:10050000AD02554601D5164300E096432E604D6876
:10051000DBF80060AD035D4601D5164300E096436D
:100520002E604D68DEF80060ED03754601D5164378
:1005300000E096432E60641C0A681646E2407FF491
:1005400029AFBDE8F88F0000080401400000111039
:10055000001002400000014000080140000C014072
:10056000001001400014014000180140001C01402F
:10057000C26821EA02030A4043EA0241016170476E
:100580000AB1016170470904FBE700000148806877
:100590007047000000000020024881680278114482
:1005A0008160704700000020074810B5016841F0E5
:1005B00010010160032000F08FF8002000F006F821
:1005C00000F03EF8002010BD0020024000B50146BA
:1005D00087B00022362000F05FF8362000F04EF899
:1005E0001348C16941F01001C161C06905A900F05B
:1005F00010000690684600F017F900F035F90D4933
:100600004000B0FBF1F10D480B4A491E0260416009
:1006100040F2E7320021C0E90321816000F008FCCC
:1006200010B1012007B000BD044800F02FFCF9E72D
:100630000010024040420F0000100040B0000020B7
:100640000C4808B5816941F001018161816901F0BF
:1006500001010091C16941F08051C161C06900F0A0
:10066000805000900448416821F0E06141F0007141
:10067000416008BD0010024000000140002809DB75
:1006800000F01F02012191404009800000F1E020AC
:10069000C0F8001170470000F0B40E4B1B680C4608
:1006A000C3F30223C3F10705042D00D90425191D46
:1006B000072901D2002300E0DB1E012606FA05F11E
:1006C000491E214099409E40761E16403143F0BCA1
:1006D00001F087B80CED00E0064900F00702086859
:1006E0004FF6FF03184040EA0220034A1043086017
:1006F000704700000CED00E00000FA052DE9F0471E
:100700000F46050061D0434E306800F00700B84244
:1007100009D2306820F0070038433060306800F0BC
:100720000700B84251D128683B4C810712D54007D9
:1007300003D5606840F4E06060602878000703D566
:10074000606840F4605060606068A96820F0F00064
:10075000084360602878C00728D06868012810D056
:100760002168022810D0890700292EDA616821F05B
:10077000030101436160FFF709FF804641F28839B8
:100780000DE021688903EFE78901EDE7FFF7FEFE41
:10079000A0EB0801494502D90320BDE8F087606855
:1007A000696800F00C00B0EB810FEFD1306800F009
:1007B0000700B8420BD9306820F00700384330609A
:1007C000306800F00700B84201D00120E5E7287842
:1007D000400705D56068E96820F4E0600843606080
:1007E0002878000706D56068296920F4605040EA3F
:1007F000C100606000F058F86168084AC1F3031155
:10080000515CC8400649086006480068FFF7DEFEF4
:100810000020C2E700200240001002405E180008DD
:100820000C000020040000200F2202600C4A5368D4
:1008300003F003034360536803F0F00383605368DD
:1008400003F4E063C36052684FF4E06303EAD2024A
:1008500002610448006800F007000860704700006B
:100860000010024000200240044805490068496821
:10087000044AC1F30221515CC84070470C000020BB
:10088000001002406E1800080448054900684968D5
:10089000044AC1F3C221515CC84070470C000020DB
:1008A000001002406E1800080E4A51680E4801F010
:1008B0000C03042B11D0082B0FD10C48C1F3834338
:1008C000C903C05C0AD55168084AC1F34041921E71
:1008D000515C054A5043B0FBF1F07047044948436E
:1008E000704700000010024000127A004E18000805
:1008F00000093D002DE9F84F040070D02078C04D6C
:10090000C00749D06868C0F38100012807D0686833
:10091000C0F38100022809D16868C00306D52868A1
:10092000800339D560680028E7D035E06068B0F50D
:10093000803F0BD010B1B0F5A02F11D0286820F463
:1009400080302860286820F4802002E0286840F485
:1009500080302860606890B1FFF718FE06460AE014
:10096000286840F480202860F0E700BFFFF70EFE03
:10097000801B642873D828688003F7D50CE0FFF744
:1009800005FE064605E000BFFFF700FE801B642859
:10099000F0D828688003F7D420789A4E80074FF06B
:1009A00001094FF0000839D5686810F00C0F07D026
:1009B0006868C0F38100022809D16868C00306D4C2
:1009C0002868800714D52069012808D110E0206923
:1009D000B0B1C6F80090FFF7D9FD074605E00AE17F
:1009E000FFF7D4FDC01B0228C4D828688007F7D5BC
:1009F0002868616920F0F80040EAC10028600DE035
:100A0000C6F80080FFF7C2FD074604E0FFF7BEFD11
:100A1000C01B022823D828688007F7D42078000755
:100A20002CD57948A169D9B1C0F80090FFF7AEFD87
:100A3000074604E0FFF7AAFDC01B02280FD8686A2A
:100A40008007F7D571484FF4FA510068B0FBF1F018
:100A5000009000BF0098411E0091FAD20EE080E0A5
:100A6000C0F80080FFF792FD074604E0FFF78EFD17
:100A7000C01B022875D8686A8007F7D42078400721
:100A800060D5E8690027C00008D4E86940F08050CC
:100A9000E861E869012700F0805000905C48016837
:100AA000C90513D40168834641F480710160FFF7E2
:100AB0006DFD824606E000BFFFF768FDA0EB0A006F
:100AC00064284ED8DBF80000C005F5D5E0680128A1
:100AD0000AD008B1052813D0286A20F00100286246
:100AE000286A20F0040002E0286A40F00100286231
:100AF000E06841F2883B98B1FFF748FD82460BE081
:100B0000286A40F004002862EEE700BFFFF73EFDD0
:100B1000A0EB0A0159455AD8286A8007F6D50CE09F
:100B2000FFF734FD824605E0FFF730FDA0EB0A0138
:100B300059454CD8286A8007F6D41FB1E86920F0DF
:100B40008050E861E06988B36968C1F381010229D6
:100B500044D00228C6F8608004D0FFF717FD044691
:100B600038E034E0FFF712FD074604E0FFF70EFD22
:100B7000C01B02282BD828688001F7D4206AB0F562
:100B8000803F05D16868A16820F4003008436860A0
:100B9000D4E908010843696821F4741108436860C6
:100BA000C6F86090FFF7F2FC044606E025E000BFBF
:100BB000FFF7ECFC001B022809D828688001F7D554
:100BC0001BE000BFFFF7E2FC001B022802D9032054
:100BD000BDE8F88F28688001F4D40EE00128F7D032
:100BE0006868226A00F48031914204D1616A00F49D
:100BF0007010884201D00120EAE70020E8E70000F9
:100C00000010024000004242800442420C000020DA
:100C1000007000407047000038B504460068426824
:100C20008168C9434B0606D5CB0704D1D3435B0685
:100C300001D4216C05E08B0708D4D3431B0605D4EF
:100C4000616C01B02046BDE8304008478B0601D5F5
:100C50004B0646D4D3439B0643D44B060AD494F8A0
:100C60005130032B3ED0636D43F004036365C368CA
:100C700083680093890609D4616D41F001016165C3
:100C800081680091016821F040010160606D0028D9
:100C900027D02068416821F0E0014160012084F8FC
:100CA0005100900722D02068416821F00301416083
:100CB000104DE06C40B14563E06CFFF7A5FA18B148
:100CC000606D40F040006065A06C002809D045636D
:100CD000A06CFFF799FA002803D0606D40F0400047
:100CE000606538BDC1688068009038BD2046FFF758
:100CF00091FF38BDE114000870B5040009D0606AA6
:100D0000002540B125616561A56294F8510040B1AC
:100D10000CE0012070BD6068B0F5827FF4D0E56121
:100D2000F2E784F85050204600F040F8022084F8A2
:100D300051002068016821F040010160A0882189EC
:100D400000F4827001F404410843A18901F40061B8
:100D50000843217C01F002010843217D01F00101DB
:100D60000843218B01F400710843217F01F0380111
:100D7000084394F8201001F080010843218D01F40C
:100D80000051084321680860A069042101EA10406D
:100D9000216848602068C16921F40061C16165650E
:100DA000012084F85100002070BD000030B585B0EE
:100DB0000024009401940294039400681849884226
:100DC0002BD11848816941F480518161816901F416
:100DD00080510491816941F0040181618069124D63
:100DE00000F004000490A020009002200190032055
:100DF000039069462846FFF7BFFA4020CDE900047A
:100E0000694628460294FFF7B7FA00220121232001
:100E1000FFF742FC2320FFF731FC05B030BD000096
:100E20000030014000100240000801407047704748
:100E300010B5040003D094F83D0010B107E0012084
:100E400010BD002084F83C00204600F01EF802206F
:100E500084F83D00211D206800F082FB012084F809
:100E6000460084F83E0084F83F0084F8400084F88F
:100E7000410084F8420084F8430084F8440084F878
:100E8000450084F83D00002010BD704790F83D10EB
:100E9000012901D001207047022180F83D1001682E
:100EA000CA6842F00102CA6000680E4988420ED04A
:100EB0000D4988420BD0B0F1804F08D00B498842D1
:100EC00005D00B49884202D00A49884204D1816882
:100ED00001F00701062903D0016841F0010101601A
:100EE00000207047002C0140003401400004004005
:100EF00000080040000C004070472DE9F041044616
:100F00000068C66805694FF00007A90713D5B10747
:100F100011D5F91E016101202077206880698007C2
:100F2000204602D0FFF7E8FF04E000F07EF82046FC
:100F300000F07CF82777680716D5700714D521686C
:100F40006FF004000861022020772068806910F4A7
:100F5000407F204602D0FFF7CFFF04E000F065F8A5
:100F6000204600F063F82777280715D5300713D5FA
:100F700021686FF008000861042020772068C069AC
:100F80008007204602D0FFF7B7FF04E000F04DF8DD
:100F9000204600F04BF82777E80616D5F00614D562
:100FA00021686FF010000861082020772068C06970
:100FB00010F4407F204602D0FFF79EFF04E000F0CF
:100FC00034F8204600F032F82777E80708D0F00719
:100FD00006D021686FF001000861204600F028F873
:100FE000280608D5300606D521686FF08000086114
:100FF0002046FFF71BFF680608D5700606D5216856
:101000006FF040000861204600F01CF8A8060AD5E1
:10101000B00608D521686FF0200008612046BDE8C1
:10102000F041FFF704BFBDE8F08170477047000052
:1010300000680349884201D1FFF7AEBA704700004B
:10104000001000407047704770470000F8B5016815
:1010500004460868CA684B6910F00F0F4FF000058E
:1010600059D003F0010602F49077374365D0C107E9
:1010700005D0D10503D5616C41F0010161644107E0
:1010800005D5D90703D0616C41F002016164810785
:1010900005D5D90703D0616C41F0040161640107F3
:1010A00007D502F02001314303D0616C41F0080103
:1010B0006164616C00293AD0800604D5900602D59F
:1010C000204600F0CAFA20684069616CC0F38010C5
:1010D000090700D460B3204600F098FA2068406900
:1010E000400621D52068143050E8001F21F040014F
:1010F00040E80012002AF5D1E06BA8B16D494163C8
:10110000E06BFFF781F8002811D0E06B416B01B074
:10111000BDE8F040084783060FD593060DD520465D
:10112000BDE8F84000F099BA2046FFF78DFFF8BD02
:101130002046FFF789FF6564F8BD266B2023012E4A
:101140007CD1C6067AD5D60678D50868486800905E
:1011500048694FF00206400640D5E16B08684068D8
:101160000004000CE8D0A28D8242E5D9E0858869B0
:1011700020282DD020680C3050E8001F21F4807109
:1011800040E80012002AF5D12068143050E8001F12
:1011900021F0010140E80012002AF5D12068143046
:1011A00050E8001F21F0400140E80012002AF5D16C
:1011B00084F84230256320680C3050E8001F21F08D
:1011C000100140E80012002AF5D1E06BFEF7F9FFAC
:1011D0006663A08DE18D401A81B22AE0A08DE18D79
:1011E000401A81B2E08D0028A6D00029A4D0226840
:1011F0000C3252E8000F20F4907042E80007002FF4
:10120000F5D12068143050E8002F22F0010240E8A8
:101210000027002FF5D184F84230256320680C3078
:1012200050E8002F22F0100240E80023002BF5D1F7
:1012300066632046FFF707FFF8BDFFE705062BD5DD
:10124000150629D594F841002128F5D1A068B0F5FC
:10125000805F01D12069B0B1206A411C2162216800
:1012600000784860E08C401E0004000CE084E3D16C
:101270002068C16821F08001C1602068C16841F028
:101280004001C160D8E7206A0088C0F308004860C8
:10129000206A801C2062E5E74006CDD55006CBD5FC
:1012A000CA68204622F04002CA6084F8413000F04B
:1012B00076F8C1E7FD15000870B5040004D094F875
:1012C0004100002510B106E0012070BD84F84050B7
:1012D000204600F023F8242084F841002068C168EB
:1012E00021F40051C160204600F018FA206801691D
:1012F00021F4904101612068416921F02A01416196
:101300002068C16841F40051C1606564202084F800
:10131000410084F842006563002070BD30B585B09F
:1013200000240094019402940394006818498842B0
:101330002CD11848816941F480418161816901F4AF
:1013400080410491816941F0040181618069124DFD
:1013500000F0040004904FF400700090022001900F
:101360000320039069462846FFF706F82815CDE9C3
:101370000004694628460294FEF7FEFF002203217E
:101380002520FFF789F92520FFF778F905B030BD52
:1013900000380140001002400008014070477047CB
:1013A000FEE70000F0B585B00024244800940194C5
:1013B00002940394816941F040018161816901F0E7
:1013C00040010491816941F00401816180691C4EF2
:1013D00000F004000490002220213046FFF7D0F8EE
:1013E000184F012218213846FFF7CAF8202001259E
:1013F000CDE900050320CDE9024069463046FEF7FD
:10140000BBFF042000901048CDE90104694638462E
:10141000FEF7B2FF1820CDE900050220CDE9024019
:1014200069463846FEF7A8FF002201210820FFF791
:1014300033F90820FFF722F905B0F0BD0010024093
:10144000001801400008014000001110104810B5BC
:101450000E4901604FF48271416000218160C160DA
:101460004FF400720161C0E905121822C0E907219A
:10147000416281620A21C162FFF73EFC002803D06D
:10148000BDE81040FEF79BBE10BD000000300140DB
:10149000100000200C4810B50A4901604FF4E131FA
:1014A0004160002181600C22C160C0E904128161A9
:1014B000C161FFF701FF002803D0BDE81040FEF72F
:1014C0007EBE10BD0038014068000020FEE7FEE748
:1014D000704700000148FFF79FBB0000100000208C
:1014E00010B5406A0021C187C186FFF793FB10BD8C
:1014F0007047704730B58FB028216846FEF73DFE33
:1015000014210AA8FEF739FE01210804CDE90010D4
:101510000024029402250491CDE907504FF4E01015
:1015200009906846FFF7E6F908B172B6FEE70F20AA
:10153000CDE90A054FF48060CDE90C4002210AA8EC
:101540000E94FFF7DBF8002801D072B6FEE70FB06B
:1015500030BD70470148FFF7D0BC0000B00000204C
:10156000F0B50268204C214D214E224F224B4FF006
:10157000804CA04209D0984207D0604505D0A842CF
:1015800003D0B04201D0B84204D122F0700E4A68B4
:1015900042EA0E02A04209D0984207D0604505D029
:1015A000A84203D0B04201D0B84203D122F4407522
:1015B000CA682A434D6922F080022A4302608A6881
:1015C000C2620A688262A04201D0984201D10969D0
:1015D0000163012141610169C90703D0016921F05B
:1015E00001010161F0BD0000002C01400004004039
:1015F00000080040000C00400034014010B5406A73
:101600000021C185C184FFF71FFD10BD01680C31A9
:1016100051E8002F22F4907241E80023002BF5D10D
:101620000168143151E8002F22F0010241E8002343
:10163000002BF5D1016B012909D101680C3151E86A
:10164000002F22F0100241E80023002BF5D12021C9
:1016500080F8421000210163704708B590F84210ED
:10166000222901D0022008BD82684FF480539A429B
:1016700001D1016921B1816A9A421BD04AB10AE0C5
:101680000268816A5268C2F308020A80816A891C72
:1016900008E0026972B10268526802F07F020A70C3
:1016A000816A491C8162C18D491E0904090CC185EA
:1016B00003D01BE002685268F1E70168CA6822F0B3
:1016C0002002CA600168CA6822F48072CA60016898
:1016D0004A6922F001024A61202180F8421000216B
:1016E0004163026B012A03D0FFF758FE002008BDBA
:1016F000016301680C3151E8002F22F0100241E82B
:101700000023002BF5D101680A68D20602D50A68C9
:1017100049680091818DFFF796FCE7E770B50446B4
:1017200000680169E26821F44051114301612169B7
:10173000A0680843616908432168CA6841F20C63E4
:101740009A430243CA6020684169A26921F440714A
:10175000114341611E492068884202D1FFF794F885
:1017600001E0FFF781F800EBC00101EB00126068B7
:1017700064218000B2FBF0F3B3FBF1F36FF01806C5
:101780007343B2FBF0F5B2FBF0F605EB83053223B1
:1017900003EB0515B5FBF1F5B6FBF1F605F0F00529
:1017A00005EB0615B2FBF0F6B2FBF0F0B0FBF1F082
:1017B0006FF01802504306EB800003EB0010B0FB03
:1017C000F1F0216800F00F002844886070BD00002F
:1017D000003801400148FFF739BC000068000020D4
:1017E000FEE70907090E002804DB00F1E02080F87D
:1017F0000014704700F00F0000F1E02080F8141D85
:10180000704702E008C8121F08C1002AFAD17047C9
:101810007047002001E001C1121F002AFBD1704770
:10182000FEF7C2FEFFF766FEFFF7BCFDFFF70EFEF8
:10183000FFF730FE044C20212046FEF799FEC82019
:10184000FEF77AFDF7E700000018014001020203ED
:101850000405060708090A0B0C0D0E0F10100000F6
:101860000000000000000102030406070809000050
:101870000000010203040000981800080000002086
:101880001000000002180008A8180008100000202E
:10189000E804000012180008010000001000000019
:0818A0000000000000127A00B4
:0400000508000131BD
:00000001FF
