:020000040800F2
:10000000F06A002049010008D31F0008110200080F
:10001000D11F00089D070008892700080000000084
:10002000000000000000000000000000DD200008CB
:100030009F070008000000009B010008AD23000896
:100040006301000863010008630100086301000800
:1000500063010008630100086301000863010008F0
:10006000A10700086301000863010008630100089C
:1000700063010008630100086301000863010008D0
:1000800063010008630100086301000863010008C0
:1000900063010008630100086301000863010008B0
:1000A00063010008630100086301000863010008A0
:1000B0006301000863010008630100086301000890
:1000C000630100086301000863010008D51F0008F0
:1000D000630100087D270008630100086301000830
:1000E0006301000863010008630100086301000860
:1000F0006301000863010008630100086301000850
:10010000630100086301000863010008630100083F
:1001100063010008630100088924000863010008E6
:10012000630100086301000863010008630100081F
:10013000DFF810D000F0F0FA0048004793070008FD
:10014000AFF30080F06A0020064880470648004769
:10015000FEE7FEE7FEE7FEE7FEE7FEE7FEE7FEE777
:10016000FEE7FEE78524000831010008EFF3108068
:1001700072B6704780F310887047324A1368012BBB
:1001800004D04FF0010313602F4A10602F4A116012
:100190002F484FF0805101607047EFF3108272B624
:1001A0002848016891B14FF00001016026480168BC
:1001B00029B1EFF3098121E9F00F006801602349BB
:1001C00009680968B1E8F00F81F3098882F31088A3
:1001D0004EF0040E70471D4908601B494FF00000A7
:1001E000086018494FF0010008601A481A49D0F811
:1001F000002041EA0201016015484FF08051016082
:1002000016480068006880F3088861B662B67047D7
:100210001EF0040F0CBFEFF30880EFF3098020E914
:10022000F00F40F804ED1EF0040F0CBF80F30888B7
:1002300080F3098800B504F063FF5DF804EB4EF02D
:10024000040E7047980300209003002094030020C0
:1002500004ED00E020ED00E00000FFFF08ED00E00D
:100260002DE9F05F0546002092469B4688460646EB
:10027000814640241BE0284641464746224600F07E
:1002800020F853465A46C01A914110D311461846D9
:10029000224600F099F92D1A67EB01084F462246D5
:1002A0000120002100F090F917EB00094E41201EBB
:1002B000A4F10104DFDC484631462A464346BDE846
:1002C000F09F202A04DB203A21FA02F00021704737
:1002D00021FA02F3D040C2F12002914008431946AE
:1002E000704740EA01039B0703D009E008C9121FC9
:1002F00008C0042AFAD203E011F8013B00F8013BE0
:10030000521EF9D27047D2B201E000F8012B491E0B
:10031000FBD270470022F6E710B513460A460446A2
:100320001946FFF7F0FF204610BD421E12F8013FAC
:10033000002BFBD111F8013B02F8013B002BF9D156
:10034000704710B5044604E00B7800F8013B03B198
:10035000491C521EF8D2204610BD421C10F8011B49
:100360000029FBD1801A704710B5002200E0521C12
:10037000835C8C5CA34201D1002BF8D1D8B2E1B2EE
:10038000401A10BD034611F8012B00F8012B002A7A
:10039000F9D11846704730B505460020034600E005
:1003A0005B1C934205D2EC5CC85C201A01D1002C86
:1003B000F6D130BDF0B480EA0102D40F4200B2EBB6
:1003C000410F02D20246084611464A0042D0C30DF0
:1003D000DDB2C1F3C752AD1A202D35DAC1F31601D3
:1003E00041F4000204B15242C5F1200602FA06F1BE
:1003F0002A411044B3EBD05F23D0C4B1012DA0EB50
:10040000C35009DCF0BC4FF0004202EAC352DBB239
:1004100000F5000000F0F0B8400000F1807000EB43
:10042000C350A0F1807040EAD170490009E049084A
:1004300041EAC071A0EBC35000F50000400800EB9A
:10044000C350F0BC00F0CFB86142012202EB410181
:10045000001BF6E7F0BC704781F00041AAE780F08E
:100460000040A7E780EA010210B502F00043400017
:1004700022D04A001FD0010E01EB1261C0F35600DA
:10048000C2F3560240F4000042F40002A0FB022036
:1004900000047F39140400D0401C50EA124001D4FB
:1004A0004000491EC2B20C0604EBD010401C4008AC
:1004B000802A02D003E0002010BD20F001000029B6
:1004C00000DA0020184310BD30B480EA010202F0C7
:1004D000004530F0004221F0004013D090B1C30D30
:1004E000D40DC2F31601C0F31600E41A41F4000162
:1004F00040F400027D34914201D3641C00E04900C5
:10050000002C02DA30BC002070474FF400000023BA
:10051000914201D3891A034340084FEA4101F7D1C0
:1005200051B1914202D14FF0004105E002D24FF0AB
:10053000010101E06FF0010103EBC450284430BC1D
:1005400000F051B8420005D0C0F3C7525242914268
:1005500001DC0020704700EBC1507047C10F80EAFA
:10056000E0700844CA079623002100F045B800F067
:10057000004220F00040C10DC0F3160040F400001E
:100580007F2901DA00207047962903DCC1F196012A
:10059000C84001E096398840002AF4D040427047B4
:1005A000002801DBC0F10040002901DBC1F100415E
:1005B00081427047002801DBC0F10040002901DBC7
:1005C000C1F1004188427047202A04DB203A00FA3A
:1005D00002F1002070479140C2F1200320FA03F39A
:1005E0001943904070470029A8BF7047401C49003C
:1005F00008BF20F00100704710B4B0FA80FC00FA88
:100600000CF050EA010404BF10BC704749B1CCF1B2
:10061000200421FA04F411FA0CF118BF012121433E
:100620000843A3EB0C01CB1D4FEA00614FEA1020F9
:1006300042BF002010BC704700EBC350104400299B
:10064000A4BF10BC7047401C490008BF20F0010047
:1006500010BC704710B541000CD0C0F3C7519629AB
:1006600008DC7E2909DC06DB410204D000F00040F2
:1006700040F07E5010BD002010BDC1F19604C4F1C1
:10068000200100FA01F1E040FFF7ADFFA04010BDEE
:1006900010B500F0004420F00040C20DC0F3160079
:1006A00040F400007F2A07DA7D2A00DA7D22763ABC
:1006B00000FA02F1002008E0962A09DCA2F1760196
:1006C00000FA01F1C2F19602D040FFF78CFF01E081
:1006D000963A9040002C00D0404210BD002801DB2B
:1006E000C0F10040002901DBC1F10041814202D28A
:1006F0004FF0004004E04FF0005001D14FF0C040F7
:100700004FEA2062EFF3008162F31F6181F30088FA
:100710007047002070470000064C074D06E0E06877
:1007200040F0010394E8070098471034AC42F6D338
:10073000FFF702FDF06B0008106C000870B58C1814
:1007400010F8015B15F0070301D110F8013B2A11E5
:1007500006D110F8012B03E010F8016B01F8016BD2
:100760005B1EF9D12B0705D40023521E0DD401F8CE
:10077000013BFAE710F8013BCB1A921C03E013F897
:10078000015B01F8015B521EF9D5A142D8D30020CC
:1007900070BD10B505F06CFD002010BDFEE7704780
:1007A000042000F0BFB872B6FEE710B590F8211033
:1007B0000022022905D00421816380F82020012035
:1007C00010BD01680B6823F00E030B6001680B6815
:1007D00023F001030B6090F84030C46B012101FA53
:1007E00003F3636080F8211080F82020104610BDCC
:1007F0002DE9F05F90F821100024022903D0042194
:100800008163012485E001680A6822F00E020A6013
:1008100001680A6822F001020A603F4E3E4FB2159D
:10082000DFF8F4C0DFF8F090DFF8ECA0DFF8E8B014
:10083000DFF8E4E00168783F13011502ACF1640CC5
:10084000A9F15009AAF13C0AABF1280BAEF1140E44
:100850004FF48018B14227D9B9420ED0614512D069
:1008600049451DD0514518D0594518D0714501D181
:10087000424615E0294EB14201D1012210E0274E37
:100880001436B14201D110220AE0244E2836B1427A
:1008900006D0224A3C32914201D11A4600E02A4653
:1008A0001E49091F0A602BE0B94213D0614517D0D9
:1008B000494522D051451DD059451DD0714501D122
:1008C00042461AE0B14202D14FF0807215E0134E59
:1008D000B14201D1012210E0104E1436B14201D1D3
:1008E00010220AE00D4E2836B14206D00B4A3C32A7
:1008F000914201D11A4600E02A46074980394A60F0
:10090000012180F82110002180F82010416B01B1F5
:1009100088472046BDE8F09F80000240080402405E
:1009200070470000044910B50A68024202D008600E
:10093000FFF7F6FF10BD0000140401402DE9F84F49
:10094000DFF8C8910024A9F1040B23460F2709F111
:10095000040AABF1040ED1E00125A54006EA050228
:10096000AA4276D1DFF8A8C14E68A6EB0C0866450E
:100970002BD00DDC032E34D005DC36B3012E19D07C
:10098000022E2FD11BE0112E16D0122E2AD119E0E3
:10099000B8F5881F19D006DCB8F5803F15D0B8F53A
:1009A000801F1FD111E0B8F5001F0ED0B8F5041F4D
:1009B00018D10AE0CB6815E0CB681B1D12E0CB68AC
:1009C00008330FE0CB680C330CE08B682BB1012BA4
:1009D0004FF0080303D0456104E0042302E0056101
:1009E00000E00023FF2A01D8064601E000F10406DA
:1009F0004FEA840501D9A5F12005D6F8008007FA51
:100A000005FC28EA0C0803FA05F548EA0508C6F8CB
:100A100000804D68ED0070D53E4DAE6946F0010690
:100A2000AE61AD6924F0030605F0010500953A4D6D
:100A300006EB050CDCF80850A607360F07FA06F897
:100A400025EA0805DFF8D480404503D14FF00008BF
:100A500025E052E0DFF8C880404502D14FF00108A0
:100A60001DE0DFF8C080404502D14FF0020816E0DB
:100A7000DFF8B480404502D14FF003080FE0DFF803
:100A8000AC80404502D14FF0040808E0DFF8A080B8
:100A9000404502D14FF0050801E04FF0060808FA82
:100AA00006F848EA0508CCF808804D68D9F80060D7
:100AB000ED024D4601D5164300E096432E604D6889
:100AC000DAF80060AD02554601D5164300E09643C2
:100AD0002E604D68DBF80060AD035D4601D516431E
:100AE00000E096432E604D68DEF80060ED03754629
:100AF00001D5164300E096432E60641C0A68164632
:100B0000E2407FF429AFBDE8F88F000008040140FF
:100B100000001110001002400000014000080140D8
:100B2000000C014000100140001401400018014079
:100B3000001C0140C26821EA02030A4043EA024164
:100B4000016170470AB1016170470904FBE70000C9
:100B5000014880687047000000000020024881685A
:100B6000027811448160704700000020074810B5EA
:100B7000016841F010010160032000F08FF80020AF
:100B800000F006F800F03EF8002010BD0020024002
:100B900000B5014687B00022362000F05FF836200D
:100BA00000F04EF81348C16941F01001C161C069FD
:100BB00005A900F010000690684600F017F900F053
:100BC00035F90D494000B0FBF1F10D480B4A491EC3
:100BD0000260416040F2E7320021C0E903218160F8
:100BE00000F0B5FD10B1012007B000BD044800F0D1
:100BF000DDFDF9E70010024040420F000010004008
:100C0000CC0400200C4808B5816941F001018161E4
:100C1000816901F001010091C16941F08051C16118
:100C2000C06900F0805000900448416821F0E06104
:100C300041F00071416008BD001002400000014019
:100C4000002809DB00F01F020121914040098000CB
:100C500000F1E020C0F8001170470000F0B40E4B26
:100C60001B680C46C3F30223C3F10705042D00D90A
:100C70000425191D072901D2002300E0DB1E0126EF
:100C800006FA05F1491E214099409E40761E164005
:100C90003143F0BC01F095BD0CED00E0064900F0D9
:100CA000070208684FF6FF03184040EA0220034A93
:100CB00010430860704700000CED00E00000FA05EA
:100CC0002DE9F0470F46050061D0434E306800F033
:100CD0000700B84209D2306820F00700384330607E
:100CE000306800F00700B84251D128683B4C8107BA
:100CF00012D5400703D5606840F4E0606060287852
:100D0000000703D5606840F4605060606068A968BF
:100D100020F0F000084360602878C00728D0686899
:100D2000012810D02168022810D0890700292EDA66
:100D3000616821F0030101436160FFF709FF80460C
:100D400041F288390DE021688903EFE78901EDE779
:100D5000FFF7FEFEA0EB0801494502D90320BDE8DC
:100D6000F0876068696800F00C00B0EB810FEFD18C
:100D7000306800F00700B8420BD9306820F0070057
:100D800038433060306800F00700B84201D00120DD
:100D9000E5E72878400705D56068E96820F4E06059
:100DA000084360602878000706D56068296920F448
:100DB000605040EAC100606000F058F86168084A7D
:100DC000C1F30311515CC840064908600648006839
:100DD000FFF7DEFE0020C2E70020024000100240C4
:100DE000246500080C000020040000200F2202608F
:100DF0000C4A536803F003034360536803F0F003A5
:100E00008360536803F4E063C36052684FF4E063A7
:100E100003EAD20202610448006800F0070008609B
:100E200070470000001002400020024004480549BD
:100E300000684968044AC1F30221515CC840704708
:100E40000C000020001002403465000804480549E9
:100E500000684968044AC1F3C221515CC840704728
:100E60000C00002000100240346500080E4A516852
:100E70000E4801F00C03042B11D0082B0FD10C48A5
:100E8000C1F38343C903C05C0AD55168084AC1F362
:100E90004041921E515C054A5043B0FBF1F070474F
:100EA00004494843704700000010024000127A00D5
:100EB0001465000800093D002DE9F84F040070D0CA
:100EC0002078C04DC00749D06868C0F38100012870
:100ED00007D06868C0F38100022809D16868C003A0
:100EE00006D52868800339D560680028E7D035E04A
:100EF0006068B0F5803F0BD010B1B0F5A02F11D0D5
:100F0000286820F480302860286820F4802002E0DF
:100F1000286840F480302860606890B1FFF718FEC0
:100F200006460AE0286840F480202860F0E700BF09
:100F3000FFF70EFE801B642873D828688003F7D55E
:100F40000CE0FFF705FE064605E000BFFFF700FED8
:100F5000801B6428F0D828688003F7D420789A4E44
:100F600080074FF001094FF0000839D5686810F08C
:100F70000C0F07D06868C0F38100022809D16868A7
:100F8000C00306D42868800714D52069012808D139
:100F900010E02069B0B1C6F80090FFF7D9FD074610
:100FA00005E00AE1FFF7D4FDC01B0228C4D8286879
:100FB0008007F7D52868616920F0F80040EAC10091
:100FC00028600DE0C6F80080FFF7C2FD074604E088
:100FD000FFF7BEFDC01B022823D828688007F7D47E
:100FE000207800072CD57948A169D9B1C0F80090C4
:100FF000FFF7AEFD074604E0FFF7AAFDC01B02287D
:101000000FD8686A8007F7D571484FF4FA51006825
:10101000B0FBF1F0009000BF0098411E0091FAD2A1
:101020000EE080E0C0F80080FFF792FD074604E084
:10103000FFF78EFDC01B022875D8686A8007F7D4B9
:101040002078400760D5E8690027C00008D4E86927
:1010500040F08050E861E869012700F0805000907E
:101060005C480168C90513D40168834641F4807166
:101070000160FFF76DFD824606E000BFFFF768FDE7
:10108000A0EB0A0064284ED8DBF80000C005F5D5B7
:10109000E06801280AD008B1052813D0286A20F09A
:1010A00001002862286A20F0040002E0286A40F06B
:1010B00001002862E06841F2883B98B1FFF748FDE3
:1010C00082460BE0286A40F004002862EEE700BF89
:1010D000FFF73EFDA0EB0A0159455AD8286A800760
:1010E000F6D50CE0FFF734FD824605E0FFF730FD52
:1010F000A0EB0A0159454CD8286A8007F6D41FB1E5
:10110000E86920F08050E861E06988B36968C1F35C
:101110008101022944D00228C6F8608004D0FFF77C
:1011200017FD044638E034E0FFF712FD074604E0FF
:10113000FFF70EFDC01B02282BD828688001F7D4CA
:10114000206AB0F5803F05D16868A16820F40030BE
:1011500008436860D4E908010843696821F4741100
:1011600008436860C6F86090FFF7F2FC044606E0AA
:1011700025E000BFFFF7ECFC001B022809D8286817
:101180008001F7D51BE000BFFFF7E2FC001B02283F
:1011900002D90320BDE8F88F28688001F4D40EE05E
:1011A0000128F7D06868226A00F48031914204D1A6
:1011B000616A00F47010884201D00120EAE7002043
:1011C000E8E7000000100240000042428004424272
:1011D0000C00002000700040704790F851007047EC
:1011E00038B50446006842688168C9434B0606D595
:1011F000CB0704D1D3435B0601D4216C05E08B07F8
:1012000008D4D3431B0605D4616C01B02046BDE869
:10121000304008478B0601D54B0646D4D3439B0686
:1012200043D44B060AD494F85130032B3ED0636D5F
:1012300043F004036365C36883680093890609D497
:10124000616D41F00101616581680091016821F0E3
:1012500040010160606D002827D02068416821F0BE
:10126000E0014160012084F85100900722D02068FD
:10127000416821F003014160104DE06C40B14563CD
:10128000E06CFFF7B5FA18B1606D40F040006065A2
:10129000A06C002809D04563A06CFFF7A9FA0028CC
:1012A00003D0606D40F04000606538BDC168806863
:1012B000009038BD2046FFF78FFF38BDE11F0008C2
:1012C00070B5040009D0606A002540B125616561F0
:1012D000A56294F8510040B10CE0012070BD606837
:1012E000B0F5827FF4D0E561F2E784F850502046F3
:1012F00000F040F8022084F851002068016821F0D5
:1013000040010160A088218900F4827001F4044149
:101310000843A18901F400610843217C01F0020126
:101320000843217D01F001010843218B01F4007184
:101330000843217F01F03801084394F8201001F0A0
:1013400080010843218D01F40051084321680860A1
:10135000A069042101EA1040216848602068C16941
:1013600021F40061C1616565012084F8510000200D
:1013700070BD000030B585B0002400940194029443
:1013800003940068184988422BD11848816941F4B8
:1013900080518161816901F480510491816941F03A
:1013A000040181618069124D00F004000490A020C6
:1013B0000090022001900320039069462846FFF721
:1013C000BDFA4020CDE90004694628460294FFF7A3
:1013D000B5FA002201212320FFF740FC2320FFF76C
:1013E0002FFC05B030BD000000300140001002406D
:1013F000000801402DE9F84F984616468A460446F3
:10140000FFF7A6FB814694F8510001281ED1BAF1DE
:10141000000F73D0002E71D094F85000012815D021
:10142000012784F85070032084F851000025656579
:10143000C4F830A0A686E686A563A587E58765641F
:101440002564A068B0F5004F03D00CE00220BDE891
:10145000F88F2068016821F0400101602068016870
:1014600041F48041016020680168490603D40168A5
:1014700041F040010160E068B0F5006F606803D0A2
:1014800048B3012E27D047E008B1012E1FD1206BB1
:1014900021680088C86006E020688168890709D54E
:1014A000216B0988C160206B801C2063E08E401E88
:1014B000E0860CE0FFF74CFBA0EB0901414503D3AC
:1014C000B8F1FF3F03D035E0B8F1000F32D0E08E25
:1014D0000028E1D123E0206B21680078087306E042
:1014E0002068816889070AD5216B09780173206B10
:1014F000401C2063E08E401EE0860DE02BE0FFF7ED
:1015000027FBA0EB0901414503D3B8F1FF3F03D00E
:1015100010E0B8F1000F0DD0E08E0028E0D14A466F
:101520004146204600F064FD08B120206065A068B7
:1015300030B109E084F8517084F85050032086E7F8
:101540002068C1688068009084F8517004F8505F8A
:1015500060680028F3D0012079E72DE9FF4F81B0C2
:101560001D46934604464FF001090E9EFFF7F0FA20
:10157000074694F851006168012806D0B1F5827FD2
:101580003CD1A168C9BB042838D10298002871D089
:10159000BBF1000FFBD0002DF9D094F850000128CA
:1015A0002CD04FF0010A84F850A094F85100042880
:1015B00002D0052084F851004FF00008C4F8548090
:1015C000C4F838B0E587A58702992163E586A5862A
:1015D000C4F84080C4F8448020680168490603D4F8
:1015E000016841F040010160E068B0F5006F60689B
:1015F00008D0F0B3012D49D081E0FFE7022005B00B
:10160000BDE8F08F08B1012D39D1206B2168008829
:10161000C860206B801C2063E08E401EE0862EE0B8
:101620002068816889070FD5E18E69B1B9F1010F92
:101630000AD1216B0988C160206B801C2063E08E79
:10164000401EE0864FF0000920688168C9070CD071
:10165000E18F51B1C068A16B0880A06B801CA063B2
:10166000E08F401EE0874FF00109FFF771FAC01BC1
:1016700001E00BE067E0B04201D3701C50D1E08E76
:101680000028CDD1E08F0028CAD13EE0206B216830
:1016900000780873206B401C2063E08E401EE086BB
:1016A0002DE02068816889070FD5E18E69B1B9F115
:1016B000010F0AD1216B09780173206B401C206354
:1016C000E08E401EE0864FF0000920688168C9075F
:1016D0000CD0E18F51B1C068A16B0870A06B401CA9
:1016E000A063E08F401EE0874FF00109FFF730FA5A
:1016F000C01BB04202D3701C01D011E086B1E08E55
:101700000028CED1E08F0028CBD13A463146204682
:1017100000F06EFC50B12020606584F8508012E02B
:1017200084F851A084F85080032068E7A06818B9B5
:101730002068C1688068009084F851A084F85080C7
:10174000606D0028F1D0012059E77047704710B54F
:10175000040003D094F83D0010B107E0012010BD53
:10176000002084F83C00204600F01EF8022084F897
:101770003D00211D206800F08DFE012084F8460008
:1017800084F83E0084F83F0084F8400084F841006B
:1017900084F8420084F8430084F8440084F845004B
:1017A00084F83D00002010BD7047000090F83D1007
:1017B000012901D001207047022180F83D10016805
:1017C000CA6842F00102CA6000680E4988420ED021
:1017D0000D4988420BD0B0F1804F08D00B498842A8
:1017E00005D00B49884202D00A49884204D1816859
:1017F00001F00701062903D0016841F001010160F1
:1018000000207047002C01400034014000040040DB
:1018100000080040000C004070472DE9F0410446EC
:101820000068C66805694FF00007A90713D5B1071E
:1018300011D5F91E01610120207720688069800799
:10184000204602D0FFF7E8FF04E000F07EF82046D3
:1018500000F07CF82777680716D5700714D5216843
:101860006FF004000861022020772068806910F47E
:10187000407F204602D0FFF7CFFF04E000F065F87C
:10188000204600F063F82777280715D5300713D5D1
:1018900021686FF008000861042020772068C06983
:1018A0008007204602D0FFF7B7FF04E000F04DF8B4
:1018B000204600F04BF82777E80616D5F00614D539
:1018C00021686FF010000861082020772068C06947
:1018D00010F4407F204602D0FFF79EFF04E000F0A6
:1018E00034F8204600F032F82777E80708D0F007F0
:1018F00006D021686FF001000861204600F028F84A
:10190000280608D5300606D521686FF080000861EA
:101910002046FFF71AFF680608D5700606D521682D
:101920006FF040000861204600F01CF8A8060AD5B8
:10193000B00608D521686FF0200008612046BDE898
:10194000F041FFF703BFBDE8F0817047704700002A
:1019500000680349884201D1FFF700B970470000D1
:10196000001000407047704770470000F8B50168EC
:1019700004460868CA684B6910F00F0F4FF0000565
:1019800059D003F0010602F49077374365D0C107C0
:1019900005D0D10503D5616C41F0010161644107B7
:1019A00005D5D90703D0616C41F00201616481075C
:1019B00005D5D90703D0616C41F0040161640107CA
:1019C00007D502F02001314303D0616C41F00801DA
:1019D0006164616C00293AD0800604D5900602D576
:1019E000204600F0D4FD20684069616CC0F380108F
:1019F000090700D460B3204600F0A2FD20684069CA
:101A0000400621D52068143050E8001F21F0400125
:101A100040E80012002AF5D1E06BA8B16D4941639E
:101A2000E06BFEF7E5FE002811D0E06B416B01B0E2
:101A3000BDE8F040084783060FD593060DD5204634
:101A4000BDE8F84000F0A3BD2046FFF78DFFF8BDCC
:101A50002046FFF789FF6564F8BD266B2023012E21
:101A60007CD1C6067AD5D60678D508684868009035
:101A700048694FF00206400640D5E16B08684068AF
:101A80000004000CE8D0A28D8242E5D9E085886987
:101A900020282DD020680C3050E8001F21F48071E0
:101AA00040E80012002AF5D12068143050E8001FE9
:101AB00021F0010140E80012002AF5D1206814301D
:101AC00050E8001F21F0400140E80012002AF5D143
:101AD00084F84230256320680C3050E8001F21F064
:101AE000100140E80012002AF5D1E06BFEF75DFE20
:101AF0006663A08DE18D401A81B22AE0A08DE18D50
:101B0000401A81B2E08D0028A6D00029A4D0226816
:101B10000C3252E8000F20F4907042E80007002FCA
:101B2000F5D12068143050E8002F22F0010240E87F
:101B30000027002FF5D184F84230256320680C304F
:101B400050E8002F22F0100240E80023002BF5D1CE
:101B500066632046FFF707FFF8BDFFE705062BD5B4
:101B6000150629D594F841002128F5D1A068B0F5D3
:101B7000805F01D12069B0B1206A411C21622168D7
:101B800000784860E08C401E0004000CE084E3D143
:101B90002068C16821F08001C1602068C16841F0FF
:101BA0004001C160D8E7206A0088C0F3080048609F
:101BB000206A801C2062E5E74006CDD55006CBD5D3
:101BC000CA68204622F04002CA6084F8413000F022
:101BD000C6F8C1E73125000870B5040004D094F8B8
:101BE0004100002510B106E0012070BD84F840508E
:101BF000204600F023F8242084F841002068C168C2
:101C000021F40051C160204600F022FD20680169E6
:101C100021F4904101612068416921F02A0141616C
:101C20002068C16841F40051C1606564202084F8D7
:101C3000410084F842006563002070BD30B585B076
:101C40000024009401940294039400681849884287
:101C50002CD11848816941F480418161816901F486
:101C600080410491816941F0040181618069124DD4
:101C700000F0040004904FF40070009002200190E6
:101C80000320039069462846FEF758FE2815CDE943
:101C90000004694628460294FEF750FE0022032104
:101CA0002520FEF7DBFF2520FEF7CAFF05B030BD7B
:101CB00000380140001002400008014070472DE943
:101CC000F843044690F84100984616460D462028F1
:101CD00002D00220BDE8F88385B17EB100206064A7
:101CE000212084F84100FEF733FFA6848146E68474
:101CF000A0682027B0F5805F02D003E00120E9E76B
:101D0000206910B12E4600250EE000260CE080214F
:101D1000204600F0F9FCA8B9C6B116F8010B2168FD
:101D20004860E08C401EE084E08C4B464FF000029F
:101D3000CDF800800028EAD14FF04001204600F0A5
:101D4000E3FC40B184F841700320C3E735F8020B8F
:101D5000C0F30800E3E784F841700020BAE7704759
:101D600010B586B01CA003F02BFB224820490422AA
:101D7000C0E902211022C0E904214160082101606C
:101D80001D49816100F120010722086000200A211D
:101D9000CDE90220CDE9040103210120CDE90001B4
:101DA0001448164A0023203000F0D1FA114842218D
:101DB000203000F0B7F90446014611A003F000FB03
:101DC000122C06D01AA003F0FBFA4FF0FF3006B039
:101DD00010BD0020FBE700005374617274696E67E8
:101DE000204C6F526120496E69742E2E2E0A00001D
:101DF00000080140180500202C040020400ECF19D7
:101E00004C6F526120436865636B3A205265675698
:101E1000657273696F6E203D20307825303258200E
:101E2000284578706563742030783132290A0000C3
:101E30004C6F5261204572726F723A204861726431
:101E40007761726520636F6E6E656374696F6E2073
:101E50006661696C6564210A000000002DE9F047A5
:101E600086B000243548009401940294039481695B
:101E700041F040018161816901F040010491816973
:101E800041F004018161816901F0040104918169DB
:101E900041F0080181618069DFF8A48000F008004A
:101EA0000490002220214046FEF74CFEDFF894907B
:101EB000012218214846FEF745FEDFF88CA00022DB
:101EC00020215046FEF73EFE2027022601250097DE
:101ED0000396CDE9015469464046FEF72FFD0420E4
:101EE00000901A48CDE9010669464846FEF726FDEE
:101EF0000820CDE90005CDE9024669464846FEF7CF
:101F00001DFD1020CDE900050320CDE90240694602
:101F10004846FEF713FD00970396CDE90154694644
:101F20005046FEF70BFD002202210820FEF796FE28
:101F30000820FEF785FE06B0BDE8F08700100240DD
:101F40000018014000080140000C01400000111081
:101F5000104810B50E4901604FF4827141600021B4
:101F60008160C1604FF400720161C0E9051218225E
:101F7000C0E90721416281620A21C162FFF7A0F92D
:101F8000002803D0BDE81040FEF70DBC10BD0000D6
:101F9000003001402C0400200C4810B50A490160B3
:101FA0004FF4E1314160002181600C22C160C0E941
:101FB00004128161C161FFF70FFE002803D0BDE864
:101FC0001040FEF7F0BB10BD003801408404002033
:101FD000FEE7FEE70148FFF703B900002C040020EC
:101FE00010B5406A0021C187C186FFF7F5F810BD22
:101FF000F8B515460E460B46009204460122022112
:1020000000F010F840B933460022802120460095A8
:1020100000F008F8002804D0606D40F020006065F2
:102020000320F8BD2DE9F8431E4691468846044634
:10203000089DFEF78DFD401B351AFEF789FD07460A
:1020400025480068C0F3CB30684338E0701C37D0B7
:10205000FEF77EFDC01BA84203D215B1009860B305
:102060002CE02068416821F0E00141606068B0F533
:10207000827F0BD1A068B0F5004F02D0B0F5806F21
:1020800004D12068016821F040010160A06AB0F528
:10209000005F09D12068016821F4005101602068C7
:1020A000016841F400510160012084F851000020D2
:1020B00084F850000320BDE8F8830025401E0090FE
:1020C0002068816838EA010004D000214945BDD16B
:1020D0000020F0E70121F9E70C00002070472DE90E
:1020E000F0411E4617460C460546012B18D9002123
:1020F000286800F015F944F08001286800F0E2F843
:10210000002405E0395D286800F0DCF8641CE4B2C6
:10211000B442F7D32868BDE8F041012100F000B9CE
:10212000BDE8F08170B50446006800F0CBF8206887
:1021300000F0DAF805460121206800F0F1F82846A1
:1021400070BD70B50D46044616460068002100F0CB
:10215000E7F845F08001206800F0B4F831462068C7
:1021600000F0B0F82068BDE87040012100F0D8B858
:10217000F8B5044600F008F90F2000F0A1F8204659
:1021800000F09AF8A189A068C90441EA5031C0045E
:10219000474A0023FEF764F8020C42EA01428DF838
:1021A00000200A0642EA10218DF801108DF8020085
:1021B00003236A4606212046FFF791FF3422392186
:1021C0002046FFF7BEFF207C3A490A5C09212046E1
:1021D000FFF7B7FF0B2211462046FFF7B2FF23227D
:1021E0000C212046FFF7ADFF324D607C0835E91D1C
:1021F0002A5C281F861F062AA27C895CE27C4FEAA3
:102200000111805C01EB400030D0C2B21D2120469C
:10221000FFF797FF607C217D285C715C000100EB7B
:102220008100C2B21E212046FFF78BFF0422262127
:102230002046FFF786FF08221F212046FFF781FF77
:10224000002220212046FFF77CFF08222121204682
:10225000FFF777FF012241212046FFF772FF0020A0
:1022600084F81701204600F098F8F8BD401CC2B26F
:102270001D212046FFF765FF607C217D285C715C95
:10228000000100EB8100C01CC2B21E212046FFF7F6
:1022900058FF31212046FFF745FF00F0F80040F0DD
:1022A000050231212046FFF74CFF0C223721BAE707
:1022B0000048E8013E65000888220121FFF741BF80
:1022C00003F0A6BC13B50446002100F029F84FF432
:1022D0007A73012201A9A069FFF78CF8A069FEF7C3
:1022E0007CFF0128FAD11CBD3EB5044600208DF8C4
:1022F00008008DF804000146204600F011F84FF464
:102300007A700090012301AA02A9A069FFF725F9BC
:10231000A069FEF762FF0128FAD19DF804003EBDD6
:10232000012905D00022018A406989B2FEF70ABC62
:102330000122F8E710B504460121FFF7F1FF2088DC
:10234000012281B26068BDE81040FEF7FBBB2DE9B9
:10235000F05F04460AA8154690E8800F1E462068E4
:10236000FFF7E8FFC4E90256277484F8118084F867
:10237000129084F813A084F814B00F98607520466A
:10238000BDE8F05FFFF7F4BE10B504460822012156
:10239000FFF7D7FE0020A07510BD10B50446092236
:1023A0000121FFF7CEFE0120A07510BD10B502F08F
:1023B000C1FF03F011FDBDE8104002F0C9BF30B508
:1023C0008FB028216846FDF7A5FF14210AA8FDF764
:1023D000A1FF01210804CDE9001000240294022588
:1023E0000491CDE907504FF4E01009906846FEF7DC
:1023F00063FD08B172B6FEE70F20CDE90A054FF480
:102400008060CDE90C4002210AA80E94FEF758FC2A
:10241000002801D072B6FEE70FB030BD144910B5E8
:102420004868144A10F00C03134803D0042B01D061
:10243000082B09D002604968104AC1F30311515CAE
:102440000268CA40026010BD4A684B6802F470120C
:102450004FF0020413F4803F04EB924202D04B6829
:102460009B0301D5064B00E0024B5A43E2E7000014
:102470000010024000127A000C00002024650008C1
:1024800000093D00704700000148FFF7C6B9000091
:10249000CC040020F0B50268204C214D214E224F83
:1024A000224B4FF0804CA04209D0984207D06045A3
:1024B00005D0A84203D0B04201D0B84204D122F0E6
:1024C000700E4A6842EA0E02A04209D0984207D034
:1024D000604505D0A84203D0B04201D0B84203D134
:1024E00022F44075CA682A434D6922F080022A43CB
:1024F00002608A68C2620A688262A04201D0984281
:1025000001D109690163012141610169C90703D052
:10251000016921F001010161F0BD0000002C0140C2
:102520000004004000080040000C0040003401405E
:1025300010B5406A0021C185C184FFF715FA10BDAE
:1025400001680C3151E8002F22F4907241E8002319
:10255000002BF5D10168143151E8002F22F001025F
:1025600041E80023002BF5D1016B012909D1016855
:102570000C3151E8002F22F0100241E80023002B1B
:10258000F5D1202180F8421000210163704708B581
:1025900090F84210222901D0022008BD82684FF431
:1025A00080539A4201D1016921B1816A9A421BD0BC
:1025B0004AB10AE00268816A5268C2F308020A80DE
:1025C000816A891C08E0026972B10268526802F0EF
:1025D0007F020A70816A491C8162C18D491E09040B
:1025E000090CC18503D01BE002685268F1E701685D
:1025F000CA6822F02002CA600168CA6822F48072A8
:10260000CA6001684A6922F001024A61202180F80B
:10261000421000214163026B012A03D0FFF74EFBF9
:10262000002008BD016301680C3151E8002F22F041
:10263000100241E80023002BF5D101680A68D20698
:1026400002D50A6849680091818DFFF78CF9E7E7A8
:1026500070B5044600680169E26821F440511143F5
:1026600001612169A0680843616908432168CA685B
:1026700041F20C639A430243CA6020684169A2692F
:1026800021F44071114341611E492068884202D102
:10269000FEF7DCFB01E0FEF7C9FB00EBC00101EB3C
:1026A0000012606864218000B2FBF0F3B3FBF1F329
:1026B0006FF018067343B2FBF0F5B2FBF0F605EBD2
:1026C0008305322303EB0515B5FBF1F5B6FBF1F6F7
:1026D00005F0F00505EB0615B2FBF0F6B2FBF0F0E5
:1026E000B0FBF1F06FF01802504306EB800003EBF3
:1026F0000010B0FBF1F0216800F00F002844886062
:1027000070BD0000003801402DE9F8439846174697
:102710000D460446089E24E0701C22D0FEF718FAED
:10272000A0EB0800B0421AD8CEB12068C1684907B2
:1027300017D5802D15D0402D13D00168C943090746
:102740000FD401680025406800902046FFF7F8FE8E
:102750000820606484F840500120BDE8F88303201D
:10276000FBE72068006835EA000004D00020B8428A
:10277000D2D00020F1E70120F9E700000148FFF77F
:10278000F5B8000084040020FEE70000014A024979
:1027900000F0C6B8AB3100081C040020410008025C
:1027A00018BF04200A0E18BF40F001004FF07F420E
:1027B00032EA010108BF40F00200012808BF0520ED
:1027C00070470907090E002804DB00F1E02080F8BB
:1027D0000014704700F00F0000F1E02080F8141D95
:1027E000704700214FF07E50FDF76EBE0121FDF7CE
:1027F000A9BEFDF7DFBD00210846FDF765BE6121DA
:102800004FF0E040FDF79EBE6FF05E010807FDF758
:1028100099BE0000002806D00E4910F0FF0F03D02B
:10282000C0B2085C401C704710F47F4F04D0C0F366
:102830000720085C0930704710F47F0F04D0C0F304
:102840000740085C1130704701EB106000781930C8
:10285000704700005765000802E008C8121F08C151
:10286000002AFAD170477047002001E001C1121F11
:10287000002AFBD170470000014908607047000042
:10288000280400202DE9F04F89B092468B46064679
:10289000002400E0641C305D202803D0092801D00A
:1028A0005C45F7D34FF0FF387CB3194804F10609B3
:1028B000184F056811E0062217A12868FDF76BFD87
:1028C00050B9286822463146801DFDF764FD18B9CD
:1028D000296811F8090020B10C3538688542EAD31F
:1028E00014E0AC688CB120216846FDF713FD6A4600
:1028F0005946304601F028FD38B16946A047CAF86C
:102900000000002009B0BDE8F08FFFE74046F9E77E
:1029100074030020780300205F5F636D645F000034
:102920002DE9F04116460F460446002503E03946DE
:10293000B047641C6D1C20780028F8D12846BDE8FB
:10294000F08100002DE9FC411F460446DDE9083115
:10295000DDE90A65143040600060C4E90827C4E975
:102960000A310A46232118461C3402F00BFED4E932
:1029700003014218D4E90101104B121F02F0BEFC02
:1029800044F81A0B002004F801690D4A04F8036B9F
:10299000E4E8020544F8105901C404F83C0B01C4F2
:1029A00044F87409009023460190194604F144004C
:1029B00003F0A6FA0020BDE8FC810000F95A0008E7
:1029C000175D000810B5029C24F001044472C0E9B0
:1029D00007120021C0E9093114304060006010BDC9
:1029E000143002F034BD70B50546FDF7BFFB296F0A
:1029F000044609B1284688472046BDE87040FDF7E7
:102A0000B9BB10B5012A05D0022A07D0BDE8104095
:102A100000F0AABBBDE81040FDF724BDFDF7CAFCDD
:102A20004FF07E51FDF718FD0146BDE81040002033
:102A300000F086BB10B51BA002F0C2FC1C4C217834
:102A40001CA002F0BDFC2078C00702D01FA002F03D
:102A5000B7FC2078800702D51FA002F0B1FC2078D7
:102A6000400702D51FA002F0ABFC2078000702D57A
:102A700020A002F0A5FC2078C00602D520A002F01C
:102A80009FFC2078000607D509480F300168BDE893
:102A900010401DA002F094BCBDE810401EA002F042
:102AA0008FBC0000627573206661756C743A0A0011
:102AB00029ED00E05343425F434653525F42465381
:102AC000523A3078253032582000000049425553A0
:102AD0004552522000000000505245434953455290
:102AE00052200000494D505245434953455252200F
:102AF00000000000554E53544B4552522000000038
:102B000053544B45525220005343422D3E424641BE
:102B1000523A253038580A000A00000010B500F07B
:102B200047FF002010BD10B501F006F8002010BDD1
:102B300010B50446C06800F041FBE06900F03EFBC0
:102B40002046BDE8104000F039BB10B50446806D4A
:102B500008B1FFF7EDFF2046BDE8104000F02EBBA6
:102B600070B50D460646002405E000BF56F8240067
:102B7000FFF7EBFF641CAC42F8D33046BDE8704071
:102B800000F01CBB2DE9F041074606981C4615468F
:102B90000E4628B105A0FFF7F9FD23462A46314627
:102BA0003846BDE8F04101F093BA00005761726900
:102BB0006E673A204E6F2073756368206F662064DD
:102BC0006566757A7A6966696572210A0000000097
:102BD000012A01D0401A7047084470472DE9F0419E
:102BE00007464FF07E5590460E462846FDF734FCCA
:102BF000044629463846FDF732FC2146FDF732FCF3
:102C00002946FDF72CFC414601F02AFD04464146C9
:102C10002846FDF721FC054631463846FDF722FCE3
:102C2000294601F01DFD2146BDE8F041FDF71ABC23
:102C30002DE9F04104464FF019404E49002500EBC4
:102C4000440088424AD84C492046FDF70BFCFDF76A
:102C500001FD8046FDF78BFC064648494046FDF7DE
:102C600001FC074646494046FDF7FCFB2146FDF7BF
:102C7000F6FB3946FDF7F0FB04464249FDF7F2FB4F
:102C80004149FDF797FB2146FDF7ECFB6FF0414111
:102C9000FDF790FB2146FDF7E5FB3C49FDF78AFB7C
:102CA0002146FDF7DFFB0146394806F0030478446E
:102CB00050F82400FDF7D6FB3649794451F824102A
:102CC000FDF778FB3449794451F82410FDF772FB85
:102CD000B11085BBBDE8F041FDF734BC4FF0FF41BA
:102CE00031EA040018D04FF0CE41B1EB440F84BF5D
:102CF0004FF07E50BDE8F0812849B1EB440F28BF6A
:102D00000125A0D20220FFF7B7FD14F0004F0ED02E
:102D1000BDE8F041FFF778BD204614F5000F04BF71
:102D20000020BDE8F081BDE8F041FFF75FBDBDE8E0
:102D3000F041FFF764BDFDF705FC04000BD0B4F1D2
:102D4000FF4F0FD0FFF72AFD042808BFFFF75CFDF7
:102D50002046BDE8F0810220FFF78EFDBDE8F0417E
:102D6000FFF752BD0220FFF787FDBDE8F041FFF7F6
:102D700046BD00000000501E3BAAB840F4FD0537D8
:102D80000070313E12BB2A3D12BB2A3EFFFF7F3F3F
:102D9000EA390000CE390000B23900000000A085F9
:102DA000104810B5416991F82110890703D40E49E4
:102DB0000020087014E0016929B14FF480720A48BC
:102DC000FDF7BFFA0CE001F0BDFA08B107A100E081
:102DD00008A10548FDF7D6FA08A10348FDF7A5FAB2
:102DE000014810BD74030020500600206D73682058
:102DF0000000000066696E73682000003E0000005D
:102E00000349496911F8212F60F341020A707047A4
:102E100074030020014AC2E90001704774030020D6
:102E20007CB516491648FFF7F5FF7821012002F01E
:102E30003FF8144C6061D0B10A211520CDE90001A2
:102E40004FF480630022104910A002F030FE0546C6
:102E500000231A460FA1606902F0BCFC0120FFF7B5
:102E6000CFFF15B1284602F01FFF00207CBD0BA04C
:102E700002F0A6FA4FF0FF307CBD0000F06B0008B6
:102E80000C6B000874030020B52E0008747368658D
:102E90006C6C000073687278000000006E6F206D2B
:102EA000656D6F727920666F72207368656C6C0A4D
:102EB00000000000984D686910F8211F41F00101E1
:102EC0000170FFF76DFF02F07BFA002602F0DEF8DA
:102ED0000400FBD41B2C07D0686990F8201001294E
:102EE00007D002290ED017E06969012081F820007F
:102EF000ECE75B2C02D080F820600DE0022180F826
:102F00002010E3E780F82060412CDFD0422CDDD098
:102F1000442C38D0432C43D0002CD7D0FF2CD5D014
:102F2000092C4ED07F2C75D0082C73D00D2C70D06E
:102F30000A2CFCD0B0F87210502901D3A0F87260AE
:102F4000B0F87430B0F872108B427DD2CA1A00F11A
:102F5000220123301944184402F0FAFA6869B0F8E3
:102F6000741022300C54686990F82110C90706D0FB
:102F7000B0F874102230014468A002F021FA6869A8
:102F8000B0F87440A5E0B0F8740000289ED064A0AA
:102F900002F016FA686930F8741F491E018095E73F
:102FA000B0F87410B0F8722091428FD22230095CD0
:102FB0005CA002F005FA696931F8740F401C0880C2
:102FC00084E7002403E056A002F0FAF9641C686963
:102FD000B0F87400A042F6DC6C6953A0223402F011
:102FE000EFF901F0AFF9012802D1204601F0E6F82F
:102FF000FFF7D6FE014622464CA002F0E1F96869CF
:103000002230FDF7AAF9696921F8720F48805DE75F
:1030100000E03DE0B0F87420002AC0D0B0F8721093
:10302000521E491E89B293B2A0F87210A0F87430F3
:10303000994224D9CA1A00F12301223019441844B4
:1030400002F086FA686900E049E0B0F872102230B8
:103050000E546869B0F874102230014435A002F0B3
:10306000AFF96869B0F8744003E02DA002F0A8F948
:10307000641C6869B0F87200A04290DBF5E72FA0ED
:1030800002F09EF96869B0F8721022300E541DE704
:1030900001F058F901280DD1686990F82100C007A6
:1030A00002D021A002F08CF96869B0F872102230C9
:1030B00001F0DAF8FFF774FE02F082F96869502136
:1030C0002230FDF727F9686922E015A002F078F9AF
:1030D000641C6869B0F87200A042F6DC0AE0223095
:1030E0000C54686990F82100C00703D021460DA058
:1030F00002F066F96869B0F87210491C89B2A0F84C
:103100007210B0F87420521CA0F874205029BED35D
:1031100020F8726F4680D9E6740300202573000002
:1031200008000000256300000A00000025732573D5
:103130000000000008257320200800000820080077
:1031400070B50C460546FDF7C9FA00F07040B0F1C5
:10315000005F07D024F00040C0F1FF40C00F04BF63
:10316000204670BD284670BD70B50C460546FDF77B
:10317000B5FA00F07040B0F1004F07D024F00040E5
:10318000C0F1FF40C00F04BF204670BD284670BD8F
:10319000032A01D2FFF735BC062A02D2D21E01F063
:1031A00047B94FF07C52FFF719BD38B504468DF88A
:1031B000000069460320ABBE204638BD10B500288C
:1031C00021D0114B0022001F196803E0814203D86F
:1031D0000A4649680029F9D152B11368841A9C4201
:1031E00004D1006818441060104602E0506000E00E
:1031F000186039B102680B1A934203D10B681A4464
:1032000002604968416010BD200400202DE9F74F9D
:10321000A4B04FF00008394F15468346CDF84480DE
:10322000444646460DF14C090DF1040ACDF848809C
:10323000286900EB0612E8680168584600F0CCFEE9
:10324000B84204DD4AF8240049F82460641C761C66
:10325000072EEDDBCB460026D1461194286900EB02
:103260000612E8684168259800F0B6FEB84204DD11
:1032700049F824004BF82460641C761C072EEDDB13
:103280001198211A129138B131B14843800000F0F1
:1032900001FE0746002621E00020414603E0EA69DE
:1032A00042F82010401C6A688242F8D827B0BDE876
:1032B000F08F00240EE01198AA68011959F8260031
:1032C00059F82110FFF764FF129906FB0141641CB5
:1032D00047F821001298A042EDD8761C1198B04210
:1032E000E7D82B4611AA13A93846CDF80080FFF77E
:1032F00049FC3846FFF762FFD8E7000017B7D1381E
:1033000070B506460D46202000F0C4FD0446701935
:10331000C4E90065800000F0BDFDE060A80000F099
:10332000B9FDE061204670BDF0B50024DDE905651A
:1033300003E0C76847F82410641CD0E9007C6744A8
:10334000A742F6D800210C4603E0C76947F82140A0
:10335000491C47688F42F8D806618260C0E905358C
:10336000F0BD00002DE9F047156B14468A46D56282
:10337000FDF775F8064629462063FDF76DF8A16A4A
:10338000FDF7A2F8364F3946FDF76CF80546304692
:10339000616AFDF799F83946FDF764F82946A26D90
:1033A000FFF734FFA56D3946E8690068FDF78CF832
:1033B000E168FDF757F821688846FCF7FBFF814676
:1033C000A06168680026022809D3E8693946406888
:1033D000FDF77AF82169FDF745F8E06100E0E66164
:1033E0006868032809D3E86939468068FDF76CF8F6
:1033F0006169FDF737F8206200E0E661E169606825
:10340000FCF7D8FF276B3946FDF72CF8616BFCF70A
:10341000D1FF606306463846E16AFDF71DF80546B0
:10342000216AA068FCF7C6FF2946FDF71BF8054690
:1034300049464046FCF7BEFF3946FDF713F83146D2
:10344000FCF7B8FF2946FCF7B5FF05465146206C4E
:10345000FDF708F82946FCF7ADFF6064BDE8F0878A
:10346000000040402DE9FF4F8FB0866804469A4621
:10347000934630461099FDF727F86568814628463F
:103480001099FDF721F82768804638461099FDF716
:103490001BF80DF12C0E1E994FF47A7C4FF4FA7341
:1034A00000228EE80E10DDE91C120B4B0DF1100C02
:1034B000CDF820A003938CE8010BCDE90912D4E9E3
:1034C00004018DE80B00324629463846E36801F0D6
:1034D00095FC13B0BDE8F08F0000C84270B51546EA
:1034E0001C461A46FFF73EFFFDF741F801462A4603
:1034F000E06CFFF76DFBA26C216DBDE8704000F041
:1035000035B900002DE9FF4F83B00746DDE912868B
:10351000DDE910A99B46B00000F0BCFC0546002484
:1035200010E000BFCDF800A0CDE90198DDE904125C
:10353000C4EBC40007EB80005B46FFF793FF45F840
:103540002400641CB442EDD307B02846BDE8F08FD8
:1035500010B5124C2068800702D511A001F030FF91
:103560002068400011D50D48C01E007808B1FFF753
:1035700061FA0A48001F007808B100F0C1FC074852
:10358000801E008808B102F0F9FE2068002804DAE5
:10359000BDE8104008A001F013BF10BD2CED00E005
:1035A0006661696C656420766563746F7220666518
:1035B0007463680A000000006465627567206576C0
:1035C000656E740A0000000010B502A001F0F8FE5C
:1035D000002010BD48656C6C6F2052542D546872E9
:1035E000656164210A00000070B50C46032804DA06
:1035F00021A001F0E5FE27A01FE030A16068FCF7E4
:10360000B3FE30B12EA16068FCF7AEFE18B12DA05C
:1036100013E0364E00E0364E202536A1A068FCF7B8
:10362000A3FE70B134A1A068FCF79EFE88B133A15F
:10363000A068FCF799FEA0B132A0BDE8704001F08F
:10364000BFBE002229463046FDF77CFA3BA06168E8
:103650000DE0012229463046FDF774FA3BA061686F
:1036600005E029463046FDF765FA61683BA0BDE8F4
:10367000704001F0A5BE000055736167653A206C8B
:103680006564205B722F675D205B6F6E2F6F6666CF
:103690005D0A00004578616D706C653A206C656468
:1036A0002072206F6E2020285475726E206F6E205D
:1036B000526564204C4544290A0000007200000055
:1036C000670000004572726F723A20556E6B6E6F24
:1036D000776E20636F6C6F7221205573652027729F
:1036E00027206F72202767272E0A0000000C014058
:1036F000001801406F6E00006F666600746F6767A8
:103700006C6500004572726F723A20556E6B6E6F79
:10371000776E20616374696F6E2120557365202771
:103720006F6E272C20276F666627206F7220277404
:103730006F67676C65272E0A000000004C45442027
:103740002573206973204F4E0A0000004C45442029
:103750002573206973204F46460A00004C454420DB
:10376000257320546F67676C65640A00884201DD29
:10377000084670479042FCDA1046704770B50CA0BE
:1037800001F01EFE0F48104D04680BE002220FA14D
:103790002068FCF700FE20B1D4E900120CA001F073
:1037A0000FFE0C3428688442F0D3002070BD000066
:1037B0002D2D46756E6374696F6E204C6973743A73
:1037C0000A00000074030020780300205F5F0000FF
:1037D000252D313673202D2D2025730A0000000081
:1037E0002DE9F04104461E4617460D46084601F0F5
:1037F00037FF001D2060257200206760C4E9036068
:10380000BDE8F0812DE9F0410D4600212961E9680C
:1038100091B1297A81B12E6888B10446FCF7A6FCE3
:103820000146A4F10C002A7A007A20F08000904230
:1038300009D00846FCF79EFC0020BDE8F081344624
:10384000FCF794FC0146686800272468B44201D163
:10385000002404E010C0EA687F1CBA42F5D1084693
:10386000FCF788FC20462F61E7E700002DE9F041D6
:1038700096B000262FA408230CAA052106A8FFF75E
:10388000AFFF08208046014622462CA001F098FD9B
:10389000404600F0C1FD32A001F092FD06A930467D
:1038A000FFF7B0FF064600253BE00CA850F8254086
:1038B0000C3CFCF75BFC0146207A9DF8202020F0B0
:1038C00080009042084602D0FCF754FC28E0FCF748
:1038D00051FC606904F11407B842384613D001F076
:1038E0009BFD228C618C0091CDE9012023460822AA
:1038F000414622A001F064FD384602F0CFFC25A02D
:1039000001F05EFD0CE001F087FD218C628CCDE9B9
:10391000002102902346082241461FA001F050FDDD
:103920006D1C0A98A842C0DC002EB7D116B000204A
:10393000BDE8F0816D61696C626F7800252D2A2EDB
:103940007320656E7472792073697A65207375735C
:1039500070656E64207468726561640A000000001E
:10396000202D2D2D2D20202D2D2D2D202D2D2D2DBB
:103970002D2D2D2D2D2D2D2D2D2D0A00252D2A2ED1
:103980002A732025303464202025303464202564B7
:103990003A0000000A000000252D2A2E2A73202557
:1039A0003034642020253034642025640A0000006F
:1039B00010B5074C07A0E16801F002FD0AA02169DB
:1039C00001F0FEFC6169BDE810400CA001F0F8BCFC
:1039D000A4030020746F74616C206D656D6F727943
:1039E0003A2025640A00000075736564206D656DDA
:1039F0006F7279203A2025640A0000006D617869B1
:103A00006D756D20616C6C6F6361746564206D65AC
:103A10006D6F72793A2025640A0000002DE9F041AB
:103A200094B000262CA408230BAA022105A8FFF7B6
:103A3000D7FE08208046014622462AA001F0C0FC9D
:103A4000404600F0E9FC2EA001F0BAFC05A9304682
:103A5000FFF7D8FE0646002535E00BA850F82540B4
:103A60000C3CFCF783FB217A9DF81C2021F080019F
:103A7000914202D0FCF77EFB24E0FCF77BFB6069FF
:103A800004F11407B842384611D001F0C5FCA18BEF
:103A9000CDE900102346082241461FA001F090FC0A
:103AA000384602F0FBFB15A001F08AFC0AE001F0A9
:103AB000B3FCA18BCDE900102346082241461AA091
:103AC00001F07EFC6D1C0998A842C6DC002EBDD119
:103AD00014B00020BDE8F08173656D6170686F728D
:103AE00065000000252D2A2E732076202020737576
:103AF0007370656E64207468726561640A0000000A
:103B0000202D2D2D202D2D2D2D2D2D2D2D2D2D2DFF
:103B10002D2D2D0A00000000252D2A2E2A73202588
:103B20003033642025643A00252D2A2E2A7320255F
:103B30003033642025640A002DE9F041B4B000263A
:103B40003CA408232CAA012126A8FFF749FE08203F
:103B5000804601462246394801F032FC404600F0DA
:103B60005BFC37A001F02CFC26A93046FFF74AFE8B
:103B70000646002554E02CA850F825400C3CFCF7E4
:103B8000F5FA0746207A9DF8A01020F080008842C0
:103B900003D03846FCF7EEFA41E07822214607A828
:103BA000FCF79FFB3846FCF7E5FA94F835000090E7
:103BB00023460822414632A001F002FC94F834006A
:103BC00000F00F00012807D0022807D040B10428D8
:103BD00008D0032808D00AE02CA006E02EA004E0BC
:103BE00030A002E032A000E034A001F0E9FBA06ABE
:103BF000014600E0401C0278232AFBD0E26A401A0A
:103C0000101A64235843B0FBF2F3276B206CCDE904
:103C10000007E069081A81182BA001F0D1FB6D1C88
:103C20002A98A842A7DC002E9ED134B00020BDE81F
:103C3000F08100007468726561640000EC67000840
:103C4000202D2D2D20202D2D2D2D2D2D2D202D2DD8
:103C50002D2D2D2D2D2D2D2D202D2D2D2D2D2D2DA1
:103C60002D2D2D20202D2D2D2D2D2D20202D2D2DB8
:103C70002D2D2D2D2D2D2D202D2D2D0A0000000058
:103C8000252D2A2E2A732025336420002072656199
:103C900064792020000000002073757370656E64E5
:103CA0000000000020696E697420202000000000E0
:103CB00020636C6F73652020000000002072756E19
:103CC0006E696E670000000020307825303878205B
:103CD0003078253038782020202025303264252582
:103CE00020202030782530387820253033640A00B1
:103CF000F0B593B0002626A408230BAA0A2104A835
:103D0000FFF76EFD08272246394623A001F058FB35
:103D1000384600F081FB2AA001F052FB04A930468E
:103D2000FFF770FD0646002524E00BA850F825405B
:103D30000C3CFCF71BFA217A9DF8182021F0800139
:103D4000914202D0FCF716FA13E0FCF713FAD4E91B
:103D50000901CDE9000123460822394621A001F0DE
:103D60002FFB607AC00701D024A000E026A001F05C
:103D700027FB6D1C0898A842D7DC002ECED102F09C
:103D800025F8014624A001F01BFB13B00020F0BD74
:103D900074696D6572000000252D2A2E7320207035
:103DA0006572696F64696320202074696D656F7541
:103DB0007420202020202020666C61670A0000000B
:103DC000202D2D2D2D2D2D2D2D2D2D202D2D2D2D3D
:103DD0002D2D2D2D2D2D202D2D2D2D2D2D2D2D2D20
:103DE0002D2D0A00252D2A2E2A73203078253038D3
:103DF00078203078253038782000000061637469BD
:103E000076617465640A0000646561637469766153
:103E10007465640A0000000063757272656E742038
:103E20007469636B3A3078253038780A00000000F6
:103E300010B542210448FEF775F90146BDE810406F
:103E400002A001F0BDBA0000380500204D616E757A
:103E5000616C20526561643A203078253032580A0E
:103E600000000000FCF782FEFEF7A9FAFDF7F6FF5E
:103E7000FEF76EF8FEF790F8FDF772FF642001F090
:103E8000C7FEFBE710B501F02FF8BDE81040FFF7C3
:103E9000E9BF0000F0B50B30154D20F007010024FC
:103EA000144A0FE003688B420BD38B4205D95E1A8C
:103EB00043184768C3E9006700E04368136002C025
:103EC00004E0021D10680028ECD12046002802D131
:103ED000286808B10020F0BD064A07481060074A6C
:103EE000121A22F00702C0E9002401202860D7E757
:103EF0002404002020040020F4460020F066002066
:103F000010B518A001F05CFA1B4C21781BA001F041
:103F100057FA2078C00702D01EA001F051FA20788D
:103F2000800702D51EA001F04BFA2078000702D5C9
:103F30001EA001F045FA2078C00602D51EA001F0AF
:103F40003FFA2078000607D50B480C300168BDE821
:103F500010401CA001F034BABDE810401D4801F02B
:103F60002FBA00006D656D206D616E61676520661A
:103F700061756C743A0A000028ED00E05343425F1B
:103F8000434653525F4D4653523A307825303258AB
:103F9000200000004941434356494F4C2000000097
:103FA0004441434356494F4C200000004D554E5369
:103FB000544B4552522000004D53544B4552522011
:103FC000000000005343422D3E4D4D41523A2530F2
:103FD00038580A00EC6300082DE9F843804614467F
:103FE0000D464FF07E571068FCF7B8FA0646062DCE
:103FF00061D2DFE805F00318304260566068FCF7D4
:10400000ADFA014634464046FCF726FA2146FCF755
:104010005BFA4FF0804100F023FBBDE8F84380F0ED
:104020000040FEF705BEA068FCF798FA05466068F8
:10403000FCF794FA0121FCF785FA0446294640462C
:10404000FCF70AFA3146FCF73FFA20F0004021461F
:1040500000F006FB0CE0A068FCF780FA014634464D
:104060004046FCF7FCF92146FCF7FCF9FEF7E0FDC1
:104070003946BDE8F843FCF79DB9E068FCF76EFAF5
:104080000746A068FCF76AFA05466068FCF766FA1E
:10409000024631462B460097404602F02BF9BDE818
:1040A000F8836068FCF75AFA024631464046BDE89C
:1040B000F84302F0D0B9A068FCF750FA05466068F2
:1040C000FCF74CFA0246314613460095E4E700003F
:1040D0002DE9FF4F81B00020009058681D4617461B
:1040E0008B468000FFF7D6FE81460020014602E0A5
:1040F00049F82010401C6A688242F9D80026D7F897
:1041000000A010E0D7F804800AE000BF06FB0841D9
:10411000019850F821100098FCF74CF9641C0090AD
:10412000A045F3D8761CB2454FF00004EAD82DE044
:10413000002026E000261EE05BF82800C4EBC40245
:104140001044C0EBC001386882195BF822000144BA
:10415000A86950F82100FCF701FA08FB0A620199EE
:1041600051F82210FCF77EF959F82410FCF722F9D7
:1041700049F82400761C78688246B042DCD808F101
:104180000100396880464145D4D8641C6868A04263
:10419000CED8002409E000BF59F824000099FCF7AC
:1041A00093F9E96941F82400641C6868A042F3D8D7
:1041B00005B04846BDE8F04FFFF700B82DE9F047DD
:1041C0008046002500782C4618B12248224F066808
:1041D00031E0BDE8F0470021084600F077B806223C
:1041E0001EA13068FCF7D7F820BB306800F1060943
:1041F0004046FCF7B2F8024649464046FCF7CBF889
:10420000C0B925B94C464846FCF7A7F805464946CB
:10421000204601E0401C491C02781AB10B780BB112
:104220009A42F7D0001BA84200DA054649460DA085
:1042300001F0C6F80C3638688642D0D3002C06D080
:104240002A4621464046BDE8F04701F091BBBDE853
:10425000F087000074030020780300205F5F636D27
:10426000645F000025730A0038B5044601E0491E6A
:10427000641C59B120782028F9D00928F7D06A4663
:104280002046FEF7FFFA18B1204604E0002038BDB2
:10429000009838BD401C0178202901D00029F9D1AF
:1042A00000210170214603A001F08AF84FF0FF3091
:1042B00038BD000025733A20636F6D6D616E642018
:1042C0006E6F7420666F756E642E0A0070B50EA056
:1042D00001F076F81348144D04680CE0062213A18F
:1042E0002068FCF758F828B9D4E9001211A0891DFC
:1042F00001F066F80C3428688442EFD310A001F076
:104300005FF8002070BD000052542D546872656142
:1043100064207368656C6C20636F6D6D616E64738F
:104320003A0A000074030020780300205F5F636D89
:10433000645F0000252D313673202D2025730A007F
:104340000A0000000120704770B5002315461C4686
:104350001A464BE000F8012B5B1C0678202E01D09A
:10436000092E01D18B42F5D3082C11D321A001F0E5
:1043700027F8002606E000BF55F8261025A001F01A
:104380001FF8761CA642F7D321A001F019F82FE000
:104390008B422DD2F6B2222E03D045F82400641CA5
:1043A0001BE0401C45F824005B1C641C08E05C2EEC
:1043B00004D14678222E01D1401C5B1C401C5B1CA2
:1043C0000678222E01D08B42F1D38B4210D200F816
:1043D000012B5B1C0AE0401C5B1C0678202E03D0DE
:1043E000092E01D08B42F6D38B4201D28B42B4D33B
:1043F000204670BD546F6F206D616E7920617267C9
:10440000732021205765206F6E6C79205573653AB3
:104410000A0000002573200010B5044602E003A046
:1044200000F0CEFF641EFAD210BD00002D00000087
:1044300070B50D460646012A05D0022A0FD0BDE808
:104440007040FEF77DBEFCF70DF804462946304665
:10445000FBF7B0FF2146BDE87040FBF7FDBFFBF75F
:10446000A9FFBDE8704001464FF07E50FEF77CBECC
:104470002DE9F04F87B035A000F0A2FF3B4A06239C
:1044800002F5137100208DE80F00042201231107AB
:104490003748FFF737F8050055D036A000F090FFF9
:1044A0003949052700268B4638A000F0E9FB39A1E1
:1044B0000024D1E900010DF110094FF47A7ACDE919
:1044C000040100BF55F8273019F807205946304637
:1044D000FFF704F88046A0F5FA70FCF73FF82F4983
:1044E000FBF7F2FF2E49FBF7BDFF2E49FBF7BAFFA2
:1044F0003146FBF75FFF0646FCF739F80190FCF701
:104500002DF83146FBF7ABFF2749FBF7ABFFFCF774
:104510002EF8002800DA404200904246214623A0AF
:10452000019B00F04DFF142001F072FB641C544508
:10453000C8DB06212846FEF713FB24A000F040FF4D
:1045400007B0BDE8F08F27A0F8E700005374617250
:10455000742046757A7A79205049442053696D75E4
:104560006C6174696F6E2E2E2E0A00001000002000
:10457000CC02002050494420496E69742053756371
:10458000636573732E0A00000000B44254617267C1
:104590006574000001000000010100000000FA4302
:1045A0000000C842CDCCCC3D00007A445374657005
:1045B0002025643A204F75743D25642C2052656196
:1045C0006C3D25642E253033640A000053696D75F7
:1045D0006C6174696F6E2046696E69736865642EDC
:1045E0000A0000004572726F723A204D616C6C6F68
:1045F00063206661696C65642120436865636B2094
:10460000486561702053697A652E0A0030B51349F8
:1046100043680A68134402F1080498420DD05D888B
:104620005DB94D68AB4208D08D689D4200D188606D
:104630005D6845605B68851A1D5183681344834239
:104640000BD05D88002D08D18D68854200D18B602C
:10465000416859604068991A015130BDA403002097
:104660002DE9F04D0E460023A0F5000C4FF000712F
:10467000354684B002464FF07E5401EB45014FF0C1
:104680007F48BCF1FE4F80F09F81B1F1804FC0F0B8
:10469000DB81FE490144B1F5005F40F2A78200F5DD
:1046A0008021C90C01F00F07C1F307117F39A2EB7C
:1046B000C15501EB030B3846FBF750FF6FF00301C8
:1046C000FBF740FF4FF07E51FBF774FE014602906E
:1046D0002846FBF7C1FE019028460299FBF76AFEC7
:1046E00000F5006A6FF30B0A009051460298FBF741
:1046F000B3FE2946FBF75EFE02904FF07E50009914
:10470000FBF7E2FE014600900198FBF7ABFE00F5D7
:1047100000656FF30B0528460299FBF7A3FE029094
:1047200051462846FBF79EFE0199FBF798FE029939
:10473000FBF792FE0099FBF795FE01460190284693
:10474000FBF738FE01460290FBF78CFE8246D0490B
:10475000FBF788FECF49FBF72DFE5146FBF782FEA3
:10476000824600212846FBF7EDFE00905146029854
:10477000FBF778FE054600210198FBF7E3FE29468A
:10478000FBF718FE824601460098FBF713FE00F582
:1047900000656FF30B0529460098FBF75DFE514657
:1047A000FBF708FE8246BC492846FBF75BFE0090FB
:1047B000BA495046FBF756FE8246B9492846FBF7F0
:1047C00051FE5146FBF7F6FD824601460098FBF785
:1047D000F1FD00F500656FF30B0529460098FBF726
:1047E0003BFE5146FBF7E6FD8246AE48784450F862
:1047F000371000EBC700019147684FEA0B10FBF739
:10480000ADFE009039465046FBF7D4FD2946FBF734
:10481000D1FD0199FBF7CEFD0099FBF7CBFD00F52B
:10482000006B6FF30B0B58460099FBF715FE0199CF
:10483000FBF712FE2946FBF70FFE3946FBF70CFE8D
:104840005146FBF70CFE06F5006782466FF30B0737
:1048500039463046FBF700FE002100900846FBF782
:1048600058FF00F00C0639465846FBF7FBFD05469D
:1048700020F00040B0F18B4F0ADDB8EB400F07D3BA
:104880004FF08B4060F31E052F464FF0000A1FE0EB
:1048900038460099FBF78EFD5146FBF7E3FD0746CE
:1048A00058460099FBF7DEFD3946FBF783FD82464B
:1048B00001462846FBF77EFD00F500676FF30B0706
:1048C00039462846FBF7C8FD5146FBF773FD824683
:1048D00031460C20FBF71DFF51463846FBF76AFDB9
:1048E000FBF7D6FE06460511FBF738FE3946FBF707
:1048F000B6FD5146FBF75EFD07466B49FBF7B2FD7F
:104900006A49FBF757FD3946FBF7ACFD6849FBF7F1
:1049100051FD3946FBF7A6FD0146664806F00F0635
:10492000784450F82600FBF79DFD6349794451F81F
:104930002610FBF73FFD6149794451F82610FBF73B
:1049400039FD05F17D01FC2908D22946FBF7FAFD66
:1049500004B02146BDE8F04DFBF784BD05F1BF0171
:10496000B1F5BF7F16D82946FBF7ECFD2146FBF7D2
:1049700079FD0546B8EB450F1AD068000CD02846E3
:10498000FDF70CFF042808BFFDF73EFF284604B0E2
:10499000BDE8F08D002D0BDA0220FDF76DFFFDF76D
:1049A00033FF0146204604B061F31E00BDE8F08DE0
:1049B0000220FDF761FFFDF722FF0146204604B00B
:1049C00061F31E00BDE8F08DB1F1804F3CD300BF14
:1049D00000F1FF41B1F1FE4F21D200BF20F00042B3
:1049E000C5F3C75110467F290DDB9729BFF651AE9D
:1049F000C1F196014FF0010C0CFA01F1A1F1010C8B
:104A00001CEA050F07D00120FDF736FF04B0BDE812
:104A1000F04DFDF7F0BE294218BF294C39E64100A0
:104A20001CBF4FF08071B1EB400F09D91B21FBF780
:104A300089FD02466FF01A0310F0004FCED128E630
:104A4000BCF1FE4F18D224E6B1F1007F0ED336F050
:104A5000004105D006F0004141F0FC552E46B7E775
:104A6000410018BFB8EB400F78D8B1E7B1F1807FB3
:104A700038BFA5F50006ABD320F000416FF0FF4C26
:104A8000104C01EB0C03A3422FD31DE0001080C09B
:104A90007EE24C3EABAAAA3E00B038423BAA384266
:104AA000D49AB8BBBC1E0000FC596337C9FF753AE5
:104AB0001872313D881E00003C1E0000F01D0000F1
:104AC000000080BFFFFF3F0025F000439C44A44549
:104AD0000BD3B0F17E5F18BF5FEA450C3ED0B1F159
:104AE000FF4F98BFB3F1FF4F05D904B03146BDE881
:104AF000F04DFDF77EBEB0F1FF4F0FD0C5F3C751AB
:104B00007F2909DB972911DAC1F19601012202FA06
:104B100001F14A1E2A4205D0002108E015F0004F9D
:104B200055D128E0294218BF012100D1022110F5FA
:104B3000000F14D020B3B0F1004F27D010F1814FF7
:104B40004ED04FF0FE41B1EB400F94BF012000204A
:104B5000012101EBE571884239D10CE040E015F00C
:104B6000004F02D0012936D031E0012902BF3F4871
:104B700004B0BDE8F08D4FF0FF4004B0BDE8F08D0B
:104B800015F000400ED104B0BDE8F08DB5F1FF4F37
:104B90001DD015F5000F05D015F0004F14D009B148
:104BA000012907D00220FDF767FE04B0BDE8F04DF3
:104BB000FDF717BE0220FDF75FFEFDF712FE04B001
:104BC00080F00040BDE8F08D09B1012903D004B0A8
:104BD0000020BDE8F08D04B04FF00040BDE8F08D3E
:104BE00004B04FF07E50BDE8F08D00BF4FF07E5115
:104BF000FBF732FC05466FF00101FBF7A3FC1C49F3
:104C0000FBF72DFC2946FBF72DFC4FF07C51FBF701
:104C100026FC074629460846FBF724FC80F00040A6
:104C20003946FBF71FFC824612492846FBF71AFC5F
:104C3000074611495046FBF715FC82460F492846A6
:104C4000FBF710FC5146FBF7B5FB0546014638461D
:104C5000FBF7B0FB00F5006B6FF30B0B59463846C2
:104C6000FBF7FAFB2946FBF7A5FBECE5000080FF0C
:104C7000ABAAAA3E00B0B8413BAAB841D49A38BB0F
:104C800070B505460E460846FBF771FC0446FBF777
:104C900065FC3146FBF7E3FB0749FBF7E3FBFBF75A
:104CA00066FC030000D5434222462946BDE8704019
:104CB00002A000F085BB000000007A4425733A2072
:104CC00025642E253033640A000000002DE9F04FE2
:104CD00085B09946DDE90EA5109CAB46630602D56A
:104CE000DFF814C103E0DFF810C1ACF1110CE306EA
:104CF00001D524F00104E30701D0302300E0202394
:104D000000260493A3070BD5002A02DA2D2652426F
:104D100006E0630701D52B2602E0230700D52026F5
:104D20000023EE4622B930228DF8002001230CE04A
:104D3000B9F10A0F14D002F00F0812091CF808800C
:104D40000EF803805B1C002AF2D1AB4200DD1D4649
:104D5000AAEB050214F0110F4FF0200708D015E060
:104D60000A27B2FBF7F807FB1828B2FBF7F2E5E7D2
:104D70003EB1002A05DD521E03E0884200D20770D2
:104D8000401CB2F1000CA2F10102F6DC26B188420F
:104D900000D20670401C521EE40605D508E0884289
:104DA00001D2049C0470401C141EA2F10102F6DC26
:104DB00030242E466D1E9E420ADD884200D20470C9
:104DC000401CF6E7884201D2E55C0570401C00E01B
:104DD00074461D1EA3F1010307DDBBF1000FF1D1E5
:104DE00003E0884200D20770401C131EA2F10102AA
:104DF000F7DC05B0BDE8F08F686600082DE9FC5FC0
:104E0000054610A8984690E8000E16460F465C200E
:104E1000FFF740F80446C4E900570025C4E905B58A
:104E2000C5610562083080E840060E9961620F99FD
:104E3000A16213480121874203DD0221864200DD81
:104E400003210220FEF75CFAA065DDE91612CDE928
:104E5000001213AE96E80E00FEF766FAE5622563CF
:104E6000C4E90D580C98E0630D9820641A982065E9
:104E70001998E0641898A0642046BDE8FC9F0000E3
:104E800017B7D1381CB514210A20CDE900014FF421
:104E900080730022034904A000F009FEBDE81C4015
:104EA00000F002BF853E00086D61696E00000000E1
:104EB00070B54843044600F0D3FA050003D02246FB
:104EC000002100F05FFB284670BD000070B5044C67
:104ED000044D02E020688047241DAC42FAD370BD27
:104EE000F86A0008006B000870B5044C044D02E03D
:104EF00020688047241DAC42FAD370BD006B0008C7
:104F0000086B000810B5FBF731F9044A5188491CB9
:104F10005180BDE81040FBF72DB90000FC030020D4
:104F200010B5FBF723F90B4C6188491E09B261806B
:104F300000290ADC00216180FBF71CF96068002869
:104F400007D0BDE8104000F0CDBBBDE81040FBF736
:104F500011B910BDFC03002070B5002833D01A4DE4
:104F6000296888422FD3696888422CD2A0F10C04AA
:104F70004FF0FF31154800F064FC60884FF4F5569F
:104F800010B12088B04208D011A000F019FA23888F
:104F90006288214615A000F013FA00206080268068
:104FA000A868844200D2AC6029686068611A401A1F
:104FB0002969081A28612046FFF728FBBDE87040E0
:104FC000024800F019BC70BDA4030020CC090020E9
:104FD000746F20667265652061206261642064617F
:104FE000746120626C6F636B3A0A00006D656D3A04
:104FF000203078253038782C207573656420666CF5
:1050000061673A2025642C206D6167696320636FB6
:1050100064653A203078253034780A0000487047BB
:10502000EC0A002000487047EC46002010B5FBF762
:105030009DFDFDF7C4F9FDF7F1F9FCF70FFFFCF753
:10504000ABFF10484FF47A710068B0FBF1F0401EDE
:10505000B0F1807F0AD24FF0E02148610A4AF02087
:1050600082F8140D0020886107200861FFF72EFFE9
:10507000FFF7D8FF0446FFF7D1FF2146BDE81040F7
:1050800000F08ABC0C0000200FE000E0094808B5E1
:1050900000684FF0FF310268920602D54068C1B245
:1050A00005E00268120702D5026840680090C8B2A5
:1050B00008BD000084040020F8B506460D200F4905
:1050C0008DF80000002481F84040304600F048FC94
:1050D00005460FE0305D0A2805D101231A466946CE
:1050E0000648FCF7ECFD012331191A460348FCF78A
:1050F000E6FD641CAC42EDD3F8BD00008404002042
:1051000070B50546041D2D48016819B12846884729
:10511000002851D02AA0E16B00F052F92CA0216A9E
:1051200000F04EF92EA0616A00F04AF930A0A16AA1
:1051300000F046F932A0E16A00F042F934A021689B
:1051400000F03EF936A0616800F03AF938A0A16895
:1051500000F036F93AA0E16800F032F93CA021698C
:1051600000F02EF93EA0616900F02AF940A0A16983
:1051700000F026F942A0E16900F022F944A0216B79
:1051800000F01EF946A0616B00F01AF948A0A16B6F
:1051900000F016F92878400708D500F05FFD0146B9
:1051A00047A000F00DF9FEF7C7FC02E04CA000F0AC
:1051B00007F9FEF7CDF9FEE770BD00008C03002073
:1051C0007073723A203078253038780A0000000079
:1051D0007230303A203078253038780A00000000EC
:1051E0007230313A203078253038780A00000000DB
:1051F0007230323A203078253038780A00000000CA
:105200007230333A203078253038780A00000000B8
:105210007230343A203078253038780A00000000A7
:105220007230353A203078253038780A0000000096
:105230007230363A203078253038780A0000000085
:105240007230373A203078253038780A0000000074
:105250007230383A203078253038780A0000000063
:105260007230393A203078253038780A0000000052
:105270007231303A203078253038780A000000004A
:105280007231313A203078253038780A0000000039
:105290007231323A203078253038780A0000000028
:1052A000206C723A203078253038780A00000000EF
:1052B0002070633A203078253038780A00000000EA
:1052C00068617264206661756C74206F6E2074680A
:1052D000726561643A2025730D0A0D0A0000000012
:1052E00068617264206661756C74206F6E206861FD
:1052F0006E646C65720D0A0D0A00000070B50446FC
:10530000121D22F007000022094D403840F82250BB
:10531000521C102AFAD301620021416281624FF0CF
:10532000807200F13005C263C16285E81A0070BD69
:10533000EFBEADDE10B5FAF719FF044A1178491C2B
:105340001170BDE81040FAF715BF0000A00300205F
:1053500010B5FAF70BFF044A1178491E1170BDE829
:105360001040FAF707BF0000A00300202DE9F0412C
:10537000064614460D46084600F0ACFC05F114073D
:10538000B4B1012C18D134680EE000BF95F8351087
:1053900094F82120A4F11400914204D2394614302B
:1053A00000F033F802E02468B442EFD1B44203D1F4
:1053B0003946304600F029F80020BDE8F0810000B1
:1053C0000FB4FF2110B503AB0448029A00F006FEAB
:1053D0000248FFF771FE10BC5DF814FBCC080020FA
:1053E0000268516002680A600160486070470268A4
:1053F000516002680A60016048607047026851604D
:1054000002680A6001604860704742681160426843
:105410004A604160086070470246002100E0491C74
:1054200000689042FBD108467047D0E900124A60FC
:10543000D0E900121160406000607047D0E90012AE
:105440004A60D0E900121160406000607047D0E906
:1054500000124A60D0E9001211604060006070479D
:105460002DE9F047002807D0374CC01C20F0030678
:10547000E068864202D90020BDE8F0870C2E00D2F9
:105480000C264FF0FF31314800F0DBF9D4F808C0AA
:105490002168E768ACEB0100BA1B4FE00D186B8880
:1054A000E3BB6B681B1A0C3BB34246D36A6806F138
:1054B0001803121A0C3A4FF001094FF4F55A9A42A8
:1054C0002DD383190C33CA184FF00008A2F800A09E
:1054D000A2F80280D5F80480C2E901806B60A5F8CB
:1054E000029050680C37B84202D001F10802835094
:1054F000206930440C3020616269824200D26061D0
:10550000A5F800A0654512D1A06842887AB162680A
:1055100090420CD040680844A060F6E70DE0A5F882
:10552000029068686A1A801A22691044E3E7074803
:1055300000F062F905F10C009EE768688242ADD880
:10554000024800F059F996E7A4030020CC09002096
:1055500010B50346994211D28C189C420ED981187D
:1055600004E000BF14F8013D01F8013D521EF9D2DC
:1055700010BD00BF11F8014B03F8014B521EF9D2C8
:1055800010BD000010B50346CCB2042A1AD381071F
:1055900018D1194644EA042343EA034306E008C14C
:1055A000103A08C141F8083B41F8043C102AF6D2F1
:1055B00001E008C1121F042AFBD20B4602E000BF23
:1055C00003F8014B521EFBD210BD2DE9F0410F46EE
:1055D000064600F045F80546C068FFF741FF0400A5
:1055E00019D00021EA68FFF7CDFF26720020607213
:1055F00008223946204600F0BBF9FAF7B7FD064607
:1056000004F10C01281DFFF7EBFE3046FAF7B2FD5E
:105610002046BDE8F0810020FBE770B5044600207D
:105620002072FAF7A3FD054604F10C00FFF7FDFE1A
:105630002846FAF79FFD2046BDE87040FFF78CBC76
:1056400070B5044600202072FAF790FD054604F17B
:105650000C00FFF7EAFE2846BDE87040FAF78ABD65
:10566000074A002102EB01131B78834202D102EBAF
:1056700001107047491C0429F4DB0020704700002A
:10568000BC0300202DE9F041044616460D460846AD
:10569000FFF7E6FF0746FFF735FC381D796800E0A5
:1056A00009688142FCD1FFF73BFC45F08000207285
:1056B00008223146204600F05BF9FAF757FD05460F
:1056C00004F10C01381DFFF78BFE2846BDE8F041C0
:1056D000FAF750BD007A000601D50120704700207E
:1056E0007047000070B5FAF741FD114C054660881F
:1056F000B0B9A068FDF78EF80E49401E626851F8F7
:105700003010143991420BD020700B486160007842
:1057100001F11C01002802F11C0006D0FAF72DFD52
:105720002846BDE87040FAF725BDFAF726FDF7E7F1
:10573000FC030020EC090020A003002010B5044663
:10574000FAF714FD024694F834000E4920F00F00D9
:10575000401C84F8340094F8350001EBC00104F1DA
:1057600014004B6818604B68A3614860064861618B
:10577000A16B836819438160BDE810401046FAF7B9
:10578000F9BC0000EC090020FC03002010B5044621
:10579000FAF7ECFC04F11401D1E900235360D1E9DC
:1057A00000231A60A161616194F83520074951F81E
:1057B000323001EBC2018B4204D10549A36B8A68E8
:1057C0009A438A60BDE81040FAF7D4BCEC09002087
:1057D000FC0300202DE9F04116460A461F46054607
:1057E0000221FFF74FFF05F11404AC616C61AE8339
:1057F0006F720020BDE8F08170B50446FAF7B6FC80
:105800000546606904F11401884208D0143800F09C
:1058100006FA2846FAF7AEFCFFF764FF09E0A08B12
:105820004FF6FF71884206D2401CA0832846FAF743
:10583000A1FC002070BD2846FAF79CFC6FF0020026
:1058400070BD73B50546FAF791FC0646A88B28B1E2
:10585000401EA8833046FAF78DFC21E0019808B37A
:1058600000F0FCF90446002020636A7A214605F125
:105870001400FFF77BFD0198002809DD04F14400C6
:1058800001AA0021054600F003FB284600F04CFB6E
:105890003046FAF76FFCFFF725FF206B002800D198
:1058A00000207CBD3046FAF765FC6FF001007CBD3E
:1058B00008B509A0FFF784FD0AA0FFF781FD12A03B
:1058C000009005230122032112A0FFF779FDBDE816
:1058D000084018A0FFF774BD0A205C207C202F0A26
:1058E000000000002D205254202D20202020205484
:1058F0006872656164204F7065726174696E6720BB
:1059000053797374656D0A00446563202033203237
:1059100030323500202F207C205C202020202025C4
:10592000642E25642E2564206275696C64202573BD
:105930000A0000002032303036202D203230323044
:1059400020436F707972696768742062792072747D
:105950002D746872656164207465616D0A000000D1
:10596000014600E0491C0A78002AFBD1081A70475A
:1059700010B5002A07D0034611F8014B03F8014B7C
:105980002CB1521EF8D110BD03F8011B00E000211C
:10599000521EF9D110BD00000A46C11C10B522F0FC
:1059A000030321F00301182B20D9A3F118048C4222
:1059B0001CD3114C581A18382160E0604FF4F5528E
:1059C0000A8000230C30C1E901034B804B68194465
:1059D00061600A8001224A8048608860002307A134
:1059E0000848FFF7F7FE2068A06010BD0146BDE83B
:1059F000104005A0FFF7E4BCA403002068656170B7
:105A000000000000CC0900206D656D20696E69748E
:105A10002C206572726F7220626567696E20616406
:105A2000647265737320307825782C20616E642051
:105A3000656E6420616464726573732030782578C4
:105A40000A00000010B50A4900230A4C4B80184692
:105A500004EBC002401C526012602028F8DB1F20BB
:105A6000087003484B600C308B604060006010BDD4
:105A7000FC030020EC09002010B5074CA068FCF7DF
:105A8000C9FE0649401E51F8300014386060BDE878
:105A900010401C30FAF79FBBFC030020EC090020EB
:105AA00001484060006070471404002070472DE9F1
:105AB000FF478946DDE90C76824601461D46904641
:105AC0000120FFF782FD041E0DD02846FFF7C8FC19
:105AD00060B103968DE8A10043464A4651462046F0
