:020000040800F2
:10000000006B002049010008A3200008110200082D
:10001000A12000089D070008192B0008000000001F
:10002000000000000000000000000000AD210008FA
:100030009F070008000000009B0100083B27000804
:100040006301000863010008630100086301000800
:1000500063010008630100086301000863010008F0
:10006000A10700086301000863010008630100089C
:1000700063010008630100086301000863010008D0
:1000800063010008630100086301000863010008C0
:1000900063010008630100086301000863010008B0
:1000A00063010008630100086301000863010008A0
:1000B0006301000863010008630100086301000890
:1000C000630100086301000863010008A52000081F
:1000D000630100080D2B000863010008630100089C
:1000E0006301000863010008630100086301000860
:1000F0006301000863010008630100086301000850
:10010000630100086301000863010008630100083F
:100110006301000863010008192800086301000852
:10012000630100086301000863010008630100081F
:10013000DFF810D000F0F0FA0048004793070008FD
:10014000AFF30080006B0020064880470648004758
:10015000FEE7FEE7FEE7FEE7FEE7FEE7FEE7FEE777
:10016000FEE7FEE71528000831010008EFF31080D4
:1001700072B6704780F310887047324A1368012BBB
:1001800004D04FF0010313602F4A10602F4A116012
:100190002F484FF0805101607047EFF3108272B624
:1001A0002848016891B14FF00001016026480168BC
:1001B00029B1EFF3098121E9F00F006801602349BB
:1001C00009680968B1E8F00F81F3098882F31088A3
:1001D0004EF0040E70471D4908601B494FF00000A7
:1001E000086018494FF0010008601A481A49D0F811
:1001F000002041EA0201016015484FF08051016082
:1002000016480068006880F3088861B662B67047D7
:100210001EF0040F0CBFEFF30880EFF3098020E914
:10022000F00F40F804ED1EF0040F0CBF80F30888B7
:1002300080F3098800B505F07BFA5DF804EB4EF019
:10024000040E70479C0300209403002098030020B4
:1002500004ED00E020ED00E00000FFFF08ED00E00D
:100260002DE9F05F0546002092469B4688460646EB
:10027000814640241BE0284641464746224600F07E
:1002800020F853465A46C01A914110D311461846D9
:10029000224600F099F92D1A67EB01084F462246D5
:1002A0000120002100F090F917EB00094E41201EBB
:1002B000A4F10104DFDC484631462A464346BDE846
:1002C000F09F202A04DB203A21FA02F00021704737
:1002D00021FA02F3D040C2F12002914008431946AE
:1002E000704740EA01039B0703D009E008C9121FC9
:1002F00008C0042AFAD203E011F8013B00F8013BE0
:10030000521EF9D27047D2B201E000F8012B491E0B
:10031000FBD270470022F6E710B513460A460446A2
:100320001946FFF7F0FF204610BD421E12F8013FAC
:10033000002BFBD111F8013B02F8013B002BF9D156
:10034000704710B5044604E00B7800F8013B03B198
:10035000491C521EF8D2204610BD421C10F8011B49
:100360000029FBD1801A704710B5002200E0521C12
:10037000835C8C5CA34201D1002BF8D1D8B2E1B2EE
:10038000401A10BD034611F8012B00F8012B002A7A
:10039000F9D11846704730B505460020034600E005
:1003A0005B1C934205D2EC5CC85C201A01D1002C86
:1003B000F6D130BDF0B480EA0102D40F4200B2EBB6
:1003C000410F02D20246084611464A0042D0C30DF0
:1003D000DDB2C1F3C752AD1A202D35DAC1F31601D3
:1003E00041F4000204B15242C5F1200602FA06F1BE
:1003F0002A411044B3EBD05F23D0C4B1012DA0EB50
:10040000C35009DCF0BC4FF0004202EAC352DBB239
:1004100000F5000000F0F0B8400000F1807000EB43
:10042000C350A0F1807040EAD170490009E049084A
:1004300041EAC071A0EBC35000F50000400800EB9A
:10044000C350F0BC00F0CFB86142012202EB410181
:10045000001BF6E7F0BC704781F00041AAE780F08E
:100460000040A7E780EA010210B502F00043400017
:1004700022D04A001FD0010E01EB1261C0F35600DA
:10048000C2F3560240F4000042F40002A0FB022036
:1004900000047F39140400D0401C50EA124001D4FB
:1004A0004000491EC2B20C0604EBD010401C4008AC
:1004B000802A02D003E0002010BD20F001000029B6
:1004C00000DA0020184310BD30B480EA010202F0C7
:1004D000004530F0004221F0004013D090B1C30D30
:1004E000D40DC2F31601C0F31600E41A41F4000162
:1004F00040F400027D34914201D3641C00E04900C5
:10050000002C02DA30BC002070474FF400000023BA
:10051000914201D3891A034340084FEA4101F7D1C0
:1005200051B1914202D14FF0004105E002D24FF0AB
:10053000010101E06FF0010103EBC450284430BC1D
:1005400000F051B8420005D0C0F3C7525242914268
:1005500001DC0020704700EBC1507047C10F80EAFA
:10056000E0700844CA079623002100F045B800F067
:10057000004220F00040C10DC0F3160040F400001E
:100580007F2901DA00207047962903DCC1F196012A
:10059000C84001E096398840002AF4D040427047B4
:1005A000002801DBC0F10040002901DBC1F100415E
:1005B00081427047002801DBC0F10040002901DBC7
:1005C000C1F1004188427047202A04DB203A00FA3A
:1005D00002F1002070479140C2F1200320FA03F39A
:1005E0001943904070470029A8BF7047401C49003C
:1005F00008BF20F00100704710B4B0FA80FC00FA88
:100600000CF050EA010404BF10BC704749B1CCF1B2
:10061000200421FA04F411FA0CF118BF012121433E
:100620000843A3EB0C01CB1D4FEA00614FEA1020F9
:1006300042BF002010BC704700EBC350104400299B
:10064000A4BF10BC7047401C490008BF20F0010047
:1006500010BC704710B541000CD0C0F3C7519629AB
:1006600008DC7E2909DC06DB410204D000F00040F2
:1006700040F07E5010BD002010BDC1F19604C4F1C1
:10068000200100FA01F1E040FFF7ADFFA04010BDEE
:1006900010B500F0004420F00040C20DC0F3160079
:1006A00040F400007F2A07DA7D2A00DA7D22763ABC
:1006B00000FA02F1002008E0962A09DCA2F1760196
:1006C00000FA01F1C2F19602D040FFF78CFF01E081
:1006D000963A9040002C00D0404210BD002801DB2B
:1006E000C0F10040002901DBC1F10041814202D28A
:1006F0004FF0004004E04FF0005001D14FF0C040F7
:100700004FEA2062EFF3008162F31F6181F30088FA
:100710007047002070470000064C074D06E0E06877
:1007200040F0010394E8070098471034AC42F6D338
:10073000FFF702FD687500088875000870B58C1811
:1007400010F8015B15F0070301D110F8013B2A11E5
:1007500006D110F8012B03E010F8016B01F8016BD2
:100760005B1EF9D12B0705D40023521E0DD401F8CE
:10077000013BFAE710F8013BCB1A921C03E013F897
:10078000015B01F8015B521EF9D5A142D8D30020CC
:1007900070BD10B506F0E2F9002010BDFEE770470D
:1007A000042000F0BFB872B6FEE710B590F8211033
:1007B0000022022905D00421816380F82020012035
:1007C00010BD01680B6823F00E030B6001680B6815
:1007D00023F001030B6090F84030C46B012101FA53
:1007E00003F3636080F8211080F82020104610BDCC
:1007F0002DE9F05F90F821100024022903D0042194
:100800008163012485E001680A6822F00E020A6013
:1008100001680A6822F001020A603F4E3E4FB2159D
:10082000DFF8F4C0DFF8F090DFF8ECA0DFF8E8B014
:10083000DFF8E4E00168783F13011502ACF1640CC5
:10084000A9F15009AAF13C0AABF1280BAEF1140E44
:100850004FF48018B14227D9B9420ED0614512D069
:1008600049451DD0514518D0594518D0714501D181
:10087000424615E0294EB14201D1012210E0274E37
:100880001436B14201D110220AE0244E2836B1427A
:1008900006D0224A3C32914201D11A4600E02A4653
:1008A0001E49091F0A602BE0B94213D0614517D0D9
:1008B000494522D051451DD059451DD0714501D122
:1008C00042461AE0B14202D14FF0807215E0134E59
:1008D000B14201D1012210E0104E1436B14201D1D3
:1008E00010220AE00D4E2836B14206D00B4A3C32A7
:1008F000914201D11A4600E02A46074980394A60F0
:10090000012180F82110002180F82010416B01B1F5
:1009100088472046BDE8F09F80000240080402405E
:1009200070470000044910B50A68024202D008600E
:10093000FFF7F6FF10BD0000140401402DE9F84F49
:10094000DFF8C8910024A9F1040B23460F2709F111
:10095000040AABF1040ED1E00125A54006EA050228
:10096000AA4276D1DFF8A8C14E68A6EB0C0866450E
:100970002BD00DDC032E34D005DC36B3012E19D07C
:10098000022E2FD11BE0112E16D0122E2AD119E0E3
:10099000B8F5881F19D006DCB8F5803F15D0B8F53A
:1009A000801F1FD111E0B8F5001F0ED0B8F5041F4D
:1009B00018D10AE0CB6815E0CB681B1D12E0CB68AC
:1009C00008330FE0CB680C330CE08B682BB1012BA4
:1009D0004FF0080303D0456104E0042302E0056101
:1009E00000E00023FF2A01D8064601E000F10406DA
:1009F0004FEA840501D9A5F12005D6F8008007FA51
:100A000005FC28EA0C0803FA05F548EA0508C6F8CB
:100A100000804D68ED0070D53E4DAE6946F0010690
:100A2000AE61AD6924F0030605F0010500953A4D6D
:100A300006EB050CDCF80850A607360F07FA06F897
:100A400025EA0805DFF8D480404503D14FF00008BF
:100A500025E052E0DFF8C880404502D14FF00108A0
:100A60001DE0DFF8C080404502D14FF0020816E0DB
:100A7000DFF8B480404502D14FF003080FE0DFF803
:100A8000AC80404502D14FF0040808E0DFF8A080B8
:100A9000404502D14FF0050801E04FF0060808FA82
:100AA00006F848EA0508CCF808804D68D9F80060D7
:100AB000ED024D4601D5164300E096432E604D6889
:100AC000DAF80060AD02554601D5164300E09643C2
:100AD0002E604D68DBF80060AD035D4601D516431E
:100AE00000E096432E604D68DEF80060ED03754629
:100AF00001D5164300E096432E60641C0A68164632
:100B0000E2407FF429AFBDE8F88F000008040140FF
:100B100000001110001002400000014000080140D8
:100B2000000C014000100140001401400018014079
:100B3000001C01408068084000D001207047C26856
:100B400021EA02030A4043EA0241016170470AB107
:100B5000016170470904FBE70148806870470000A5
:100B600000000020024881680278114481607047CB
:100B700000000020074810B5016841F01001016035
:100B8000032000F08FF8002000F006F800F03EF897
:100B9000002010BD0020024000B5014687B00022B1
:100BA000362000F05FF8362000F04EF81348C16997
:100BB00041F01001C161C06905A900F01000069064
:100BC000684600F017F900F035F90D494000B0FB18
:100BD000F1F10D480B4A491E0260416040F2E732D4
:100BE0000021C0E90321816000F0B5FD10B10120B2
:100BF00007B000BD044800F0DDFDF9E70010024039
:100C000040420F0000100040E00400200C4808B5EE
:100C1000816941F001018161816901F00101009167
:100C2000C16941F08051C161C06900F080500090FD
:100C30000448416821F0E06141F00071416008BD65
:100C40000010024000000140002809DB00F01F02F4
:100C5000012191404009800000F1E020C0F800111E
:100C600070470000F0B40E4B1B680C46C3F3022320
:100C7000C3F10705042D00D90425191D072901D248
:100C8000002300E0DB1E012606FA05F1491E214083
:100C900099409E40761E16403143F0BC01F09DBF46
:100CA0000CED00E0064900F0070208684FF6FF036C
:100CB000184040EA0220034A1043086070470000D1
:100CC0000CED00E00000FA052DE9F0470F460500A5
:100CD00061D0434E306800F00700B84209D2306856
:100CE00020F0070038433060306800F00700B84259
:100CF00051D128683B4C810712D5400703D5606865
:100D000040F4E06060602878000703D5606840F434
:100D1000605060606068A96820F0F000084360607F
:100D20002878C00728D06868012810D021680228D8
:100D300010D0890700292EDA616821F003010143F0
:100D40006160FFF709FF804641F288390DE02168B4
:100D50008903EFE78901EDE7FFF7FEFEA0EB08014D
:100D6000494502D90320BDE8F0876068696800F052
:100D70000C00B0EB810FEFD1306800F00700B842F3
:100D80000BD9306820F0070038433060306800F03D
:100D90000700B84201D00120E5E72878400705D5D3
:100DA0006068E96820F4E060084360602878000724
:100DB00006D56068296920F4605040EAC10060608F
:100DC00000F058F86168084AC1F30311515CC8404B
:100DD0000649086006480068FFF7DEFE0020C2E70B
:100DE0000020024000100240106E00080C0000209D
:100DF000040000200F2202600C4A536803F0030332
:100E00004360536803F0F0038360536803F4E063C6
:100E1000C36052684FF4E06303EAD20202610448FF
:100E2000006800F0070008607047000000100240F2
:100E3000002002400448054900684968044AC1F39B
:100E40000221515CC84070470C0000200010024095
:100E5000206E00080448054900684968044AC1F347
:100E6000C221515CC84070470C00002000100240B5
:100E7000206E00080E4A51680E4801F00C03042B46
:100E800011D0082B0FD10C48C1F38343C903C05CB8
:100E90000AD55168084AC1F34041921E515C054A87
:100EA0005043B0FBF1F070470449484370470000DD
:100EB0000010024000127A00006E000800093D0098
:100EC0002DE9F84F040070D02078C04DC00749D0FC
:100ED0006868C0F38100012807D06868C0F381000A
:100EE000022809D16868C00306D52868800339D56F
:100EF00060680028E7D035E06068B0F5803F0BD02F
:100F000010B1B0F5A02F11D0286820F480302860EF
:100F1000286820F4802002E0286840F480302860AF
:100F2000606890B1FFF718FE06460AE0286840F4B2
:100F300080202860F0E700BFFFF70EFE801B6428CA
:100F400073D828688003F7D50CE0FFF705FE064646
:100F500005E000BFFFF700FE801B6428F0D828687A
:100F60008003F7D420789A4E80074FF001094FF0A4
:100F7000000839D5686810F00C0F07D06868C0F316
:100F80008100022809D16868C00306D42868800758
:100F900014D52069012808D110E02069B0B1C6F845
:100FA0000090FFF7D9FD074605E00AE1FFF7D4FD01
:100FB000C01B0228C4D828688007F7D52868616953
:100FC00020F0F80040EAC10028600DE0C6F800807B
:100FD000FFF7C2FD074604E0FFF7BEFDC01B022875
:100FE00023D828688007F7D4207800072CD57948C3
:100FF000A169D9B1C0F80090FFF7AEFD074604E043
:10100000FFF7AAFDC01B02280FD8686A8007F7D532
:1010100071484FF4FA510068B0FBF1F0009000BF46
:101020000098411E0091FAD20EE080E0C0F80080E6
:10103000FFF792FD074604E0FFF78EFDC01B022874
:1010400075D8686A8007F7D42078400760D5E869CA
:101050000027C00008D4E86940F08050E861E869E2
:10106000012700F0805000905C480168C90513D446
:101070000168834641F480710160FFF76DFD82468F
:1010800006E000BFFFF768FDA0EB0A0064284ED819
:10109000DBF80000C005F5D5E06801280AD008B1EA
:1010A000052813D0286A20F001002862286A20F061
:1010B000040002E0286A40F001002862E06841F282
:1010C000883B98B1FFF748FD82460BE0286A40F064
:1010D00004002862EEE700BFFFF73EFDA0EB0A0127
:1010E00059455AD8286A8007F6D50CE0FFF734FD39
:1010F000824605E0FFF730FDA0EB0A0159454CD8C8
:10110000286A8007F6D41FB1E86920F08050E861B2
:10111000E06988B36968C1F38101022944D00228DB
:10112000C6F8608004D0FFF717FD044638E034E0CD
:10113000FFF712FD074604E0FFF70EFDC01B022873
:101140002BD828688001F7D4206AB0F5803F05D1FC
:101150006868A16820F4003008436860D4E9080199
:101160000843696821F4741108436860C6F8609008
:10117000FFF7F2FC044606E025E000BFFFF7ECFCB9
:10118000001B022809D828688001F7D51BE000BFA2
:10119000FFF7E2FC001B022802D90320BDE8F88F0C
:1011A00028688001F4D40EE00128F7D06868226A2C
:1011B00000F48031914204D1616A00F470108842D9
:1011C00001D00120EAE70020E8E70000001002401B
:1011D00000004242800442420C00002000700040A7
:1011E000704790F85100704738B50446006842686F
:1011F0008168C9434B0606D5CB0704D1D3435B06B0
:1012000001D4216C05E08B0708D4D3431B0605D419
:10121000616C01B02046BDE8304008478B0601D51F
:101220004B0646D4D3439B0643D44B060AD494F8CA
:101230005130032B3ED0636D43F004036365C368F4
:1012400083680093890609D4616D41F001016165ED
:1012500081680091016821F040010160606D002803
:1012600027D02068416821F0E0014160012084F826
:101270005100900722D02068416821F003014160AD
:10128000104DE06C40B14563E06CFFF7B1FA18B166
:10129000606D40F040006065A06C002809D0456397
:1012A000A06CFFF7A5FA002803D0606D40F0400065
:1012B000606538BDC1688068009038BD2046FFF782
:1012C0008FFF38BDB120000870B5040009D0606AF6
:1012D000002540B125616561A56294F8510040B1D7
:1012E0000CE0012070BD6068B0F5827FF4D0E5614C
:1012F000F2E784F85050204600F040F8022084F8CD
:1013000051002068016821F040010160A088218916
:1013100000F4827001F404410843A18901F40061E2
:101320000843217C01F002010843217D01F0010105
:101330000843218B01F400710843217F01F038013B
:10134000084394F8201001F080010843218D01F436
:101350000051084321680860A069042101EA104097
:10136000216848602068C16921F40061C161656538
:10137000012084F85100002070BD000030B585B018
:101380000024009401940294039400681849884250
:101390002BD11848816941F480518161816901F440
:1013A00080510491816941F0040181618069124D8D
:1013B00000F004000490A02000900220019003207F
:1013C000039069462846FFF7B9FA4020CDE90004AA
:1013D000694628460294FFF7B1FA00220121232032
:1013E000FFF740FC2320FFF72FFC05B030BD0000C5
:1013F0000030014000100240000801402DE9F84F84
:10140000984616468A460446FFF7A6FB814694F89E
:10141000510001281ED1BAF1000F73D0002E71D0F7
:1014200094F85000012815D0012784F8507003204B
:1014300084F8510000256565C4F830A0A686E686CC
:10144000A563A587E58765642564A068B0F5004FAE
:1014500003D00CE00220BDE8F88F2068016821F07D
:10146000400101602068016841F48041016020680A
:101470000168490603D4016841F040010160E06859
:10148000B0F5006F606803D048B3012E27D047E065
:1014900008B1012E1FD1206B21680088C86006E0CA
:1014A00020688168890709D5216B0988C160206B94
:1014B000801C2063E08E401EE0860CE0FFF74CFBB2
:1014C000A0EB0901414503D3B8F1FF3F03D035E05C
:1014D000B8F1000F32D0E08E0028E1D123E0206B7C
:1014E00021680078087306E02068816889070AD5BA
:1014F000216B09780173206B401C2063E08E401E35
:10150000E0860DE02BE0FFF727FBA0EB090141454A
:1015100003D3B8F1FF3F03D010E0B8F1000F0DD0B6
:10152000E08E0028E0D14A464146204600F0C8FD42
:1015300008B120206065A06830B109E084F85170DE
:1015400084F85050032086E72068C16880680090C6
:1015500084F8517004F8505F60680028F3D00120CF
:1015600079E72DE9FF4F81B01D46934604464FF0C1
:1015700001090E9EFFF7F0FA074694F851006168E2
:10158000012806D0B1F5827F3CD1A168C9BB0428EF
:1015900038D10298002871D0BBF1000FFBD0002D8C
:1015A000F9D094F8500001282CD04FF0010A84F8AB
:1015B00050A094F85100042802D0052084F851006E
:1015C0004FF00008C4F85480C4F838B0E587A58708
:1015D00002992163E586A586C4F84080C4F844805A
:1015E00020680168490603D4016841F040010160A8
:1015F000E068B0F5006F606808D0F0B3012D49D005
:1016000081E0FFE7022005B0BDE8F08F08B1012DB1
:1016100039D1206B21680088C860206B801C206352
:10162000E08E401EE0862EE02068816889070FD595
:10163000E18E69B1B9F1010F0AD1216B0988C1604E
:10164000206B801C2063E08E401EE0864FF0000976
:1016500020688168C9070CD0E18F51B1C068A16BC7
:101660000880A06B801CA063E08F401EE0874FF0D5
:101670000109FFF771FAC01B01E00BE067E0B0421F
:1016800001D3701C50D1E08E0028CDD1E08F00280E
:10169000CAD13EE0206B216800780873206B401CA3
:1016A0002063E08E401EE0862DE020688168890777
:1016B0000FD5E18E69B1B9F1010F0AD1216B09781B
:1016C0000173206B401C2063E08E401EE0864FF0CB
:1016D000000920688168C9070CD0E18F51B1C0684A
:1016E000A16B0870A06B401CA063E08F401EE087D8
:1016F0004FF00109FFF730FAC01BB04202D3701C53
:1017000001D011E086B1E08E0028CED1E08F002814
:10171000CBD13A463146204600F0D2FC50B12020D1
:10172000606584F8508012E084F851A084F85080FD
:10173000032068E7A06818B92068C1688068009035
:1017400084F851A084F85080606D0028F1D0012009
:1017500059E77047704710B5040003D094F83D0076
:1017600010B107E0012010BD002084F83C002046A5
:1017700000F01EF8022084F83D00211D206801F0D1
:1017800051F8012084F8460084F83E0084F83F00B8
:1017900084F8400084F8410084F8420084F8430053
:1017A00084F8440084F8450084F83D00002010BD12
:1017B0007047000090F83D10012901D001207047CA
:1017C000022180F83D100168CA6842F00102CA6037
:1017D00000680E4988420ED00D4988420BD0B0F106
:1017E000804F08D00B49884205D00B49884202D06F
:1017F0000A49884204D1816801F00701062903D013
:10180000016841F00101016000207047002C014097
:10181000003401400004004000080040000C00407B
:1018200070472DE9F04104460068C66805694FF02D
:101830000007A90713D5B10711D5F91E01610120D1
:101840002077206880698007204602D0FFF7E8FFF4
:1018500004E000F07EF8204600F07CF82777680767
:1018600016D5700714D521686FF0040008610220B6
:1018700020772068806910F4407F204602D0FFF76F
:10188000CFFF04E000F065F8204600F063F827770A
:10189000280715D5300713D521686FF008000861B7
:1018A000042020772068C0698007204602D0FFF717
:1018B000B7FF04E000F04DF8204600F04BF8277722
:1018C000E80616D5F00614D521686FF010000861FF
:1018D000082020772068C06910F4407F204602D09D
:1018E000FFF79EFF04E000F034F8204600F032F8E5
:1018F0002777E80708D0F00706D021686FF00100CD
:101900000861204600F028F8280608D5300606D5DC
:1019100021686FF0800008612046FFF71AFF680613
:1019200008D5700606D521686FF040000861204692
:1019300000F01CF8A8060AD5B00608D521686FF09B
:10194000200008612046BDE8F041FFF703BFBDE875
:10195000F08170477047000000680349884201D158
:10196000FFF700B970470000001000407047704753
:1019700070470000F8B5016804460868CA684B69FA
:1019800010F00F0F4FF0000559D003F0010602F4DC
:101990009077374365D0C10705D0D10503D5616C79
:1019A00041F001016164410705D5D90703D0616C9D
:1019B00041F002016164810705D5D90703D0616C4C
:1019C00041F004016164010707D502F020013143B1
:1019D00003D0616C41F008016164616C00293AD068
:1019E000800604D5900602D5204600F098FF2068B6
:1019F0004069616CC0F38010090700D460B32046D1
:101A000000F066FF20684069400621D52068143048
:101A100050E8001F21F0400140E80012002AF5D1F3
:101A2000E06BA8B16D494163E06BFEF7E1FE002871
:101A300011D0E06B416B01B0BDE8F0400847830670
:101A40000FD593060DD52046BDE8F84000F067BFDE
:101A50002046FFF78DFFF8BD2046FFF789FF65643C
:101A6000F8BD266B2023012E7CD1C6067AD5D6067A
:101A700078D508684868009048694FF0020640062B
:101A800040D5E16B086840680004000CE8D0A28DE6
:101A90008242E5D9E085886920282DD020680C3065
:101AA00050E8001F21F4807140E80012002AF5D1AF
:101AB0002068143050E8001F21F0010140E80012B6
:101AC000002AF5D12068143050E8001F21F04001B1
:101AD00040E80012002AF5D184F8423025632068DE
:101AE0000C3050E8001F21F0100140E80012002ADD
:101AF000F5D1E06BFEF759FE6663A08DE18D401ACB
:101B000081B22AE0A08DE18D401A81B2E08D0028DB
:101B1000A6D00029A4D022680C3252E8000F20F48D
:101B2000907042E80007002FF5D12068143050E88B
:101B3000002F22F0010240E80027002FF5D184F8A1
:101B40004230256320680C3050E8002F22F010024C
:101B500040E80023002BF5D166632046FFF707FF1E
:101B6000F8BDFFE705062BD5150629D594F84100E9
:101B70002128F5D1A068B0F5805F01D12069B0B10E
:101B8000206A411C2162216800784860E08C401E78
:101B90000004000CE084E3D12068C16821F08001DA
:101BA000C1602068C16841F04001C160D8E7206A87
:101BB0000088C0F308004860206A801C2062E5E7C6
:101BC0004006CDD55006CBD5CA68204622F040024B
:101BD000CA6084F8413000F0C6F8C1E7C1280008A7
:101BE00070B5040004D094F84100002510B106E05F
:101BF000012070BD84F84050204600F023F82420D6
:101C000084F841002068C16821F40051C160204679
:101C100000F0E6FE2068016921F49041016120682E
:101C2000416921F02A0141612068C16841F40051F5
:101C3000C1606564202084F8410084F84200656337
:101C4000002070BD30B585B000240094019402944A
:101C500003940068184988422CD11848816941F4DE
:101C600080418161816901F480410491816941F081
:101C7000040181618069124D00F0040004904FF46A
:101C800000700090022001900320039069462846CE
:101C9000FEF754FE2815CDE9000469462846029453
:101CA000FEF74CFE002203212520FEF7DBFF252056
:101CB000FEF7CAFF05B030BD0038014000100240F9
:101CC0000008014070472DE9F843044690F84100B0
:101CD000984616460D46202802D00220BDE8F8831B
:101CE00085B17EB100206064212084F84100FEF7B8
:101CF00033FFA6848146E684A0682027B0F5805F84
:101D000002D003E00120E9E7206910B12E4600254A
:101D10000EE000260CE08021204600F0BDFEA8B9B0
:101D2000C6B116F8010B21684860E08C401EE084C3
:101D3000E08C4B464FF00002CDF800800028EAD13D
:101D40004FF04001204600F0A7FE40B184F84170FA
:101D50000320C3E735F8020BC0F30800E3E784F87B
:101D600041700020BAE7704710B586B022A003F09A
:101D700047FE284826490422C0E902211022C0E972
:101D800004214160082101602349816100F12001A3
:101D90000722086000200A21CDE90220CDE90401D4
:101DA00003210120CDE900011A481C4A00232030FC
:101DB00000F069FC17484221203000F027FB044660
:101DC000014617A003F01CFE122C06D020A003F041
:101DD00017FE4FF0FF3006B010BD002127A003F022
:101DE00014FF29494FF4FA6208600A484021203064
:101DF00000F0DDF90020EEE75374617274696E67DC
:101E0000204C6F526120496E69742E2E2E0A0000FC
:101E1000000801402805002040040020400ECF1992
:101E20004C6F526120436865636B3A205265675678
:101E3000657273696F6E203D2030782530325820EE
:101E4000284578706563742030783132290A0000A3
:101E50004C6F5261204572726F723A204861726411
:101E60007761726520636F6E6E656374696F6E2053
:101E70006661696C6564210A000000006C6F726124
:101E80005F6D747800000000100000202DE9F04123
:101E9000144C07460E46206818B14FF0FF3103F08E
:101EA0001BFF394610A003F0ABFD4FF4FA652B463B
:101EB00032463946114800F02AFC01280ED010A005
:101EC00003F09EFD2A4640210C4800F070F920687E
:101ED000002805D0BDE8F04103F0ACBE0FA0EFE74D
:101EE000BDE8F081100000204C6F52612053656EF8
:101EF00064696E673A2025730A00000048050020D7
:101F00004C6F5261205458204661696C6564206FA3
:101F1000722054696D656F75742E0A004C6F5261A2
:101F200020545820446F6E652E0A00002DE9F047BA
:101F300086B000243548009401940294039481698A
:101F400041F040018161816901F0400104918169A2
:101F500041F004018161816901F00401049181690A
:101F600041F0080181618069DFF8A48000F0080079
:101F70000490002220214046FEF7E9FDDFF894900E
:101F8000012218214846FEF7E2FDDFF88CA000226E
:101F900020215046FEF7DBFD202702260125009771
:101FA0000396CDE9015469464046FEF7C7FC04207C
:101FB00000901A48CDE9010669464846FEF7BEFC86
:101FC0000820CDE90005CDE9024669464846FEF7FE
:101FD000B5FC1020CDE900050320CDE9024069469B
:101FE0004846FEF7ABFC00970396CDE901546946DD
:101FF0005046FEF7A3FC002202210820FEF732FE25
:102000000820FEF721FE06B0BDE8F0870010024070
:102010000018014000080140000C014000001110B0
:10202000104810B50E4901604FF4827141600021E3
:102030008160C1604FF400720161C0E9051218228D
:10204000C0E90721416281620A21C162FFF73CF9C0
:10205000002803D0BDE81040FEF7A5BB10BD00006E
:1020600000300140400400200C4810B50A490160CE
:102070004FF4E1314160002181600C22C160C0E970
:1020800004128161C161FFF7ABFD002803D0BDE8F8
:102090001040FEF788BB10BD0038014098040020B6
:1020A000FEE7FEE70148FFF79FB80000400400206C
:1020B00010B5406A0021C187C186FFF791F810BDB5
:1020C000F8B515460E460B46009204460122022141
:1020D00000F010F840B933460022802120460095D8
:1020E00000F008F8002804D0606D40F02000606522
:1020F0000320F8BD2DE9F8431E4691468846044664
:10210000089DFEF729FD401B351AFEF725FD074601
:1021100025480068C0F3CB30684338E0701C37D0E6
:10212000FEF71AFDC01BA84203D215B1009860B398
:102130002CE02068416821F0E00141606068B0F562
:10214000827F0BD1A068B0F5004F02D0B0F5806F50
:1021500004D12068016821F040010160A06AB0F557
:10216000005F09D12068016821F4005101602068F6
:10217000016841F400510160012084F85100002001
:1021800084F850000320BDE8F8830025401E00902D
:102190002068816838EA010004D000214945BDD19A
:1021A0000020F0E70121F9E70C000020704770B52E
:1021B00015460E460446417500F054F984224D211F
:1021C000204600F032F9FF222421204600F02DF9AC
:1021D00001224021204600F028F93F22112120460B
:1021E00000F023F9204600F039F93246222120463A
:1021F00000F01BF90F21204600F008F902460D21DE
:10220000204600F012F98D220121204600F00DF940
:10221000002084F817011821204600F0F7F8400745
:1022200003D50320A075012070BD6D1E03D00120D1
:1022300000F0C0F9EFE7206800F0C8F9204600F090
:1022400011F9002070BD70B516460C460546417563
:1022500000F008F987224D21284600F0E6F8002218
:102260002421284600F0E1F841224021284600F0D0
:10227000DCF8284600F0F2F8F7221121284600F099
:10228000D4F822462221284600F0CFF80E21284615
:1022900000F0BCF802460D21284600F0C6F82221C5
:1022A000284600F0B3F8A04203D10220A87501200F
:1022B00070BD761EF3D1286800F088F9284600F03A
:1022C000D1F8002070BD70B50446006800F074F9C4
:1022D00008B304F117004FF480710646FEF71AF8B0
:1022E0001021204600F092F802460D21204600F011
:1022F0009CF8607C90B11321204600F087F80546D9
:102300002B4632460021204600F03CF884F8175155
:10231000204600F0A3F894F8170170BD657DEFE743
:1023200070B51D4613460A460446002100F04BF8DE
:102330008B220121204600F078F8206800F03CF95B
:1023400058B11221204600F061F8204600F086F8CE
:10235000204600F0D3F9012070BD6D1E03D001208E
:1023600000F028F9E9E7206800F030F9204600F095
:1023700079F8002070BD10B51B2100F047F80A382D
:10238000C0B210BD2DE9F0411E4617460C46054669
:10239000012B16D90021286800F05EF92146286833
:1023A00000F02CF9002404E000F03AF93855641CE0
:1023B000E4B22868B442F7D3BDE8F041012100F04F
:1023C0004BB9BDE8F0812DE9F0411E4617460C4699
:1023D0000546012B18D90021286800F03DF944F08A
:1023E0008001286800F00AF9002405E0395D2868BA
:1023F00000F004F9641CE4B2B442F7D32868BDE8E5
:10240000F041012100F028B9BDE8F08170B5044623
:10241000006800F0F3F8206800F002F90546012199
:10242000206800F019F9284670BD70B50D460446C5
:1024300016460068002100F00FF945F08001206881
:1024400000F0DCF83146206800F0D8F82068BDE8DC
:102450007040012100F000B9FFF735BFFF221221C3
:10246000FFF7E3BFF8B5044600F03FF90F2000F096
:10247000A1F8204600F09AF8A189A068C90441EAB1
:102480005031C004474A0023FDF7EAFE020C42EA3D
:1024900001428DF800200A0642EA10218DF8011051
:1024A0008DF8020003236A4606212046FFF78BFFC2
:1024B000122239212046FFF7B8FF207C3A490A5CF6
:1024C00009212046FFF7B1FF0B2211462046FFF7F6
:1024D000ACFF23220C212046FFF7A7FF324D607C82
:1024E0000835E91D2A5C281F861F062AA27C895C04
:1024F000E27C4FEA0111805C01EB400030D0C2B2B7
:102500001D212046FFF791FF607C217D285C715CD6
:10251000000100EB8100C2B21E212046FFF785FFBB
:10252000042226212046FFF780FF08221F21204693
:10253000FFF77BFF002220212046FFF776FF0822CD
:1025400021212046FFF771FF012241212046FFF79C
:102550006CFF002084F81701204600F0CFF8F8BD8A
:10256000401CC2B21D212046FFF75FFF607C217D29
:10257000285C715C000100EB8100C01CC2B21E210E
:102580002046FFF752FF31212046FFF73FFF00F0C2
:10259000F80040F0050231212046FFF746FF0C22EB
:1025A0003721BAE70048E8012A6E00088822012195
:1025B000FFF73BBF03F0A2BF10B50189C06889B225
:1025C000FEF7B8FA012800D0002010BD10B504466F
:1025D000012100F041F82088002281B26068FEF7F6
:1025E000B6FA0120FFF7E6FF2088012281B2606879
:1025F000FEF7ADFA6420FFF7DDFF10BD13B504460A
:10260000002100F029F84FF47A73012201A9A06992
:10261000FEF7F4FEA069FEF7E4FD0128FAD11CBD27
:102620003EB5044600208DF808008DF804000146F0
:10263000204600F011F84FF47A700090012301AAAF
:1026400002A9A069FEF78DFFA069FEF7CAFD012867
:10265000FAD19DF804003EBD012905D00022018A6F
:10266000406989B2FEF773BA0122F8E710B5044653
:102670000121FFF7F1FF2088012281B26068BDE8E7
:102680001040FEF764BA2DE9F05F04460AA815462B
:1026900090E8800F1E462068FFF7E8FFC4E9025665
:1026A000277484F8118084F8129084F813A084F8B9
:1026B00014B00F9860752046BDE8F05FFFF7D2BEFA
:1026C00070B5054690F8170114460E46A04200D09A
:1026D0000446224605F117013046FDF702FE0020B0
:1026E000305585F81701204670BD10B50446082204
:1026F0000121FFF79AFE0020A07510BD10B5044619
:1027000009220121FFF791FE0120A07510BD2DE9DE
:10271000F04115460E461C4607461A462946FFF765
:1027200092FD002807D023462A4631463846BDE8A8
:10273000F041FFF7F5BDBDE8F08110B503F012F9E7
:1027400003F0C0FFBDE8104003F01AB930B58FB0F8
:1027500028216846FDF7DEFD14210AA8FDF7DAFD01
:1027600001210804CDE900100024029402250491FF
:10277000CDE907504FF4E01009906846FEF7A0FB42
:1027800008B172B6FEE70F20CDE90A054FF480606C
:10279000CDE90C4002210AA80E94FEF795FA002814
:1027A00001D072B6FEE70FB030BD0000144910B57D
:1027B0004868144A10F00C03134803D0042B01D0CE
:1027C000082B09D002604968104AC1F30311515C1B
:1027D0000268CA40026010BD4A684B6802F4701279
:1027E0004FF0020413F4803F04EB924202D04B6896
:1027F0009B0301D5064B00E0024B5A43E2E7000081
:102800000010024000127A000C000020106E000838
:1028100000093D00704700000148FFF702B80000C2
:10282000E0040020F0B50268204C214D214E224FDB
:10283000224B4FF0804CA04209D0984207D060450F
:1028400005D0A84203D0B04201D0B84204D122F052
:10285000700E4A6842EA0E02A04209D0984207D0A0
:10286000604505D0A84203D0B04201D0B84203D1A0
:1028700022F44075CA682A434D6922F080022A4337
:1028800002608A68C2620A688262A04201D09842ED
:1028900001D109690163012141610169C90703D0BF
:1028A000016921F001010161F0BD0000002C01402F
:1028B0000004004000080040000C004000340140CB
:1028C00010B5406A0021C185C184FFF751F810BDE1
:1028D00001680C3151E8002F22F4907241E8002386
:1028E000002BF5D10168143151E8002F22F00102CC
:1028F00041E80023002BF5D1016B012909D10168C2
:102900000C3151E8002F22F0100241E80023002B87
:10291000F5D1202180F8421000210163704708B5ED
:1029200090F84210222901D0022008BD82684FF49D
:1029300080539A4201D1016921B1816A9A421BD028
:102940004AB10AE00268816A5268C2F308020A804A
:10295000816A891C08E0026972B10268526802F05B
:102960007F020A70816A491C8162C18D491E090477
:10297000090CC18503D01BE002685268F1E70168C9
:10298000CA6822F02002CA600168CA6822F4807214
:10299000CA6001684A6922F001024A61202180F878
:1029A000421000214163026B012A03D0FFF78AF92C
:1029B000002008BD016301680C3151E8002F22F0AE
:1029C000100241E80023002BF5D101680A68D20605
:1029D00002D50A6849680091818DFEF7C8FFE7E7D4
:1029E00070B5044600680169E26821F44051114362
:1029F00001612169A0680843616908432168CA68C8
:102A000041F20C639A430243CA6020684169A2699B
:102A100021F44071114341611E492068884202D16E
:102A2000FEF718FA01E0FEF705FA00EBC00101EB32
:102A30000012606864218000B2FBF0F3B3FBF1F395
:102A40006FF018067343B2FBF0F5B2FBF0F605EB3E
:102A50008305322303EB0515B5FBF1F5B6FBF1F663
:102A600005F0F00505EB0615B2FBF0F6B2FBF0F051
:102A7000B0FBF1F06FF01802504306EB800003EB5F
:102A80000010B0FBF1F0216800F00F0028448860CE
:102A900070BD0000003801402DE9F8439846174604
:102AA0000D460446089E24E0701C22D0FEF754F820
:102AB000A0EB0800B0421AD8CEB12068C16849071F
:102AC00017D5802D15D0402D13D00168C9430907B3
:102AD0000FD401680025406800902046FFF7F8FEFB
:102AE0000820606484F840500120BDE8F88303208A
:102AF000FBE72068006835EA000004D00020B842F7
:102B0000D2D00020F1E70120F9E700000148FEF7EC
:102B100031BF000098040020FEE700001CB50A2128
:102B20001920CDE900014FF480630022064907A077
:102B300003F0DEFB18B103F02DFD06A000E00DA0B0
:102B4000BDE81C4002F05CBF414300086C6F72613D
:102B50005F7278005B4D61696E5D204C6F52612041
:102B600052582054687265616420537461727465B0
:102B7000642E0A005B4D61696E5D204572726F7252
:102B80003A204C6F5261205258205468726561643B
:102B900020437265617465204661696C6564210A31
:102BA00000000000014A024900F0C6B8C335000821
:102BB000300400204100080218BF04200A0E18BF8C
:102BC00040F001004FF07F4232EA010108BF40F0BF
:102BD0000200012808BF052070470907090E0028D8
:102BE00004DB00F1E02080F80014704700F00F00D3
:102BF00000F1E02080F8141D704700214FF07E5056
:102C0000FDF762BC0121FDF79DBCFDF7D3BB0021A0
:102C10000846FDF759BC61214FF0E040FDF792BC3A
:102C20006FF05E010807FDF78DBC0000002806D09C
:102C30000E4910F0FF0F03D0C0B2085C401C704773
:102C400010F47F4F04D0C0F30720085C09307047B0
:102C500010F47F0F04D0C0F30740085C11307047B8
:102C600001EB10600078193070470000436E0008D7
:102C700002E008C8121F08C1002AFAD17047704745
:102C8000002001E001C1121F002AFBD170470000A3
:102C900001490860704700003C0400202DE9F04F16
:102CA00089B092468B460646002400E0641C305DE5
:102CB000202803D0092801D05C45F7D34FF0FF3816
:102CC0007CB3194804F10609184F056811E0062283
:102CD00017A12868FDF75FFB50B9286822463146E6
:102CE000801DFDF758FB18B9296811F8090020B1BB
:102CF0000C3538688542EAD314E0AC688CB12021E9
:102D00006846FDF707FB6A465946304601F034FE37
:102D100038B16946A047CAF80000002009B0BDE8F4
:102D2000F08FFFE74046F9E7780300207C0300209E
:102D30005F5F636D645F00002DE9F04116460F464A
:102D40000446002503E03946B047641C6D1C20781A
:102D50000028F8D12846BDE8F08100002DE9FC41AB
:102D60001F460446DDE90831DDE90A65143040609C
:102D70000060C4E90827C4E90A310A46232118463D
:102D80001C3402F01FFFD4E903014218D4E9010109
:102D9000104B121F02F0CAFD44F81A0B002004F871
:102DA00001690D4A04F8036BE4E8020544F8105980
:102DB00001C404F83C0B01C444F874090090234694
:102DC0000190194604F1440003F010FD0020BDE815
:102DD000FC810000E56300080366000810B5029C52
:102DE00024F001044472C0E907120021C0E909314E
:102DF00014304060006010BD143002F048BE70B561
:102E00000546FDF7B3F9296F044609B128468847FE
:102E10002046BDE87040FDF7ADB910B5012A05D0D8
:102E2000022A07D0BDE8104000F0AABBBDE8104060
:102E3000FDF718BBFDF7BEFA4FF07E51FDF70CFB16
:102E40000146BDE81040002000F086BB10B51BA075
:102E500002F0D6FD1C4C21781CA002F0D1FD207898
:102E6000C00702D01FA002F0CBFD2078800702D55A
:102E70001FA002F0C5FD2078400702D51FA002F078
:102E8000BFFD2078000702D520A002F0B9FD207810
:102E9000C00602D520A002F0B3FD2078000607D5B9
:102EA00009480F300168BDE810401DA002F0A8BD20
:102EB000BDE810401EA002F0A3BD000062757320A3
:102EC0006661756C743A0A0029ED00E05343425F75
:102ED000434653525F424653523A30782530325877
:102EE0002000000049425553455252200000000086
:102EF000505245434953455252200000494D5052CB
:102F0000454349534552522000000000554E53544A
:102F10004B4552522000000053544B455252200062
:102F20005343422D3E424641523A253038580A001A
:102F30000A00000010B500F047FF002010BD10B5DA
:102F400001F082F8002010BD10B50446C06800F002
:102F500041FBE06900F03EFB2046BDE8104000F078
:102F600039BB10B50446806D08B1FFF7EDFF204670
:102F7000BDE8104000F02EBB70B50D46064600249B
:102F800005E000BF56F82400FFF7EBFF641CAC42DD
:102F9000F8D33046BDE8704000F01CBB2DE9F0418D
:102FA000074606981C4615460E4628B105A0FFF7B1
:102FB000F9FD23462A4631463846BDE8F04101F086
:102FC0009FBB0000576172696E673A204E6F207395
:102FD000756368206F6620646566757A7A696669CC
:102FE0006572210A00000000012A01D0401A7047D2
:102FF000084470472DE9F04107464FF07E55904652
:103000000E462846FDF728FA044629463846FDF7BD
:1030100026FA2146FDF726FA2946FDF720FA414611
:1030200001F036FE044641462846FDF715FA0546EE
:1030300031463846FDF716FA294601F029FE2146A9
:10304000BDE8F041FDF70EBA2DE9F04104464FF01E
:1030500019404E49002500EB440088424AD84C49AB
:103060002046FDF7FFF9FDF7F5FA8046FDF77FFAF8
:10307000064648494046FDF7F5F9074646494046A9
:10308000FDF7F0F92146FDF7EAF93946FDF7E4F9D5
:1030900004464249FDF7E6F94149FDF78BF921461F
:1030A000FDF7E0F96FF04141FDF784F92146FDF7A6
:1030B000D9F93C49FDF77EF92146FDF7D3F90146E0
:1030C000394806F00304784450F82400FDF7CAF9A3
:1030D0003649794451F82410FDF76CF934497944A4
:1030E00051F82410FDF766F9B11085BBBDE8F04139
:1030F000FDF728BA4FF0FF4131EA040018D04FF035
:10310000CE41B1EB440F84BF4FF07E50BDE8F0815B
:103110002849B1EB440F28BF0125A0D20220FFF7B8
:10312000B7FD14F0004F0ED0BDE8F041FFF778BDB9
:10313000204614F5000F04BF0020BDE8F081BDE873
:10314000F041FFF75FBDBDE8F041FFF764BDFDF75B
:10315000F9F904000BD0B4F1FF4F0FD0FFF72AFDAF
:10316000042808BFFFF75CFD2046BDE8F08102207F
:10317000FFF78EFDBDE8F041FFF752BD0220FFF7DB
:1031800087FDBDE8F041FFF746BD00000000501E7E
:103190003BAAB840F4FD05370070313E12BB2A3D12
:1031A00012BB2A3EFFFF7F3FBE3E0000A23E000052
:1031B000863E00000000A085104810B5416991F8D6
:1031C0002110890703D40E490020087014E001691A
:1031D00029B14FF480720A48FDF7B3F80CE001F012
:1031E000C9FB08B107A100E008A10548FDF7CAF82E
:1031F00008A10348FDF799F8014810BD78030020A5
:10320000600600206D7368200000000066696E7320
:10321000682000003E0000000349496911F8212F91
:1032200060F341020A70704778030020014AC2E946
:1032300000017047780300207CB516491648FFF757
:10324000F5FF7821012002F04BF9144C6061D0B1F8
:103250000A211520CDE900014FF4806300221049B6
:1032600010A003F045F8054600231A460FA1606937
:1032700002F096FE0120FFF7CFFF15B1284603F0BC
:1032800089F900207CBD0BA002F0BAFB4FF0FF30A3
:103290007CBD000068750008607400087803002099
:1032A000CD320008747368656C6C000073687278C6
:1032B000000000006E6F206D656D6F727920666F83
:1032C00072207368656C6C0A00000000984D686994
:1032D00010F8211F41F001010170FFF76DFF02F0AE
:1032E0008FFB002602F0EAF90400FBD41B2C07D068
:1032F000686990F82010012907D002290ED017E044
:103300006969012081F82000ECE75B2C02D080F88D
:1033100020600DE0022180F82010E3E780F82060B3
:10332000412CDFD0422CDDD0442C38D0432C43D06C
:10333000002CD7D0FF2CD5D0092C4ED07F2C75D0A7
:10334000082C73D00D2C70D00A2CFCD0B0F8721061
:10335000502901D3A0F87260B0F87430B0F8721040
:103360008B427DD2CA1A00F122012330194418443D
:1033700002F00EFC6869B0F8741022300C546869D1
:1033800090F82110C90706D0B0F87410223001441B
:1033900068A002F035FB6869B0F87440A5E0B0F8A9
:1033A000740000289ED064A002F02AFB686930F8FF
:1033B000741F491E018095E7B0F87410B0F87220B0
:1033C00091428FD22230095C5CA002F019FB69693E
:1033D00031F8740F401C088084E7002403E056A0F5
:1033E00002F00EFB641C6869B0F87400A042F6DCC1
:1033F0006C6953A0223402F003FB01F0BBFA0128F0
:1034000002D1204601F0F2F9FFF7D6FE014622462E
:103410004CA002F0F5FA68692230FCF79EFF69695A
:1034200021F8720F48805DE700E03DE0B0F87420BD
:10343000002AC0D0B0F87210521E491E89B293B251
:10344000A0F87210A0F87430994224D9CA1A00F179
:10345000230122301944184402F09AFB686900E005
:1034600049E0B0F8721022300E546869B0F8741058
:103470002230014435A002F0C3FA6869B0F8744004
:1034800003E02DA002F0BCFA641C6869B0F8720079
:10349000A04290DBF5E72FA002F0B2FA6869B0F81D
:1034A000721022300E541DE701F064FA01280DD18C
:1034B000686990F82100C00702D021A002F0A0FAAC
:1034C0006869B0F87210223001F0E6F9FFF774FE77
:1034D00002F096FA686950212230FCF71BFF6869F8
:1034E00022E015A002F08CFA641C6869B0F8720042
:1034F000A042F6DC0AE022300C54686990F8210002
:10350000C00703D021460DA002F07AFA6869B0F82E
:103510007210491C89B2A0F87210B0F87420521CC5
:10352000A0F874205029BED320F8726F4680D9E6E7
:1035300078030020257300000800000025630000C8
:103540000A00000025732573000000000825732081
:10355000200800000820080070B50C460546FDF75D
:10356000BDF800F07040B0F1005F07D024F00040DB
:10357000C0F1FF40C00F04BF204670BD284670BD9B
:1035800070B50C460546FDF7A9F800F07040B0F1A3
:10359000004F07D024F00040C0F1FF40C00F04BF2F
:1035A000204670BD284670BD032A01D2FFF735BC06
:1035B000062A02D2D21E01F053BA4FF07C52FFF716
:1035C00019BD38B504468DF8000069460320ABBE2E
:1035D000204638BD10B5002821D0114B0022001F15
:1035E000196803E0814203D80A4649680029F9D1E5
:1035F00052B11368841A9C4204D1006818441060C8
:10360000104602E0506000E0186039B102680B1A01
:10361000934203D10B681A4402604968416010BDAF
:10362000340400202DE9F74FA4B04FF00008394FC3
:1036300015468346CDF84480444646460DF14C0974
:103640000DF1040ACDF84880286900EB0612E868FD
:103650000168584600F0D8FFB84204DD4AF824005B
:1036600049F82460641C761C072EEDDBCB4600264F
:10367000D1461194286900EB0612E8684168259844
:1036800000F0C2FFB84204DD49F824004BF8246082
:10369000641C761C072EEDDB1198211A129138B1AB
:1036A00031B14843800000F00DFF0746002621E0BD
:1036B0000020414603E0EA6942F82010401C6A6895
:1036C0008242F8D827B0BDE8F08F00240EE01198B0
:1036D000AA68011959F8260059F82110FFF764FF6C
:1036E000129906FB0141641C47F821001298A04280
:1036F000EDD8761C1198B042E7D82B4611AA13A931
:103700003846CDF80080FFF749FC3846FFF762FFE6
:10371000D8E7000017B7D13870B506460D4620200F
:1037200000F0D0FE04467019C4E90065800000F086
:10373000C9FEE060A80000F0C5FEE061204670BD53
:10374000F0B50024DDE9056503E0C76847F82410FB
:10375000641CD0E9007C6744A742F6D800210C46DF
:1037600003E0C76947F82140491C47688F42F8D8F1
:1037700006618260C0E90535F0BD00002DE9F04723
:10378000156B14468A46D562FCF769FE0646294643
:103790002063FCF761FEA16AFCF796FE364F3946BE
:1037A000FCF760FE05463046616AFCF78DFE39463F
:1037B000FCF758FE2946A26DFFF734FFA56D394688
:1037C000E8690068FCF780FEE168FCF74BFE2168C1
:1037D0008846FCF7EFFD8146A06168680026022854
:1037E00009D3E86939464068FCF76EFE2169FCF7A9
:1037F00039FEE06100E0E6616868032809D3E86902
:1038000039468068FCF760FE6169FCF72BFE206298
:1038100000E0E661E1696068FCF7CCFD276B3946A2
:10382000FCF720FE616BFCF7C5FD60630646384679
:10383000E16AFCF711FE0546216AA068FCF7BAFDB3
:103840002946FCF70FFE054649464046FCF7B2FD07
:103850003946FCF707FE3146FCF7ACFD2946FCF77C
:10386000A9FD05465146206CFCF7FCFD2946FCF7F6
:10387000A1FD6064BDE8F087000040402DE9FF4FE6
:103880008FB0866804469A46934630461099FCF7F6
:103890001BFE6568814628461099FCF715FE2768CF
:1038A000804638461099FCF70FFE0DF12C0E1E993C
:1038B0004FF47A7C4FF4FA7300228EE80E10DDE9A3
:1038C0001C120B4B0DF1100CCDF820A003938CE8CB
:1038D000010BCDE90912D4E904018DE80B00324651
:1038E00029463846E36801F0A1FD13B0BDE8F08F2A
:1038F0000000C84270B515461C461A46FFF73EFF49
:10390000FCF735FE01462A46E06CFFF76DFBA26C22
:10391000216DBDE8704000F035B900002DE9FF4F82
:1039200083B00746DDE91286DDE910A99B46B000A9
:1039300000F0C8FD0546002410E000BFCDF800A04F
:10394000CDE90198DDE90412C4EBC40007EB800067
:103950005B46FFF793FF45F82400641CB442EDD3A7
:1039600007B02846BDE8F08F10B5124C20688007DC
:1039700002D511A002F044F82068400011D50D488E
:10398000C01E007808B1FFF761FA0A48001F0078EE
:1039900008B100F0CDFD0748801E008808B103F093
:1039A00063F92068002804DABDE8104008A002F09E
:1039B00027B810BD2CED00E06661696C6564207667
:1039C0006563746F722066657463680A00000000A6
:1039D0006465627567206576656E740A0000000094
:1039E00010B502A002F00CF8002010BD48656C6C08
:1039F0006F2052542D546872656164210A000000E2
:103A000070B50C46032804DA21A001F0F9FF27A0C5
:103A10001FE030A16068FCF7A7FC30B12EA1606800
:103A2000FCF7A2FC18B12DA013E0364E00E0364E94
:103A3000202536A1A068FCF797FC70B134A1A068DE
:103A4000FCF792FC88B133A1A068FCF78DFCA0B113
:103A500032A0BDE8704001F0D3BF002229463046B5
:103A6000FDF775F83BA061680DE00122294630465C
:103A7000FDF76DF83BA0616805E029463046FDF78B
:103A80005EF861683BA0BDE8704001F0B9BF00007E
:103A900055736167653A206C6564205B722F675DC2
:103AA000205B6F6E2F6F66665D0A00004578616D62
:103AB000706C653A206C65642072206F6E2020283F
:103AC0005475726E206F6E20526564204C454429F7
:103AD0000A00000072000000670000004572726F6B
:103AE000723A20556E6B6E6F776E20636F6C6F72DB
:103AF000212055736520277227206F7220276727A2
:103B00002E0A0000000C0140001801406F6E0000FA
:103B10006F666600746F67676C6500004572726F50
:103B2000723A20556E6B6E6F776E20616374696FA9
:103B30006E212055736520276F6E272C20276F6616
:103B40006627206F722027746F67676C65272E0ABF
:103B5000000000004C4544202573206973204F4E1F
:103B60000A0000004C4544202573206973204F460D
:103B7000460A00004C454420257320546F67676C4B
:103B800065640A00884201DD084670479042FCDA0D
:103B90001046704770B50CA001F032FF0F48104D71
:103BA00004680BE002220FA12068FCF7F4FB20B1AF
:103BB000D4E900120CA001F023FF0C3428688442E1
:103BC000F0D3002070BD00002D2D46756E63746922
:103BD0006F6E204C6973743A0A000000780300206D
:103BE0007C0300205F5F0000252D313673202D2DD2
:103BF0002025730A000000002DE9F04104461E460E
:103C000017460D46084602F011F9001D2060257286
:103C100000206760C4E90360BDE8F0812DE9F04150
:103C20000D4600212961E96891B1297A81B12E6898
:103C300088B10446FCF79AFA0146A4F10C002A7AEE
:103C4000007A20F08000904209D00846FCF792FAF2
:103C50000020BDE8F0813446FCF788FA0146686828
:103C600000272468B44201D1002404E010C0EA68AF
:103C70007F1CBA42F5D10846FCF77CFA20462F613A
:103C8000E7E700002DE9F04196B000262FA40823B5
:103C90000CAA052106A8FFF7AFFF082080460146C1
:103CA00022462CA001F0ACFE404600F0CDFE32A032
:103CB00001F0A6FE06A93046FFF7B0FF0646002534
:103CC0003BE00CA850F825400C3CFCF74FFA0146AD
:103CD000207A9DF8202020F080009042084602D0F3
:103CE000FCF748FA28E0FCF745FA606904F114078C
:103CF000B842384613D001F0AFFE228C618C00919F
:103D0000CDE9012023460822414622A001F078FE99
:103D1000384602F039FF25A001F072FE0CE001F0F8
:103D20009BFE218C628CCDE9002102902346082263
:103D300041461FA001F064FE6D1C0A98A842C0DC39
:103D4000002EB7D116B00020BDE8F0816D61696C1E
:103D5000626F7800252D2A2E7320656E747279208B
:103D600073697A652073757370656E642074687208
:103D70006561640A00000000202D2D2D2D20202DCE
:103D80002D2D2D202D2D2D2D2D2D2D2D2D2D2D2D70
:103D90002D2D0A00252D2A2E2A732025303464204B
:103DA00020253034642025643A0000000A00000019
:103DB000252D2A2E2A7320253034642020253034E6
:103DC000642025640A00000010B5074C07A0E168D4
:103DD00001F016FE0AA0216901F012FE6169BDE83A
:103DE00010400CA001F00CBEA8030020746F746199
:103DF0006C206D656D6F72793A2025640A000000B1
:103E000075736564206D656D6F7279203A20256445
:103E10000A0000006D6178696D756D20616C6C6FD2
:103E20006361746564206D656D6F72793A202564F5
:103E30000A000000F0B595B0002623A408230DAABF
:103E4000032107A8FFF7D8FE08272246394620A0FD
:103E500001F0D6FD384600F0F7FD26A001F0D0FDB8
:103E600007A93046FFF7DAFE0646002523E00DA835
:103E700050F825400C3CFCF779F9217A9DF8242074
:103E800021F08001914202D0FCF774F912E0FCF7B6
:103E900071F904F1140001F0DFFDE17F226A0823CB
:103EA000CDE90032CDE9021023460822394619A097
:103EB00001F0A6FD6D1C0B98A842D8DC002ECFD1D6
:103EC00015B00020F0BD00006D757465780000002D
:103ED000252D2A2E732020206F776E657220206892
:103EE0006F6C642073757370656E6420746872659E
:103EF00061640A00202D2D2D2D2D2D2D2D202D2DF1
:103F00002D2D202D2D2D2D2D2D2D2D2D2D2D2D2DEE
:103F10002D0A0000252D2A2E2A7320252D382E2A21
:103F20007320253034642025640A00002DE9F04117
:103F300094B000262CA408230BAA022105A8FFF7A1
:103F40005BFE08208046014622462AA001F058FD6B
:103F5000404600F079FD2EA001F052FD05A9304643
:103F6000FFF75CFE0646002535E00BA850F825401B
:103F70000C3CFCF7FBF8217A9DF81C2021F0800115
:103F8000914202D0FCF7F6F824E0FCF7F3F8606900
:103F900004F11407B842384611D001F05DFDA18B41
:103FA000CDE900102346082241461FA001F028FD5C
:103FB000384602F0E9FD15A001F022FD0AE001F00B
:103FC0004BFDA18BCDE900102346082241461AA0E3
:103FD00001F016FD6D1C0998A842C6DC002EBDD16B
:103FE00014B00020BDE8F08173656D6170686F7278
:103FF00065000000252D2A2E732076202020737561
:104000007370656E64207468726561640A000000F4
:10401000202D2D2D202D2D2D2D2D2D2D2D2D2D2DEA
:104020002D2D2D0A00000000252D2A2E2A73202573
:104030003033642025643A00252D2A2E2A7320254A
:104040003033642025640A002DE9F041B4B0002625
:104050003CA408232CAA012126A8FFF7CDFD0820A7
:10406000804601462246394801F0CAFC404600F02D
:10407000EBFC37A001F0C4FC26A93046FFF7CEFDCB
:104080000646002554E02CA850F825400C3CFCF7CF
:104090006DF80746207A9DF8A01020F08000884235
:1040A00003D03846FCF766F841E07822214607A89D
:1040B000FCF717F93846FCF75DF894F835000090E6
:1040C00023460822414632A001F09AFC94F83400BD
:1040D00000F00F00012807D0022807D040B10428C3
:1040E00008D0032808D00AE02CA006E02EA004E0A7
:1040F00030A002E032A000E034A001F081FCA06A10
:10410000014600E0401C0278232AFBD0E26A401AF4
:10411000101A64235843B0FBF2F3276B206CCDE9EF
:104120000007E069081A81182BA001F069FC6D1CDA
:104130002A98A842A7DC002E9ED134B00020BDE80A
:10414000F08100007468726561640000D870000836
:10415000202D2D2D20202D2D2D2D2D2D2D202D2DC3
:104160002D2D2D2D2D2D2D2D202D2D2D2D2D2D2D8C
:104170002D2D2D20202D2D2D2D2D2D20202D2D2DA3
:104180002D2D2D2D2D2D2D202D2D2D0A0000000043
:10419000252D2A2E2A732025336420002072656184
:1041A00064792020000000002073757370656E64D0
:1041B0000000000020696E697420202000000000CB
:1041C00020636C6F73652020000000002072756E04
:1041D0006E696E6700000000203078253038782046
:1041E000307825303878202020202530326425256D
:1041F00020202030782530387820253033640A009C
:10420000F0B593B0002626A408230BAA0A2104A81F
:10421000FFF7F2FC08272246394623A001F0F0FB05
:10422000384600F011FC2AA001F0EAFB04A9304650
:10423000FFF7F4FC0646002524E00BA850F82540C3
:104240000C3CFBF793FF217A9DF8182021F08001A8
:10425000914202D0FBF78EFF13E0FBF78BFFD4E90E
:104260000901CDE9000123460822394621A001F0C9
:10427000C7FB607AC00701D024A000E026A001F0AF
:10428000BFFB6D1C0898A842D7DC002ECED102F0EF
:1042900013FA014624A001F0B3FB13B00020F0BDD7
:1042A00074696D6572000000252D2A2E7320207020
:1042B0006572696F64696320202074696D656F752C
:1042C0007420202020202020666C61670A000000F6
:1042D000202D2D2D2D2D2D2D2D2D2D202D2D2D2D28
:1042E0002D2D2D2D2D2D202D2D2D2D2D2D2D2D2D0B
:1042F0002D2D0A00252D2A2E2A73203078253038BE
:1043000078203078253038782000000061637469A7
:1043100076617465640A000064656163746976613E
:104320007465640A0000000063757272656E742023
:104330007469636B3A3078253038780A00000000E1
:1043400090B0104C00256E46C821206801F0C4FCD6
:10435000A0B90D48FEF780F868B13F2269460A48C7
:10436000FEF7AEF935540848FEF705F802466946EF
:1043700006A001F045FB206801F05CFC142002F06F
:10438000BDF8E1E7100000204805002052583A200F
:10439000526563762025732C20525353493A2025C9
:1043A000640A000010B50C46012808DD6068FBF7C0
:1043B000D4FFC1B26068BDE81040FDF767BDBDE83D
:1043C000104001A001F01CBB55736167653A206C79
:1043D0006F72615F73656E64203C6D6573736167B6
:1043E000653E0A0010B542210448FEF70FF8014669
:1043F000BDE8104002A001F003BB0000480500200A
:104400004D616E75616C20526561643A203078258B
:104410003032580A00000000FCF7ACFBFEF796F9BA
:10442000FDF784FDFDF7FCFDFDF71EFE09A001F080
:10443000E7FAFDF799FC30B10BA001F0E1FA642036
:1044400002F05CF8FBE712A001F0DAFAFEF766FB77
:10445000F5E7000053797374656D205374617274CD
:10446000696E672E2E2E0A005B4D61696E5D204CD1
:104470006F526120496E6974204661696C656421E0
:1044800020436865636B20576972696E672E0A0066
:104490005B4D61696E5D204C6F52612048617264B2
:1044A0007761726520496E69742053756363657323
:1044B000732E0A0010B501F02FF8BDE81040FFF789
:1044C000ABBF0000F0B50B30154D20F00701002404
:1044D000144A0FE003688B420BD38B4205D95E1A56
:1044E00043184768C3E9006700E04368136002C0EF
:1044F00004E0021D10680028ECD12046002802D1FB
:10450000286808B10020F0BD064A07481060074A35
:10451000121A22F00702C0E9002401202860D7E720
:1045200038040020340400200447002000670020E5
:1045300010B518A001F064FA1B4C21781BA001F003
:104540005FFA2078C00702D01EA001F059FA207847
:10455000800702D51EA001F053FA2078000702D58B
:104560001EA001F04DFA2078C00602D51EA001F071
:1045700047FA2078000607D50B480C300168BDE8E3
:1045800010401CA001F03CBABDE810401D4801F0ED
:1045900037BA00006D656D206D616E6167652066DC
:1045A00061756C743A0A000028ED00E05343425FE5
:1045B000434653525F4D4653523A30782530325875
:1045C000200000004941434356494F4C2000000061
:1045D0004441434356494F4C200000004D554E5333
:1045E000544B4552522000004D53544B45525220DB
:1045F000000000005343422D3E4D4D41523A2530BC
:1046000038580A00D86C00082DE9F8438046144653
:104610000D464FF07E571068FBF7A0FF0646062DAB
:1046200061D2DFE805F00318304260566068FBF79E
:1046300095FF014634464046FBF70EFF2146FBF747
:1046400043FF4FF0804100F023FBBDE8F84380F0CA
:104650000040FEF7F9BCA068FBF780FF05466068E4
:10466000FBF77CFF0121FBF76DFF0446294640461E
:10467000FBF7F2FE3146FBF727FF20F00040214612
:1046800000F006FB0CE0A068FBF768FF014634462B
:104690004046FBF7E4FE2146FBF7E4FEFEF7D4FCC0
:1046A0003946BDE8F843FBF785BEE068FBF756FFE7
:1046B0000746A068FBF752FF05466068FBF74EFF10
:1046C000024631462B460097404602F089FABDE883
:1046D000F8836068FBF742FF024631464046BDE87A
:1046E000F84302F02EBBA068FBF738FF0546606870
:1046F000FBF734FF0246314613460095E4E700001D
:104700002DE9FF4F81B00020009058681D461746E4
:104710008B468000FFF7D6FE81460020014602E06E
:1047200049F82010401C6A688242F9D80026D7F860
:1047300000A010E0D7F804800AE000BF06FB0841A3
:10474000019850F821100098FBF734FE641C00908B
:10475000A045F3D8761CB2454FF00004EAD82DE00E
:10476000002026E000261EE05BF82800C4EBC4020F
:104770001044C0EBC001386882195BF82200014484
:10478000A86950F82100FBF7E9FE08FB0A620199CD
:1047900051F82210FBF766FE59F82410FBF70AFEC9
:1047A00049F82400761C78688246B042DCD808F1CB
:1047B0000100396880464145D4D8641C6868A0422D
:1047C000CED8002409E000BF59F824000099FBF777
:1047D0007BFEE96941F82400641C6868A042F3D8B4
:1047E00005B04846BDE8F04FFEF7F4BE2DE9F047AE
:1047F0008046002500782C4618B12248224F0668D2
:1048000031E0BDE8F0470021084600F077B8062205
:104810001EA13068FBF7BFFD20BB306800F1060920
:104820004046FBF79AFD024649464046FBF7B3FD7A
:10483000C0B925B94C464846FBF78FFD05464946A9
:10484000204601E0401C491C02781AB10B780BB1DC
:104850009A42F7D0001BA84200DA054649460DA04F
:1048600001F0CEF80C3638688642D0D3002C06D042
:104870002A4621464046BDE8F04701F05FBCBDE84E
:10488000F0870000780300207C0300205F5F636DE9
:10489000645F000025730A0038B5044601E0491E34
:1048A000641C59B120782028F9D00928F7D06A462D
:1048B0002046FEF7F3F918B1204604E0002038BD89
:1048C000009838BD401C0178202901D00029F9D179
:1048D00000210170214603A001F092F84FF0FF3053
:1048E00038BD000025733A20636F6D6D616E6420E2
:1048F0006E6F7420666F756E642E0A0070B50EA020
:1049000001F07EF81348144D04680CE0062213A150
:104910002068FBF740FD28B9D4E9001211A0891DD9
:1049200001F06EF80C3428688442EFD310A001F037
:1049300067F8002070BD000052542D546872656104
:1049400064207368656C6C20636F6D6D616E647359
:104950003A0A0000780300207C0300205F5F636D4B
:10496000645F0000252D313673202D2025730A0049
:104970000A0000000120704770B5002315461C4650
:104980001A464BE000F8012B5B1C0678202E01D064
:10499000092E01D18B42F5D3082C11D321A001F0AF
:1049A0002FF8002606E000BF55F8261025A001F0DC
:1049B00027F8761CA642F7D321A001F021F82FE0BA
:1049C0008B422DD2F6B2222E03D045F82400641C6F
:1049D0001BE0401C45F824005B1C641C08E05C2EB6
:1049E00004D14678222E01D1401C5B1C401C5B1C6C
:1049F0000678222E01D08B42F1D38B4210D200F8E0
:104A0000012B5B1C0AE0401C5B1C0678202E03D0A7
:104A1000092E01D08B42F6D38B4201D28B42B4D304
:104A2000204670BD546F6F206D616E792061726792
:104A3000732021205765206F6E6C79205573653A7D
:104A40000A0000002573200010B5044602E003A010
:104A500000F0D6FF641EFAD210BD00002D00000049
:104A600070B50D460646012A05D0022A0FD0BDE8D2
:104A70007040FEF771BDFBF7F5FC04462946304651
:104A8000FBF798FC2146BDE87040FBF7E5BCFBF75F
:104A900091FCBDE8704001464FF07E50FEF770BDBE
:104AA0002DE9F04F87B035A000F0AAFF3B4A06235E
:104AB00002F5137100208DE80F0004220123110775
:104AC0003748FEF72BFF050055D036A000F098FFC1
:104AD0003949052700268B4638A000F0E9FB39A1AB
:104AE0000024D1E900010DF110094FF47A7ACDE9E3
:104AF000040100BF55F8273019F807205946304601
:104B0000FEF7F8FE8046A0F5FA70FBF727FD2F4967
:104B1000FBF7DAFC2E49FBF7A5FC2E49FBF7A2FCBC
:104B20003146FBF747FC0646FBF721FD0190FBF7FA
:104B300015FD3146FBF793FC2749FBF793FCFBF788
:104B400016FD002800DA404200904246214623A08C
:104B5000019B00F055FF142001F0D0FC641C54456B
:104B6000C8DB06212846FEF707FA24A000F048FF1C
:104B700007B0BDE8F08F27A0F8E70000537461721A
:104B8000742046757A7A79205049442053696D75AE
:104B90006C6174696F6E2E2E2E0A000014000020C6
:104BA000D002002050494420496E69742053756337
:104BB000636573732E0A00000000B442546172678B
:104BC0006574000001000000010100000000FA43CC
:104BD0000000C842CDCCCC3D00007A4453746570CF
:104BE0002025643A204F75743D25642C2052656160
:104BF0006C3D25642E253033640A000053696D75C1
:104C00006C6174696F6E2046696E69736865642EA5
:104C10000A0000004572726F723A204D616C6C6F31
:104C200063206661696C65642120436865636B205D
:104C3000486561702053697A652E0A0030B51349C2
:104C400043680A68134402F1080498420DD05D8855
:104C50005DB94D68AB4208D08D689D4200D1886037
:104C60005D6845605B68851A1D5183681344834203
:104C70000BD05D88002D08D18D68854200D18B60F6
:104C8000416859604068991A015130BDA80300205D
:104C90002DE9F04D0E460023A0F5000C4FF00071F9
:104CA000354684B002464FF07E5401EB45014FF08B
:104CB0007F48BCF1FE4F80F09F81B1F1804FC0F082
:104CC000DB81FE490144B1F5005F40F2A78200F5A7
:104CD0008021C90C01F00F07C1F307117F39A2EB46
:104CE000C15501EB030B3846FBF738FC6FF00301AD
:104CF000FBF728FC4FF07E51FBF75CFB014602906E
:104D00002846FBF7A9FB019028460299FBF752FBC6
:104D100000F5006A6FF30B0A009051460298FBF70A
:104D20009BFB2946FBF746FB02904FF07E50009913
:104D3000FBF7CAFB014600900198FBF793FB00F5D7
:104D400000656FF30B0528460299FBF78BFB029079
:104D500051462846FBF786FB0199FBF780FB029939
:104D6000FBF77AFB0099FBF77DFB01460190284693
:104D7000FBF720FB01460290FBF774FB8246D0490B
:104D8000FBF770FBCF49FBF715FB5146FBF76AFBBE
:104D9000824600212846FBF7D5FB00905146029839
:104DA000FBF760FB054600210198FBF7CBFB29468A
:104DB000FBF700FB824601460098FBF7FBFA00F583
:104DC00000656FF30B0529460098FBF745FB51463C
:104DD000FBF7F0FA8246BC492846FBF743FB0090FC
:104DE000BA495046FBF73EFB8246B9492846FBF7D5
:104DF00039FB5146FBF7DEFA824601460098FBF785
:104E0000D9FA00F500656FF30B0529460098FBF70A
:104E100023FB5146FBF7CEFA8246AE48784450F861
:104E2000371000EBC700019147684FEA0B10FBF702
:104E300095FB009039465046FBF7BCFA2946FBF734
:104E4000B9FA0199FBF7B6FA0099FBF7B3FA00F546
:104E5000006B6FF30B0B58460099FBF7FDFA0199B5
:104E6000FBF7FAFA2946FBF7F7FA3946FBF7F4FAAB
:104E70005146FBF7F4FA06F5006782466FF30B071D
:104E800039463046FBF7E8FA002100900846FBF768
:104E900040FC00F00C0639465846FBF7E3FA05469D
:104EA00020F00040B0F18B4F0ADDB8EB400F07D384
:104EB0004FF08B4060F31E052F464FF0000A1FE0B5
:104EC00038460099FBF776FA5146FBF7CBFA0746CE
:104ED00058460099FBF7C6FA3946FBF76BFA82464B
:104EE00001462846FBF766FA00F500676FF30B07EB
:104EF00039462846FBF7B0FA5146FBF75BFA824683
:104F000031460C20FBF705FC51463846FBF752FAB8
:104F1000FBF7BEFB06460511FBF720FB3946FBF706
:104F20009EFA5146FBF746FA07466B49FBF79AFA99
:104F30006A49FBF73FFA3946FBF794FA6849FBF7F1
:104F400039FA3946FBF78EFA0146664806F00F0635
:104F5000784450F82600FBF785FA6349794451F804
:104F60002610FBF727FA6149794451F82610FBF720
:104F700021FA05F17D01FC2908D22946FBF7E2FA66
:104F800004B02146BDE8F04DFBF76CBA05F1BF0156
:104F9000B1F5BF7F16D82946FBF7D4FA2146FBF7B7
:104FA00061FA0546B8EB450F1AD068000CD02846C8
:104FB000FDF700FE042808BFFDF732FE284604B0C6
:104FC000BDE8F08D002D0BDA0220FDF761FEFDF744
:104FD00027FE0146204604B061F31E00BDE8F08DB7
:104FE0000220FDF755FEFDF716FE0146204604B0EF
:104FF00061F31E00BDE8F08DB1F1804F3CD300BFDE
:1050000000F1FF41B1F1FE4F21D200BF20F000427C
:10501000C5F3C75110467F290DDB9729BFF651AE66
:10502000C1F196014FF0010C0CFA01F1A1F1010C54
:105030001CEA050F07D00120FDF72AFE04B0BDE8E9
:10504000F04DFDF7E4BD294218BF294C39E6410077
:105050001CBF4FF08071B1EB400F09D91B21FBF74A
:1050600071FA02466FF01A0310F0004FCED128E615
:10507000BCF1FE4F18D224E6B1F1007F0ED336F01A
:10508000004105D006F0004141F0FC552E46B7E73F
:10509000410018BFB8EB400F78D8B1E7B1F1807F7D
:1050A00038BFA5F50006ABD320F000416FF0FF4CF0
:1050B000104C01EB0C03A3422FD31DE0001080C065
:1050C0007EE24C3EABAAAA3E00B038423BAA384230
:1050D000D49AB8BB78210000FC596337C9FF753AF0
:1050E0001872313D44210000F8200000AC2000007F
:1050F000000080BFFFFF3F0025F000439C44A44513
:105100000BD3B0F17E5F18BF5FEA450C3ED0B1F122
:10511000FF4F98BFB3F1FF4F05D904B03146BDE84A
:10512000F04DFDF772BDB0F1FF4F0FD0C5F3C75181
:105130007F2909DB972911DAC1F19601012202FAD0
:1051400001F14A1E2A4205D0002108E015F0004F67
:1051500055D128E0294218BF012100D1022110F5C4
:10516000000F14D020B3B0F1004F27D010F1814FC1
:105170004ED04FF0FE41B1EB400F94BF0120002014
:10518000012101EBE571884239D10CE040E015F0D6
:10519000004F02D0012936D031E0012902BF3F483B
:1051A00004B0BDE8F08D4FF0FF4004B0BDE8F08DD5
:1051B00015F000400ED104B0BDE8F08DB5F1FF4F01
:1051C0001DD015F5000F05D015F0004F14D009B112
:1051D000012907D00220FDF75BFD04B0BDE8F04DCA
:1051E000FDF70BBD0220FDF753FDFDF706FD04B0F2
:1051F00080F00040BDE8F08D09B1012903D004B072
:105200000020BDE8F08D04B04FF00040BDE8F08D07
:1052100004B04FF07E50BDE8F08D00BF4FF07E51DE
:10522000FBF71AF905466FF00101FBF78BF91C49F2
:10523000FBF715F92946FBF715F94FF07C51FBF701
:105240000EF9074629460846FBF70CF980F00040A6
:105250003946FBF707F9824612492846FBF702F95F
:10526000074611495046FBF7FDF882460F4928468C
:10527000FBF7F8F85146FBF79DF80546014638461E
:10528000FBF798F800F5006B6FF30B0B59463846A7
:10529000FBF7E2F82946FBF78DF8ECE5000080FF0C
:1052A000ABAAAA3E00B0B8413BAAB841D49A38BBD9
:1052B00070B505460E460846FBF759F90446FBF75C
:1052C0004DF93146FBF7CBF80749FBF7CBF8FBF775
:1052D0004EF9030000D5434222462946BDE87040FE
:1052E00002A000F08DBB000000007A4425733A2034
:1052F00025642E253033640A000000002DE9F04FAC
:1053000085B09946DDE90EA5109CAB46630602D533
:10531000DFF814C103E0DFF810C1ACF1110CE306B3
:1053200001D524F00104E30701D0302300E020235D
:1053300000260493A3070BD5002A02DA2D26524239
:1053400006E0630701D52B2602E0230700D52026BF
:105350000023EE4622B930228DF8002001230CE014
:10536000B9F10A0F14D002F00F0812091CF80880D6
:105370000EF803805B1C002AF2D1AB4200DD1D4613
:10538000AAEB050214F0110F4FF0200708D015E02A
:105390000A27B2FBF7F807FB1828B2FBF7F2E5E79C
:1053A0003EB1002A05DD521E03E0884200D207709C
:1053B000401CB2F1000CA2F10102F6DC26B18842D9
:1053C00000D20670401C521EE40605D508E0884253
:1053D00001D2049C0470401C141EA2F10102F6DCF0
:1053E00030242E466D1E9E420ADD884200D2047093
:1053F000401CF6E7884201D2E55C0570401C00E0E5
:1054000074461D1EA3F1010307DDBBF1000FF1D1AE
:1054100003E0884200D20770401C131EA2F1010273
:10542000F7DC05B0BDE8F08F546F00082DE9FC5F94
:10543000054610A8984690E8000E16460F465C20D8
:10544000FFF740F80446C4E900570025C4E905B554
:10545000C5610562083080E840060E9961620F99C7
:10546000A16213480121874203DD0221864200DD4B
:1054700003210220FEF750F9A065DDE91612CDE9FF
:10548000001213AE96E80E00FEF75AF9E5622563A6
:10549000C4E90D580C98E0630D9820641A982065B3
:1054A0001998E0641898A0642046BDE8FC9F0000AD
:1054B00017B7D1381CB514210A20CDE900014FF4EB
:1054C00080730022034904A000F012FFBDE81C40D5
:1054D00001F060B8B54400086D61696E000000001D
:1054E00070B54843044600F0DBFA050003D02246BD
:1054F000002100F067FB284670BD000070B5044C29
:10550000044D02E020688047241DAC42FAD370BDF0
:105510004C7400085474000870B5044C044D02E04B
:1055200020688047241DAC42FAD370BD5474000833
:105530005C74000810B5FAF719FE044A5188491C3A
:105540005180BDE81040FAF715BE0000100400209D
:1055500010B5FAF70BFE0B4C6188491E09B2618049
:1055600000290ADC00216180FAF704FE6068002847
:1055700007D0BDE8104000F09BBCBDE81040FAF732
:10558000F9BD10BD1004002070B5002833D01A4DAD
:10559000296888422FD3696888422CD2A0F10C0474
:1055A0004FF0FF31154800F031FD60884FF4F5569B
:1055B00010B12088B04208D011A000F021FA238851
:1055C0006288214615A000F01BFA0020608026802A
:1055D000A868844200D2AC6029686068611A401AE9
:1055E0002969081A28612046FFF728FBBDE87040AA
:1055F000024800F0E7BC70BDA8030020DC090020D1
:10560000746F206672656520612062616420646148
:10561000746120626C6F636B3A0A00006D656D3ACD
:10562000203078253038782C207573656420666CBE
:1056300061673A2025642C206D6167696320636F80
:1056400064653A203078253034780A000048704785
:10565000FC0A002000487047FC46002010B5FBF70C
:1056600089FAFDF773F8FDF7A1F8FCF75FFCFCF78A
:10567000FBFC10484FF47A710068B0FBF1F0401E5B
:10568000B0F1807F0AD24FF0E02148610A4AF02051
:1056900082F8140D0020886107200861FFF72EFFB3
:1056A000FFF7D8FF0446FFF7D1FF2146BDE81040C1
:1056B00000F058BD0C0000200FE000E0094808B5DC
:1056C00000684FF0FF310268920602D54068C1B20F
:1056D00005E00268120702D5026840680090C8B26F
:1056E00008BD000098040020F8B506460D200F49BB
:1056F0008DF80000002481F84040304600F016FD8F
:1057000005460FE0305D0A2805D101231A46694697
:105710000648FCF7D8FA012331191A460348FCF76A
:10572000D2FA641CAC42EDD3F8BD0000980400200E
:1057300070B50546041D2D48016819B128468847F3
:10574000002851D02AA0E16B00F05AF92CA0216A60
:1057500000F056F92EA0616A00F052F930A0A16A5B
:1057600000F04EF932A0E16A00F04AF934A0216855
:1057700000F046F936A0616800F042F938A0A1684F
:1057800000F03EF93AA0E16800F03AF93CA0216946
:1057900000F036F93EA0616900F032F940A0A1693D
:1057A00000F02EF942A0E16900F02AF944A0216B33
:1057B00000F026F946A0616B00F022F948A0A16B29
:1057C00000F01EF92878400708D500F0BDFE01461C
:1057D00047A000F015F9FEF737FC02E04CA000F0FE
:1057E0000FF9FEF7C1F8FEE770BD0000900300203E
:1057F0007073723A203078253038780A0000000043
:105800007230303A203078253038780A00000000B5
:105810007230313A203078253038780A00000000A4
:105820007230323A203078253038780A0000000093
:105830007230333A203078253038780A0000000082
:105840007230343A203078253038780A0000000071
:105850007230353A203078253038780A0000000060
:105860007230363A203078253038780A000000004F
:105870007230373A203078253038780A000000003E
:105880007230383A203078253038780A000000002D
:105890007230393A203078253038780A000000001C
:1058A0007231303A203078253038780A0000000014
:1058B0007231313A203078253038780A0000000003
:1058C0007231323A203078253038780A00000000F2
:1058D000206C723A203078253038780A00000000B9
:1058E0002070633A203078253038780A00000000B4
:1058F00068617264206661756C74206F6E207468D4
:10590000726561643A2025730D0A0D0A00000000DB
:1059100068617264206661756C74206F6E206861C6
:105920006E646C65720D0A0D0A00000070B50446C5
:10593000121D22F007000022094D403840F8225085
:10594000521C102AFAD301620021416281624FF099
:10595000807200F13005C263C16285E81A0070BD33
:10596000EFBEADDE10B5FAF701FC044A1178491C10
:105970001170BDE81040FAF7FDBB0000A403002041
:1059800010B5FAF7F3FB044A1178491E1170BDE80F
:105990001040FAF7EFBB0000A403002010B5006828
:1059A000143800F0B2FD002010BD00002DE9F041D8
:1059B000064614460D46084600F002FE05F114079F
:1059C000B4B1012C18D134680EE000BF95F8351041
:1059D00094F82120A4F11400914204D239461430E5
:1059E00000F033F802E02468B442EFD1B44203D1AE
:1059F0003946304600F029F80020BDE8F08100006B
:105A00000FB4FF2110B503AB0448029A00F05CFF0D
:105A10000248FFF769FE10BC5DF814FBDC080020AB
:105A20000268516002680A6001604860704702685D
:105A3000516002680A600160486070470268516006
:105A400002680A60016048607047426811604268FD
:105A50004A604160086070470246002100E0491C2E
:105A600000689042FBD108467047D0E900124A60B6
:105A7000D0E900121160406000607047D0E9001268
:105A80004A60D0E900121160406000607047D0E9C0
:105A900000124A60D0E90012116040600060704757
:105AA0002DE9F047002807D0374CC01C20F0030632
:105AB000E068864202D90020BDE8F0870C2E00D2B3
:105AC0000C264FF0FF31314800F0A0FAD4F808C09E
:105AD0002168E768ACEB0100BA1B4FE00D186B883A
