:020000040800F2
:100000004046002049010008DB16000811020008E4
:10001000D916000847030008D91A0008000000009C
:10002000000000000000000000000000F9160008B9
:1000300049030008000000009B010008FB160008AF
:100040006301000863010008630100086301000800
:1000500063010008630100086301000863010008F0
:100060004B030008630100086301000863010008F6
:1000700063010008630100086301000863010008D0
:1000800063010008630100086301000863010008C0
:1000900063010008630100086301000863010008B0
:1000A00063010008630100086301000863010008A0
:1000B0006301000863010008630100086301000890
:1000C000630100086301000863010008DD160008F1
:1000D00063010008CD1A00086301000863010008ED
:1000E0006301000863010008630100086301000860
:1000F0006301000863010008630100086301000850
:10010000630100086301000863010008630100083F
:100110006301000863010008D917000863010008A3
:10012000630100086301000863010008630100081F
:10013000DFF810D000F0F0F8004800473D03000859
:10014000AFF300804046002006488047064800473D
:10015000FEE7FEE7FEE7FEE7FEE7FEE7FEE7FEE777
:10016000FEE7FEE7D517000831010008EFF3108025
:1001700072B6704780F310887047324A1368012BBB
:1001800004D04FF0010313602F4A10602F4A116012
:100190002F484FF0805101607047EFF3108272B624
:1001A0002848016891B14FF00001016026480168BC
:1001B00029B1EFF3098121E9F00F006801602349BB
:1001C00009680968B1E8F00F81F3098882F31088A3
:1001D0004EF0040E70471D4908601B494FF00000A7
:1001E000086018494FF0010008601A481A49D0F811
:1001F000002041EA0201016015484FF08051016082
:1002000016480068006880F3088861B662B67047D7
:100210001EF0040F0CBFEFF30880EFF3098020E914
:10022000F00F40F804ED1EF0040F0CBF80F30888B7
:1002300080F3098800B502F0F3FE5DF804EB4EF0A0
:10024000040E7047340000202C00002030000020F5
:1002500004ED00E020ED00E00000FFFF08ED00E00D
:1002600040EA01039B0703D009E008C9121F08C038
:10027000042AFAD203E011F8013B00F8013B521EB8
:10028000F9D27047D2B201E000F8012B491EFBD22F
:1002900070470022F6E710B513460A460446194691
:1002A000FFF7F0FF204610BD421E12F8013F002B61
:1002B000FBD111F8013B02F8013B002BF9D170474B
:1002C00010B5044604E00B7800F8013B03B1491C6B
:1002D000521EF8D2204610BD421C10F8011B002906
:1002E000FBD1801A7047034611F8012B00F8012B4F
:1002F000002AF9D11846704730B50546002003465C
:1003000000E05B1C934205D2EC5CC85C201A01D172
:10031000002CF6D130BD0000064C074D06E0E06829
:1003200040F0010394E8070098471034AC42F6D33C
:10033000FFF702FFA0470008C047000810B503F010
:1003400027FF002010BDFEE77047042000F0C0B872
:1003500072B6FEE710B590F821100022022905D0F0
:100360000421816380F82020012010BD01680B6802
:1003700023F00E030B6001680B6823F001030B6090
:1003800090F84030C46B012101FA03F3636080F8F8
:10039000211080F82020104610BD00002DE9F05FEC
:1003A00090F821100024022903D004218163012444
:1003B00085E001680A6822F00E020A6001680A6896
:1003C00022F001020A603F4E3E4FB215DFF8F4C042
:1003D000DFF8F090DFF8ECA0DFF8E8B0DFF8E4E059
:1003E0000168783F13011502ACF1640CA9F15009C2
:1003F000AAF13C0AABF1280BAEF1140E4FF48018B1
:10040000B14227D9B9420ED0614512D049451DD01D
:10041000514518D0594518D0714501D1424615E0D3
:10042000294EB14201D1012210E0274E1436B142CB
:1004300001D110220AE0244E2836B14206D0224AC9
:100440003C32914201D11A4600E02A461E49091F5A
:100450000A602BE0B94213D0614517D0494522D03C
:1004600051451DD059451DD0714501D142461AE074
:10047000B14202D14FF0807215E0134EB14201D16A
:10048000012210E0104E1436B14201D110220AE0D0
:100490000D4E2836B14206D00B4A3C32914201D172
:1004A0001A4600E02A46074980394A60012180F84F
:1004B0002110002180F82010416B01B188472046AF
:1004C000BDE8F09F80000240080402407047000031
:1004D000044910B50A68024202D00860FFF7F6FF2F
:1004E00010BD0000140401402DE9F84FDFF8C89159
:1004F0000024A9F1040B23460F2709F1040AABF1EC
:10050000040ED1E00125A54006EA0502AA4276D1F3
:10051000DFF8A8C14E68A6EB0C0866452BD00DDCB1
:10052000032E34D005DC36B3012E19D0022E2FD184
:100530001BE0112E16D0122E2AD119E0B8F5881F13
:1005400019D006DCB8F5803F15D0B8F5801F1FD153
:1005500011E0B8F5001F0ED0B8F5041F18D10AE05D
:10056000CB6815E0CB681B1D12E0CB6808330FE0A9
:10057000CB680C330CE08B682BB1012B4FF00803D8
:1005800003D0456104E0042302E0056100E000239C
:10059000FF2A01D8064601E000F104064FEA84056F
:1005A00001D9A5F12005D6F8008007FA05FC28EA54
:1005B0000C0803FA05F548EA0508C6F800804D68FE
:1005C000ED0070D53E4DAE6946F00106AE61AD69F5
:1005D00024F0030605F0010500953A4D06EB050CE5
:1005E000DCF80850A607360F07FA06F825EA0805D2
:1005F000DFF8D480404503D14FF0000825E052E0F9
:10060000DFF8C880404502D14FF001081DE0DFF857
:10061000C080404502D14FF0020816E0DFF8B480F8
:10062000404502D14FF003080FE0DFF8AC804045B1
:1006300002D14FF0040808E0DFF8A080404502D165
:100640004FF0050801E04FF0060808FA06F848EAFE
:100650000508CCF808804D68D9F80060ED024D46D9
:1006600001D5164300E096432E604D68DAF800602D
:10067000AD02554601D5164300E096432E604D6805
:10068000DBF80060AD035D4601D5164300E09643FC
:100690002E604D68DEF80060ED03754601D5164307
:1006A00000E096432E60641C0A681646E2407FF420
:1006B00029AFBDE8F88F00000804014000001110C8
:1006C000001002400000014000080140000C014001
:1006D000001001400014014000180140001C0140BE
:1006E000C26821EA02030A4043EA024101617047FD
:1006F0000AB1016170470904FBE700000148806806
:100700007047000000000020024881680278114410
:100710008160704700000020074810B5016841F073
:1007200010010160032000F08FF8002000F006F8AF
:1007300000F03EF8002010BD0020024000B5014648
:1007400087B00022362000F05FF8362000F04EF827
:100750001348C16941F01001C161C06905A900F0E9
:1007600010000690684600F017F900F035F90D49C1
:100770004000B0FBF1F10D480B4A491E0260416098
:1007800040F2E7320021C0E90321816000F008FC5B
:1007900010B1012007B000BD044800F02FFCF9E7BC
:1007A0000010024040420F0000100040580100209D
:1007B0000C4808B5816941F001018161816901F04E
:1007C00001010091C16941F08051C161C06900F02F
:1007D000805000900448416821F0E06141F00071D0
:1007E000416008BD0010024000000140002809DB04
:1007F00000F01F02012191404009800000F1E0203B
:10080000C0F8001170470000F0B40E4B1B680C4696
:10081000C3F30223C3F10705042D00D90425191DD4
:10082000072901D2002300E0DB1E012606FA05F1AC
:10083000491E214099409E40761E16403143F0BC2F
:1008400001F04BB90CED00E0064900F00702086822
:100850004FF6FF03184040EA0220034A10430860A5
:10086000704700000CED00E00000FA052DE9F047AC
:100870000F46050061D0434E306800F00700B842D3
:1008800009D2306820F0070038433060306800F04B
:100890000700B84251D128683B4C810712D5400768
:1008A00003D5606840F4E06060602878000703D5F5
:1008B000606840F4605060606068A96820F0F000F3
:1008C000084360602878C00728D06868012810D0E5
:1008D0002168022810D0890700292EDA616821F0EA
:1008E000030101436160FFF709FF804641F2883947
:1008F0000DE021688903EFE78901EDE7FFF7FEFED0
:10090000A0EB0801494502D90320BDE8F0876068E3
:10091000696800F00C00B0EB810FEFD1306800F097
:100920000700B8420BD9306820F007003843306028
:10093000306800F00700B84201D00120E5E72878D0
:10094000400705D56068E96820F4E060084360600E
:100950002878000706D56068296920F4605040EACD
:10096000C100606000F058F86168084AC1F30311E3
:10097000515CC8400649086006480068FFF7DEFE83
:100980000020C2E70020024000100240044300089B
:100990000C000020040000200F2202600C4A536863
:1009A00003F003034360536803F0F003836053686C
:1009B00003F4E063C36052684FF4E06303EAD202D9
:1009C00002610448006800F00700086070470000FA
:1009D00000100240002002400448054900684968B0
:1009E000044AC1F30221515CC84070470C0000204A
:1009F0000010024014430008044805490068496893
:100A0000044AC1F3C221515CC84070470C00002069
:100A100000100240144300080E4A51680E4801F0CD
:100A20000C03042B11D0082B0FD10C48C1F38343C6
:100A3000C903C05C0AD55168084AC1F34041921EFF
:100A4000515C054A5043B0FBF1F0704704494843FC
:100A5000704700000010024000127A00F4420008C3
:100A600000093D002DE9F84F040070D02078C04DFA
:100A7000C00749D06868C0F38100012807D06868C2
:100A8000C0F38100022809D16868C00306D5286830
:100A9000800339D560680028E7D035E06068B0F59C
:100AA000803F0BD010B1B0F5A02F11D0286820F4F2
:100AB00080302860286820F4802002E0286840F414
:100AC00080302860606890B1FFF718FE06460AE0A3
:100AD000286840F480202860F0E700BFFFF70EFE92
:100AE000801B642873D828688003F7D50CE0FFF7D3
:100AF00005FE064605E000BFFFF700FE801B6428E8
:100B0000F0D828688003F7D420789A4E80074FF0F9
:100B100001094FF0000839D5686810F00C0F07D0B4
:100B20006868C0F38100022809D16868C00306D450
:100B30002868800714D52069012808D110E02069B1
:100B4000B0B1C6F80090FFF7D9FD074605E00AE10D
:100B5000FFF7D4FDC01B0228C4D828688007F7D54A
:100B60002868616920F0F80040EAC10028600DE0C3
:100B7000C6F80080FFF7C2FD074604E0FFF7BEFDA0
:100B8000C01B022823D828688007F7D420780007E4
:100B90002CD57948A169D9B1C0F80090FFF7AEFD16
:100BA000074604E0FFF7AAFDC01B02280FD8686AB9
:100BB0008007F7D571484FF4FA510068B0FBF1F0A7
:100BC000009000BF0098411E0091FAD20EE080E034
:100BD000C0F80080FFF792FD074604E0FFF78EFDA6
:100BE000C01B022875D8686A8007F7D420784007B0
:100BF00060D5E8690027C00008D4E86940F080505B
:100C0000E861E869012700F0805000905C480168C5
:100C1000C90513D40168834641F480710160FFF770
:100C20006DFD824606E000BFFFF768FDA0EB0A00FD
:100C300064284ED8DBF80000C005F5D5E06801282F
:100C40000AD008B1052813D0286A20F001002862D4
:100C5000286A20F0040002E0286A40F001002862BF
:100C6000E06841F2883B98B1FFF748FD82460BE00F
:100C7000286A40F004002862EEE700BFFFF73EFD5F
:100C8000A0EB0A0159455AD8286A8007F6D50CE02E
:100C9000FFF734FD824605E0FFF730FDA0EB0A01C7
:100CA00059454CD8286A8007F6D41FB1E86920F06E
:100CB0008050E861E06988B36968C1F38101022965
:100CC00044D00228C6F8608004D0FFF717FD044620
:100CD00038E034E0FFF712FD074604E0FFF70EFDB1
:100CE000C01B02282BD828688001F7D4206AB0F5F1
:100CF000803F05D16868A16820F40030084368602F
:100D0000D4E908010843696821F474110843686054
:100D1000C6F86090FFF7F2FC044606E025E000BF4D
:100D2000FFF7ECFC001B022809D828688001F7D5E2
:100D30001BE000BFFFF7E2FC001B022802D90320E2
:100D4000BDE8F88F28688001F4D40EE00128F7D0C0
:100D50006868226A00F48031914204D1616A00F42B
:100D60007010884201D00120EAE70020E8E7000087
:100D70000010024000004242800442420C00002069
:100D8000007000407047000038B5044600684268B3
:100D90008168C9434B0606D5CB0704D1D3435B0614
:100DA00001D4216C05E08B0708D4D3431B0605D47E
:100DB000616C01B02046BDE8304008478B0601D584
:100DC0004B0646D4D3439B0643D44B060AD494F82F
:100DD0005130032B3ED0636D43F004036365C36859
:100DE00083680093890609D4616D41F00101616552
:100DF00081680091016821F040010160606D002868
:100E000027D02068416821F0E0014160012084F88A
:100E10005100900722D02068416821F00301416011
:100E2000104DE06C40B14563E06CFFF7B7FA18B1C4
:100E3000606D40F040006065A06C002809D04563FB
:100E4000A06CFFF7ABFA002803D0606D40F04000C3
:100E5000606538BDC1688068009038BD2046FFF7E6
:100E600091FF38BDE916000870B5040009D0606A2A
:100E7000002540B125616561A56294F8510040B13B
:100E80000CE0012070BD6068B0F5827FF4D0E561B0
:100E9000F2E784F85050204600F040F8022084F831
:100EA00051002068016821F040010160A08821897B
:100EB00000F4827001F404410843A18901F4006147
:100EC0000843217C01F002010843217D01F001016A
:100ED0000843218B01F400710843217F01F03801A0
:100EE000084394F8201001F080010843218D01F49B
:100EF0000051084321680860A069042101EA1040FC
:100F0000216848602068C16921F40061C16165659C
:100F1000012084F85100002070BD000030B585B07C
:100F200000240094019402940394006818498842B4
:100F30002BD11848816941F480518161816901F4A4
:100F400080510491816941F0040181618069124DF1
:100F500000F004000490A0200090022001900320E3
:100F6000039069462846FFF7BFFA4020CDE9000408
:100F7000694628460294FFF7B7FA00220121232090
:100F8000FFF742FC2320FFF731FC05B030BD000025
:100F900000300140001002400008014070477047D7
:100FA00010B5040003D094F83D0010B107E0012013
:100FB00010BD002084F83C00204600F01EF80220FE
:100FC00084F83D00211D206800F00CFC012084F80D
:100FD000460084F83E0084F83F0084F8400084F81E
:100FE000410084F8420084F8430084F8440084F807
:100FF000450084F83D00002010BD704790F83D107A
:10100000012901D001207047022180F83D100168BC
:10101000CA6842F00102CA6000680E4988420ED0D8
:101020000D4988420BD0B0F1804F08D00B4988425F
:1010300005D00B49884202D00A49884204D1816810
:1010400001F00701062903D0016841F001010160A8
:1010500000207047002C0140003401400004004093
:1010600000080040000C004070472DE9F0410446A4
:101070000068C66805694FF00007A90713D5B107D6
:1010800011D5F91E01610120207720688069800751
:10109000204602D0FFF7E8FF04E000F07EF820468B
:1010A00000F07CF82777680716D5700714D52168FB
:1010B0006FF004000861022020772068806910F436
:1010C000407F204602D0FFF7CFFF04E000F065F834
:1010D000204600F063F82777280715D5300713D589
:1010E00021686FF008000861042020772068C0693B
:1010F0008007204602D0FFF7B7FF04E000F04DF86C
:10110000204600F04BF82777E80616D5F00614D5F0
:1011100021686FF010000861082020772068C069FE
:1011200010F4407F204602D0FFF79EFF04E000F05D
:1011300034F8204600F032F82777E80708D0F007A7
:1011400006D021686FF001000861204600F028F801
:10115000280608D5300606D521686FF080000861A2
:101160002046FFF71BFF680608D5700606D52168E4
:101170006FF040000861204600F01CF8A8060AD570
:10118000B00608D521686FF0200008612046BDE850
:10119000F041FFF704BFBDE8F081704770470000E1
:1011A00000680349884201D1FFF7AEBA70470000DA
:1011B000001000407047704770470000F8B50168A4
:1011C00004460868CA684B6910F00F0F4FF000051D
:1011D00059D003F0010602F49077374365D0C10778
:1011E00005D0D10503D5616C41F00101616441076F
:1011F00005D5D90703D0616C41F002016164810714
:1012000005D5D90703D0616C41F004016164010781
:1012100007D502F02001314303D0616C41F0080191
:101220006164616C00293AD0800604D5900602D52D
:10123000204600F054FB20684069616CC0F38010C8
:10124000090700D460B3204600F022FB2068406903
:10125000400621D52068143050E8001F21F04001DD
:1012600040E80012002AF5D1E06BA8B16D49416356
:10127000E06BFFF793F8002811D0E06B416B01B0F1
:10128000BDE8F040084783060FD593060DD52046EC
:10129000BDE8F84000F023BB2046FFF78DFFF8BD06
:1012A0002046FFF789FF6564F8BD266B2023012ED9
:1012B0007CD1C6067AD5D60678D5086848680090ED
:1012C00048694FF00206400640D5E16B0868406867
:1012D0000004000CE8D0A28D8242E5D9E08588693F
:1012E00020282DD020680C3050E8001F21F4807198
:1012F00040E80012002AF5D12068143050E8001FA1
:1013000021F0010140E80012002AF5D120681430D4
:1013100050E8001F21F0400140E80012002AF5D1FA
:1013200084F84230256320680C3050E8001F21F01B
:10133000100140E80012002AF5D1E06BFFF70AF82F
:101340006663A08DE18D401A81B22AE0A08DE18D07
:10135000401A81B2E08D0028A6D00029A4D02268CE
:101360000C3252E8000F20F4907042E80007002F82
:10137000F5D12068143050E8002F22F0010240E837
:101380000027002FF5D184F84230256320680C3007
:1013900050E8002F22F0100240E80023002BF5D186
:1013A00066632046FFF707FFF8BDFFE705062BD56C
:1013B000150629D594F841002128F5D1A068B0F58B
:1013C000805F01D12069B0B1206A411C216221688F
:1013D00000784860E08C401E0004000CE084E3D1FB
:1013E0002068C16821F08001C1602068C16841F0B7
:1013F0004001C160D8E7206A0088C0F30800486057
:10140000206A801C2062E5E74006CDD55006CBD58A
:10141000CA68204622F04002CA6084F8413000F0D9
:10142000C6F8C1E78118000870B5040004D094F82C
:101430004100002510B106E0012070BD84F8405045
:10144000204600F023F8242084F841002068C16879
:1014500021F40051C160204600F0A2FA2068016921
:1014600021F4904101612068416921F02A01416124
:101470002068C16841F40051C1606564202084F88F
:10148000410084F842006563002070BD30B585B02E
:10149000002400940194029403940068184988423F
:1014A0002CD11848816941F480418161816901F43E
:1014B00080410491816941F0040181618069124D8C
:1014C00000F0040004904FF400700090022001909E
:1014D0000320039069462846FFF706F82815CDE952
:1014E0000004694628460294FEF7FEFF002203210D
:1014F0002520FFF789F92520FFF778F905B030BDE1
:1015000000380140001002400008014070472DE9FA
:10151000F843044690F84100984616460D462028A8
:1015200002D00220BDE8F88385B17EB1002060645E
:10153000212084F84100FFF7E1F8A6848146E68483
:10154000A0682027B0F5805F02D003E00120E9E722
:10155000206910B12E4600250EE000260CE0802107
:10156000204600F079FAA8B9C6B116F8010B216837
:101570004860E08C401EE084E08C4B464FF0000257
:10158000CDF800800028EAD14FF04001204600F05D
:1015900063FA40B184F841700320C3E735F8020BC9
:1015A000C0F30800E3E784F841700020BAE7704711
:1015B000F0B585B00024244800940194029403946B
:1015C000816941F040018161816901F0400104912C
:1015D000816941F00401816180691C4E00F00400C2
:1015E0000490002220213046FFF782F8184F012294
:1015F00018213846FFF77CF820200125CDE90005A9
:101600000320CDE9024069463046FEF76DFF042015
:1016100000901048CDE9010469463846FEF764FFA2
:101620001820CDE900050220CDE902406946384680
:10163000FEF75AFF002201210820FFF7E5F80820F5
:10164000FFF7D4F805B0F0BD0010024000180140CB
:101650000008014000001110104810B50E4901604B
:101660004FF48271416000218160C1604FF40072CB
:101670000161C0E905121822C0E9072141628162B7
:101680000A21C162FFF7F0FB002803D0BDE810403B
:10169000FEF75EBE10BD000000300140B800002023
:1016A0000C4810B50A4901604FF4E1314160002156
:1016B00081600C22C160C0E904128161C161FFF741
:1016C000B3FE002803D0BDE81040FEF741BE10BDB8
:1016D0000038014010010020FEE7FEE70148FFF757
:1016E00053BB0000B800002010B5406A0021C1873C
:1016F000C186FFF747FB10BD704710B501F0AAFD8A
:1017000002F0FAFABDE8104001F0B2BD30B58FB07A
:1017100028216846FEF7BDFD14210AA8FEF7B9FD91
:1017200001210804CDE9001000240294022504914F
:10173000CDE907504FF4E01009906846FFF792F9A1
:1017400008B172B6FEE70F20CDE90A054FF48060BC
:10175000CDE90C4002210AA80E94FFF787F8002873
:1017600001D072B6FEE70FB030BD0000144910B5CD
:101770004868144A10F00C03134803D0042B01D01E
:10178000082B09D002604968104AC1F30311515C6B
:101790000268CA40026010BD4A684B6802F47012C9
:1017A0004FF0020413F4803F04EB924202D04B68E6
:1017B0009B0301D5064B00E0024B5A43E2E70000D1
:1017C0000010024000127A000C00002004430008C0
:1017D00000093D00704700000148FFF746BC0000CB
:1017E00058010020F0B50268204C214D214E224FB7
:1017F000224B4FF0804CA04209D0984207D0604560
:1018000005D0A84203D0B04201D0B84204D122F0A2
:10181000700E4A6842EA0E02A04209D0984207D0F0
:10182000604505D0A84203D0B04201D0B84203D1F0
:1018300022F44075CA682A434D6922F080022A4387
:1018400002608A68C2620A688262A04201D098423D
:1018500001D109690163012141610169C90703D00F
:10186000016921F001010161F0BD0000002C01407F
:101870000004004000080040000C0040003401401B
:1018800010B5406A0021C185C184FFF795FC10BDE9
:1018900001680C3151E8002F22F4907241E80023D6
:1018A000002BF5D10168143151E8002F22F001021C
:1018B00041E80023002BF5D1016B012909D1016812
:1018C0000C3151E8002F22F0100241E80023002BD8
:1018D000F5D1202180F8421000210163704708B53E
:1018E00090F84210222901D0022008BD82684FF4EE
:1018F00080539A4201D1016921B1816A9A421BD079
:101900004AB10AE00268816A5268C2F308020A809A
:10191000816A891C08E0026972B10268526802F0AB
:101920007F020A70816A491C8162C18D491E0904C7
:10193000090CC18503D01BE002685268F1E7016819
:10194000CA6822F02002CA600168CA6822F4807264
:10195000CA6001684A6922F001024A61202180F8C8
:10196000421000214163026B012A03D0FFF7CEFD34
:10197000002008BD016301680C3151E8002F22F0FE
:10198000100241E80023002BF5D101680A68D20655
:1019900002D50A6849680091818DFFF70CFCE7E7E2
:1019A00070B5044600680169E26821F440511143B2
:1019B00001612169A0680843616908432168CA6818
:1019C00041F20C639A430243CA6020684169A269EC
:1019D00021F44071114341611E492068884202D1BF
:1019E000FFF70AF801E0FEF7F7FF00EBC00101EB9B
:1019F0000012606864218000B2FBF0F3B3FBF1F3E6
:101A00006FF018067343B2FBF0F5B2FBF0F605EB8E
:101A10008305322303EB0515B5FBF1F5B6FBF1F6B3
:101A200005F0F00505EB0615B2FBF0F6B2FBF0F0A1
:101A3000B0FBF1F06FF01802504306EB800003EBAF
:101A40000010B0FBF1F0216800F00F00284488601E
:101A500070BD0000003801402DE9F8439846174654
:101A60000D460446089E24E0701C22D0FEF746FE78
:101A7000A0EB0800B0421AD8CEB12068C16849076F
:101A800017D5802D15D0402D13D00168C943090703
:101A90000FD401680025406800902046FFF7F8FE4B
:101AA0000820606484F840500120BDE8F8830320DA
:101AB000FBE72068006835EA000004D00020B84247
:101AC000D2D00020F1E70120F9E700000148FFF73C
:101AD00075BB000010010020FEE70907090E002871
:101AE00004DB00F1E02080F80014704700F00F00E4
:101AF00000F1E02080F8141D70470000002806D097
:101B00000E4910F0FF0F03D0C0B2085C401C7047B4
:101B100010F47F4F04D0C0F30720085C09307047F1
:101B200010F47F0F04D0C0F30740085C11307047F9
:101B300001EB106000781930704700001C4300086A
:101B400002E008C8121F08C1002AFAD17047704786
:101B5000002001E001C1121F002AFBD170470000E4
:101B60002DE9F04F89B092468B460646002400E0EE
:101B7000641C305D202803D0092801D05C45F7D3D0
:101B80004FF0FF387CB3194804F10609184F056877
:101B900011E0062217A12868FEF7AEFB50B92868AD
:101BA00022463146801DFEF7A7FB18B9296811F8B7
:101BB000090020B10C3538688542EAD314E0AC68DE
:101BC0008CB120216846FEF764FB6A4659463046D0
:101BD00000F0B2FF38B16946A047CAF80000002003
:101BE00009B0BDE8F08FFFE74046F9E7100000209C
:101BF000140000205F5F636D645F00002DE9FC410D
:101C00001F460446DDE90831DDE90A65143040600D
:101C10000060C4E90827C4E90A310A4623211846AE
:101C20001C3401F03FFCD4E903014218D4E901015E
:101C3000104B121F01F0F2FA44F81A0B002004F8BE
:101C400001690D4A04F8036BE4E8020544F81059F1
:101C500001C404F83C0B01C444F874090090234605
:101C60000190194604F1440002F0DAF80020BDE8C2
:101C7000FC810000193A0008373C000810B5029CAE
:101C800024F001044472C0E907120021C0E90931BF
:101C900014304060006010BD143001F068BB70B5B6
:101CA0000546FEF763FA296F044609B128468847BE
:101CB0002046BDE87040FEF75DBA000010B51BA0DD
:101CC00001F00EFB1C4C21781CA001F009FB2078D0
:101CD000C00702D01FA001F003FB2078800702D5C7
:101CE0001FA001F0FDFA2078400702D51FA001F0E7
:101CF000F7FA2078000702D520A001F0F1FA207849
:101D0000C00602D520A001F0EBFA2078000607D526
:101D100009480F300168BDE810401DA001F0E0BA8D
:101D2000BDE810401EA001F0DBBA00006275732010
:101D30006661756C743A0A0029ED00E05343425F16
:101D4000434653525F424653523A30782530325818
:101D50002000000049425553455252200000000027
:101D6000505245434953455252200000494D50526C
:101D7000454349534552522000000000554E5354EC
:101D80004B4552522000000053544B455252200004
:101D90005343422D3E424641523A253038580A00BC
:101DA0000A00000010B500F03DFB002010BD10B58A
:101DB00000F0FCFB002010BD104810B5416991F8FF
:101DC0002110890703D40E490020087014E001692E
:101DD00029B14FF480720A48FEF772FA0CE000F065
:101DE000A9FE08B107A100E008A10548FEF77BFAAB
:101DF00008A10348FEF758FA014810BD1000002062
:101E0000A00100206D7368200000000066696E73F9
:101E1000682000003E0000000349496911F8212FA5
:101E200060F341020A70704710000020014AC2E9C5
:101E300000017047100000207CB516491648FFF7D6
:101E4000F5FF7821012000F0C3FF144C6061D0B190
:101E50000A211520CDE900014FF4806300221049CA
:101E600010A001F0B4FD054600231A460FA16069D9
:101E700001F040FC0120FFF7CFFF15B1284601F02B
:101E8000A3FE00207CBD0BA001F02AFA4FF0FF302A
:101E90007CBD0000A0470008E046000810000020BC
:101EA000CD1E0008747368656C6C000073687278EE
:101EB000000000006E6F206D656D6F727920666F97
:101EC00072207368656C6C0A00000000984D6869A8
:101ED00010F8211F41F001010170FFF76DFF01F0C3
:101EE000FFF9002601F062F80400FBD41B2C07D098
:101EF000686990F82010012907D002290ED017E058
:101F00006969012081F82000ECE75B2C02D080F8A1
:101F100020600DE0022180F82010E3E780F82060C7
:101F2000412CDFD0422CDDD0442C38D0432C43D080
:101F3000002CD7D0FF2CD5D0092C4ED07F2C75D0BB
:101F4000082C73D00D2C70D00A2CFCD0B0F8721075
:101F5000502901D3A0F87260B0F87430B0F8721054
:101F60008B427DD2CA1A00F1220123301944184451
:101F700001F07EFA6869B0F8741022300C54686978
:101F800090F82110C90706D0B0F87410223001442F
:101F900068A001F0A5F96869B0F87440A5E0B0F850
:101FA000740000289ED064A001F09AF9686930F8A6
:101FB000741F491E018095E7B0F87410B0F87220C4
:101FC00091428FD22230095C5CA001F089F96969E5
:101FD00031F8740F401C088084E7002403E056A009
:101FE00001F07EF9641C6869B0F87400A042F6DC68
:101FF0006C6953A0223401F073F900F09BFD0128B5
:1020000002D1204600F0D2FCFFF7D6FE0146224660
:102010004CA001F065F968692230FEF75DF9696945
:1020200021F8720F48805DE700E03DE0B0F87420D1
:10203000002AC0D0B0F87210521E491E89B293B265
:10204000A0F87210A0F87430994224D9CA1A00F18D
:10205000230122301944184401F00AFA686900E0AB
:1020600049E0B0F8721022300E546869B0F874106C
:102070002230014435A001F033F96869B0F87440AA
:1020800003E02DA001F02CF9641C6869B0F872001F
:10209000A04290DBF5E72FA001F022F96869B0F8C3
:1020A000721022300E541DE700F044FD01280DD1BE
:1020B000686990F82100C00702D021A001F010F952
:1020C0006869B0F87210223000F0C6FCFFF774FEA9
:1020D00001F006F9686950212230FEF7DAF86869E4
:1020E00022E015A001F0FCF8641C6869B0F87200E9
:1020F000A042F6DC0AE022300C54686990F8210016
:10210000C00703D021460DA001F0EAF86869B0F8D5
:102110007210491C89B2A0F87210B0F87420521CD9
:10212000A0F874205029BED320F8726F4680D9E6FB
:102130001000002025730000080000002563000047
:102140000A00000025732573000000000825732095
:10215000200800000820080010B5124C20688007F5
:1021600002D511A001F0BCF82068400011D50D483F
:10217000C01E007808B1FFF7A1FD0A48001F0078D3
:1021800008B100F0A7FB0748801E008808B102F0E4
:1021900043F82068002804DABDE8104008A001F0E8
:1021A0009FB810BD2CED00E06661696C6564207617
:1021B0006563746F722066657463680A00000000CE
:1021C0006465627567206576656E740A00000000BC
:1021D00010B502A001F084F8002010BD48656C6CB9
:1021E0006F2052542D546872656164210A0000000A
:1021F00070B50CA001F074F80F48104D04680BE0A6
:1022000002220FA12068FEF777F820B1D4E900126E
:102210000CA001F065F80C3428688442F0D300204B
:1022200070BD00002D2D46756E6374696F6E204C75
:102230006973743A0A0000001000002014000020A6
:102240005F5F0000252D313673202D2D2025730A68
:10225000000000002DE9F04104461E4617460D46D9
:10226000084601F08DF9001D20602572002067608E
:10227000C4E90360BDE8F0812DE9F0410D4600217D
:102280002961E96891B1297A81B12E6888B1044643
:10229000FDF76CFF0146A4F10C002A7A007A20F0C9
:1022A0008000904209D00846FDF764FF0020BDE899
:1022B000F0813446FDF75AFF01466868002724681C
:1022C000B44201D1002404E010C0EA687F1CBA4285
:1022D000F5D10846FDF74EFF20462F61E7E70000E5
:1022E0002DE9F04196B000262FA408230CAA052161
:1022F00006A8FFF7AFFF08208046014622462CA023
:1023000000F0EEFF404600F07FFC32A000F0E8FF56
:1023100006A93046FFF7B0FF064600253BE00CA8B3
:1023200050F825400C3CFDF721FF0146207A9DF82E
:10233000202020F080009042084602D0FDF71AFFCE
:1023400028E0FDF717FF606904F11407B84238462A
:1023500013D000F0F1FF228C618C0091CDE90120B7
:1023600023460822414622A000F0BAFF384601F079
:1023700025FF25A000F0B4FF0CE000F0DDFF218C6C
:10238000628CCDE9002102902346082241461FA01D
:1023900000F0A6FF6D1C0A98A842C0DC002EB7D141
:1023A00016B00020BDE8F0816D61696C626F780045
:1023B000252D2A2E7320656E7472792073697A65D3
:1023C0002073757370656E64207468726561640A49
:1023D00000000000202D2D2D2D20202D2D2D2D2015
:1023E0002D2D2D2D2D2D2D2D2D2D2D2D2D2D0A006D
:1023F000252D2A2E2A7320253034642020253034C0
:10240000642025643A0000000A000000252D2A2ED1
:102410002A7320253034642020253034642025643C
:102420000A00000010B5074C07A0E16800F058FF53
:102430000AA0216900F054FF6169BDE810400CA0BA
:1024400000F04EBF40000020746F74616C206D6519
:102450006D6F72793A2025640A0000007573656417
:10246000206D656D6F7279203A2025640A000000A6
:102470006D6178696D756D20616C6C6F63617465F9
:1024800064206D656D6F72793A2025640A00000042
:102490002DE9F04194B000262CA408230BAA0221B8
:1024A00005A8FFF7D7FE08208046014622462AA04D
:1024B00000F016FF404600F0A7FB2EA000F010FF32
:1024C00005A93046FFF7D8FE0646002535E00BA8E3
:1024D00050F825400C3CFDF749FE217A9DF81C2060
:1024E00021F08001914202D0FDF744FE24E0FDF787
:1024F00041FE606904F11407B842384611D000F07B
:102500001BFFA18BCDE900102346082241461FA0E6
:1025100000F0E6FE384601F051FE15A000F0E0FEA6
:102520000AE000F009FFA18BCDE900102346082244
:1025300041461AA000F0D4FE6D1C0998A842C6DCE2
:10254000002EBDD114B00020BDE8F08173656D612F
:1025500070686F7265000000252D2A2E732076208A
:10256000202073757370656E642074687265616491
:102570000A000000202D2D2D202D2D2D2D2D2D2D4F
:102580002D2D2D2D2D2D2D0A00000000252D2A2E5C
:102590002A7320253033642025643A00252D2A2E05
:1025A0002A7320253033642025640A002DE9F04188
:1025B000B4B000263CA408232CAA012126A8FFF7CA
:1025C00049FE0820804601462246394800F088FE30
:1025D000404600F019FB37A000F082FE26A93046E5
:1025E000FFF74AFE0646002554E02CA850F8254087
:1025F0000C3CFDF7BBFD0746207A9DF8A01020F0AB
:102600008000884203D03846FDF7B4FD41E07822CF
:10261000214607A8FDF724FE3846FDF7ABFD94F8E8
:102620003500009023460822414632A000F058FEB3
:1026300094F8340000F00F00012807D0022807D0DA
:1026400040B1042808D0032808D00AE02CA006E0F6
:102650002EA004E030A002E032A000E034A000F0A0
:102660003FFEA06A014600E0401C0278232AFBD00E
:10267000E26A401A101A64235843B0FBF2F3276B46
:10268000206CCDE90007E069081A81182BA000F042
:1026900027FE6D1C2A98A842A7DC002E9ED134B0DC
:1026A0000020BDE8F081000074687265616400007C
:1026B00040440008202D2D2D20202D2D2D2D2D2D99
:1026C0002D202D2D2D2D2D2D2D2D2D2D202D2D2D54
:1026D0002D2D2D2D2D2D2D20202D2D2D2D2D2D2051
:1026E000202D2D2D2D2D2D2D2D2D2D202D2D2D0A57
:1026F00000000000252D2A2E2A7320253364200097
:1027000020726561647920200000000020737573D9
:1027100070656E640000000020696E6974202020DE
:102720000000000020636C6F736520200000000033
:102730002072756E6E696E6700000000203078258B
:102740003038782030782530387820202020253007
:102750003264252520202030782530387820253017
:1027600033640A00F0B593B0002626A408230BAA10
:102770000A2104A8FFF76EFD08272246394623A048
:1027800000F0AEFD384600F03FFA2AA000F0A8FDA8
:1027900004A93046FFF770FD0646002524E00BA88B
:1027A00050F825400C3CFDF7E1FC217A9DF81820FB
:1027B00021F08001914202D0FDF7DCFC13E0FDF72F
:1027C000D9FCD4E90901CDE90001234608223946A4
:1027D00021A000F085FD607AC00701D024A000E0B0
:1027E00026A000F07DFD6D1C0898A842D7DC002EC5
:1027F000CED101F07BFA014624A000F071FD13B0A8
:102800000020F0BD74696D6572000000252D2A2E30
:10281000732020706572696F646963202020746979
:102820006D656F757420202020202020666C616704
:102830000A000000202D2D2D2D2D2D2D2D2D2D208C
:102840002D2D2D2D2D2D2D2D2D2D202D2D2D2D2DC5
:102850002D2D2D2D2D2D0A00252D2A2E2A732030C9
:1028600078253038782030782530387820000000FE
:102870006163746976617465640A0000646561630C
:10288000746976617465640A000000006375727291
:10289000656E74207469636B3A3078253038780A35
:1028A00000000000FEF784FEFEF7D6FE044C202157
:1028B0002046FDF715FF642001F03AF9F7E7000024
:1028C0000018014010B500F09FFABDE81040FFF776
:1028D000E9BF000010B518A000F002FD1B4C2178E4
:1028E0001BA000F0FDFC2078C00702D01EA000F065
:1028F000F7FC2078800702D51EA000F0F1FC2078BC
:10290000000702D51EA000F0EBFC2078C00602D51F
:102910001EA000F0E5FC2078000607D50B480C301F
:102920000168BDE810401CA000F0DABCBDE8104012
:102930001D4800F0D5BC00006D656D206D616E61B5
:102940006765206661756C743A0A000028ED00E046
:102950005343425F434653525F4D4653523A307899
:1029600025303258200000004941434356494F4C1E
:10297000200000004441434356494F4C20000000D2
:102980004D554E53544B4552522000004D53544B1D
:1029900045525220000000005343422D3E4D4D4110
:1029A000523A253038580A00884200082DE9F0478D
:1029B0008046002500782C4618B12248224F066830
:1029C00031E0BDE8F0470021084600F077B8062264
:1029D0001EA13068FDF790FC20BB306800F10609AD
:1029E0004046FDF779FC024649464046FDF784FC27
:1029F000C0B925B94C464846FDF76EFC0546494628
:102A0000204601E0401C491C02781AB10B780BB13A
:102A10009A42F7D0001BA84200DA054649460DA0AD
:102A200000F05EFC0C3638688642D0D3002C06D00D
:102A30002A4621464046BDE8F04700F029BFBDE8E0
:102A4000F087000010000020140000205F5F636D1D
:102A5000645F000025730A0038B5044601E0491E92
:102A6000641C59B120782028F9D00928F7D06A468B
:102A70002046FFF775F818B1204604E0002038BD65
:102A8000009838BD401C0178202901D00029F9D1D7
:102A900000210170214603A000F022FC4FF0FF301E
:102AA00038BD000025733A20636F6D6D616E642040
:102AB0006E6F7420666F756E642E0A0070B50EA07E
:102AC00000F00EFC1348144D04680CE0062213A11C
:102AD0002068FDF711FC28B9D4E9001211A0891D66
:102AE00000F0FEFB0C3428688442EFD310A000F005
:102AF000F7FB002070BD000052542D5468726561D0
:102B000064207368656C6C20636F6D6D616E6473B7
:102B10003A0A000010000020140000205F5F636D7F
:102B2000645F0000252D313673202D2025730A00A7
:102B30000A0000000120704770B5002315461C46AE
:102B40001A464BE000F8012B5B1C0678202E01D0C2
:102B5000092E01D18B42F5D3082C11D321A000F00E
:102B6000BFFB002606E000BF55F8261025A000F0A8
:102B7000B7FB761CA642F7D321A000F0B1FB2FE0F3
:102B80008B422DD2F6B2222E03D045F82400641CCD
:102B90001BE0401C45F824005B1C641C08E05C2E14
:102BA00004D14678222E01D1401C5B1C401C5B1CCA
:102BB0000678222E01D08B42F1D38B4210D200F83E
:102BC000012B5B1C0AE0401C5B1C0678202E03D006
:102BD000092E01D08B42F6D38B4201D28B42B4D363
:102BE000204670BD546F6F206D616E7920617267F1
:102BF000732021205765206F6E6C79205573653ADC
:102C00000A0000002573200010B5044602E003A06E
:102C100000F066FB641EFAD210BD00002D0000001B
:102C200030B5134943680A68134402F10804984216
:102C30000DD05D885DB94D68AB4208D08D689D426E
:102C400000D188605D6845605B68851A1D518368A6
:102C5000134483420BD05D88002D08D18D688542D6
:102C600000D18B60416859604068991A015130BDAC
:102C7000400000202DE9F04F85B09946DDE90EA512
:102C8000109CAB46630602D5DFF814C103E0DFF801
:102C900010C1ACF1110CE30601D524F00104E307E7
:102CA00001D0302300E0202300260493A3070BD596
:102CB000002A02DA2D26524206E0630701D52B26B0
:102CC00002E0230700D520260023EE4622B9302259
:102CD0008DF8002001230CE0B9F10A0F14D002F0A6
:102CE0000F0812091CF808800EF803805B1C002AEC
:102CF000F2D1AB4200DD1D46AAEB050214F0110F24
:102D00004FF0200708D015E00A27B2FBF7F807FBC1
:102D10001828B2FBF7F2E5E73EB1002A05DD521EA6
:102D200003E0884200D20770401CB2F1000CA2F10F
:102D30000102F6DC26B1884200D20670401C521E09
:102D4000E40605D508E0884201D2049C0470401CCA
:102D5000141EA2F10102F6DC30242E466D1E9E42A6
:102D60000ADD884200D20470401CF6E7884201D296
:102D7000E55C0570401C00E074461D1EA3F10103D4
:102D800007DDBBF1000FF1D103E0884200D20770EC
:102D9000401C131EA2F10102F7DC05B0BDE8F08F64
:102DA0002D4400081CB514210A20CDE900014FF480
:102DB00080730022034904A000F009FEBDE81C4016
:102DC00000F002BFC52800086D61696E00000000B8
:102DD00070B54843044600F0D3FA050003D02246FC
:102DE000002100F05FFB284670BD000070B5044C68
:102DF000044D02E020688047241DAC42FAD370BD28
:102E0000CC460008D446000870B5044C044D02E0DE
:102E100020688047241DAC42FAD370BDD446000818
:102E2000DC46000810B5FDF7A1F9044A5188491C99
:102E30005180BDE81040FDF79DB9000098000020CA
:102E400010B5FDF793F90B4C6188491E09B26180FA
:102E500000290ADC00216180FDF78CF960680028F8
:102E600007D0BDE8104000F0CDBBBDE81040FDF735
:102E700081B910BD9800002070B5002833D01A4DDC
:102E8000296888422FD3696888422CD2A0F10C04AB
:102E90004FF0FF31154800F064FC60884FF4F556A0
:102EA00010B12088B04208D011A000F019FA238890
:102EB0006288214615A000F013FA00206080268069
:102EC000A868844200D2AC6029686068611A401A20
:102ED0002969081A28612046FFF7A2FEBDE8704064
:102EE000024800F019BC70BD400000201C05002005
:102EF000746F206672656520612062616420646180
:102F0000746120626C6F636B3A0A00006D656D3A04
:102F1000203078253038782C207573656420666CF5
:102F200061673A2025642C206D6167696320636FB7
:102F300064653A203078253034780A0000487047BC
:102F40003C060020004870473C42002010B5FDF7C9
:102F5000E3FBFEF7DBFBFEF709FCFEF729FBFEF7C0
:102F60009FFB10484FF47A710068B0FBF1F0401EEF
:102F7000B0F1807F0AD24FF0E02148610A4AF02088
:102F800082F8140D0020886107200861FFF72EFFEA
:102F9000FFF7D8FF0446FFF7D1FF2146BDE81040F8
:102FA00000F08ABC0C0000200FE000E0094808B5E2
:102FB00000684FF0FF310268920602D54068C1B246
:102FC00005E00268120702D5026840680090C8B2A6
:102FD00008BD000010010020F8B506460D200F497D
:102FE0008DF80000002481F84040304600F048FC95
:102FF00005460FE0305D0A2805D101231A466946CF
:103000000648FEF784FA012331191A460348FEF7F1
:103010007EFA641CAC42EDD3F8BD00001001002024
:1030200070B50546041D2D48016819B1284688472A
:10303000002851D02AA0E16B00F052F92CA0216A9F
:1030400000F04EF92EA0616A00F04AF930A0A16AA2
:1030500000F046F932A0E16A00F042F934A021689C
:1030600000F03EF936A0616800F03AF938A0A16896
:1030700000F036F93AA0E16800F032F93CA021698D
:1030800000F02EF93EA0616900F02AF940A0A16984
:1030900000F026F942A0E16900F022F944A0216B7A
:1030A00000F01EF946A0616B00F01AF948A0A16B70
:1030B00000F016F92878400708D500F05FFD0146BA
:1030C00047A000F00DF9FFF771FA02E04CA000F004
:1030D00007F9FFF741F8FEE770BD00002800002067
:1030E0007073723A203078253038780A000000007A
:1030F0007230303A203078253038780A00000000ED
:103100007230313A203078253038780A00000000DB
:103110007230323A203078253038780A00000000CA
:103120007230333A203078253038780A00000000B9
:103130007230343A203078253038780A00000000A8
:103140007230353A203078253038780A0000000097
:103150007230363A203078253038780A0000000086
:103160007230373A203078253038780A0000000075
:103170007230383A203078253038780A0000000064
:103180007230393A203078253038780A0000000053
:103190007231303A203078253038780A000000004B
:1031A0007231313A203078253038780A000000003A
:1031B0007231323A203078253038780A0000000029
:1031C000206C723A203078253038780A00000000F0
:1031D0002070633A203078253038780A00000000EB
:1031E00068617264206661756C74206F6E2074680B
:1031F000726561643A2025730D0A0D0A0000000013
:1032000068617264206661756C74206F6E206861FD
:103210006E646C65720D0A0D0A00000070B50446FC
:10322000121D22F007000022094D403840F82250BC
:10323000521C102AFAD301620021416281624FF0D0
:10324000807200F13005C263C16285E81A0070BD6A
:10325000EFBEADDE10B5FCF789FF044A1178491CBA
:103260001170BDE81040FCF785BF00003C00002055
:1032700010B5FCF77BFF044A1178491E1170BDE8B8
:103280001040FCF777BF00003C0000202DE9F04122
:10329000064614460D46084600F0ACFC05F114073E
:1032A000B4B1012C18D134680EE000BF95F8351088
:1032B00094F82120A4F11400914204D2394614302C
:1032C00000F033F802E02468B442EFD1B44203D1F5
:1032D0003946304600F029F80020BDE8F0810000B2
:1032E0000FB4FF2110B503AB0448029A00F006FEAC
:1032F0000248FFF771FE10BC5DF814FB1C040020AF
:103300000268516002680A600160486070470268A4
:10331000516002680A60016048607047026851604D
:1033200002680A6001604860704742681160426844
:103330004A604160086070470246002100E0491C75
:1033400000689042FBD108467047D0E900124A60FD
:10335000D0E900121160406000607047D0E90012AF
:103360004A60D0E900121160406000607047D0E907
:1033700000124A60D0E9001211604060006070479E
:103380002DE9F047002807D0374CC01C20F0030679
:10339000E068864202D90020BDE8F0870C2E00D2FA
:1033A0000C264FF0FF31314800F0DBF9D4F808C0AB
:1033B0002168E768ACEB0100BA1B4FE00D186B8881
:1033C000E3BB6B681B1A0C3BB34246D36A6806F139
:1033D0001803121A0C3A4FF001094FF4F55A9A42A9
:1033E0002DD383190C33CA184FF00008A2F800A09F
:1033F000A2F80280D5F80480C2E901806B60A5F8CC
:10340000029050680C37B84202D001F10802835094
:10341000206930440C3020616269824200D26061D0
:10342000A5F800A0654512D1A06842887AB162680B
:1034300090420CD040680844A060F6E70DE0A5F883
:10344000029068686A1A801A22691044E3E7074804
:1034500000F062F905F10C009EE768688242ADD881
:10346000024800F059F996E7400000201C050020B2
:1034700010B50346994211D28C189C420ED981187E
:1034800004E000BF14F8013D01F8013D521EF9D2DD
:1034900010BD00BF11F8014B03F8014B521EF9D2C9
:1034A00010BD000010B50346CCB2042A1AD3810720
:1034B00018D1194644EA042343EA034306E008C14D
:1034C000103A08C141F8083B41F8043C102AF6D2F2
:1034D00001E008C1121F042AFBD20B4602E000BF24
:1034E00003F8014B521EFBD210BD2DE9F0410F46EF
:1034F000064600F045F80546C068FFF741FF0400A6
:1035000019D00021EA68FFF7CDFF26720020607213
:1035100008223946204600F0BBF9FCF727FE064694
:1035200004F10C01281DFFF7EBFE3046FCF722FEEC
:103530002046BDE8F0810020FBE770B5044600207E
:103540002072FCF713FE054604F10C00FFF7FDFEA8
:103550002846FCF70FFE2046BDE87040FFF78CBC04
:1035600070B5044600202072FCF700FE054604F109
:103570000C00FFF7EAFE2846BDE87040FCF7FABDF4
:10358000074A002102EB01131B78834202D102EBB0
:1035900001107047491C0429F4DB0020704700002B
:1035A000580000202DE9F041044616460D46084615
:1035B000FFF7E6FF0746FFF735FC381D796800E0A6
:1035C00009688142FCD1FFF73BFC45F08000207286
:1035D00008223146204600F05BF9FCF7C7FD05469E
:1035E00004F10C01381DFFF78BFE2846BDE8F041C1
:1035F000FCF7C0BD007A000601D50120704700200D
:103600007047000070B5FCF7B1FD114C05466088AD
:10361000B0B9A068FEF772FA0E49401E626851F810
:103620003010143991420BD020700B486160007843
:1036300001F11C01002802F11C0006D0FCF79DFDE1
:103640002846BDE87040FCF795BDFCF796FDF7E70E
:10365000980000203C0500203C00002010B50446E6
:10366000FCF784FD024694F834000E4920F00F0068
:10367000401C84F8340094F8350001EBC00104F1DB
:1036800014004B6818604B68A3614860064861618C
:10369000A16B836819438160BDE810401046FCF7B8
:1036A00069BD00003C0500209800002010B50446CC
:1036B000FCF75CFD04F11401D1E900235360D1E96A
:1036C00000231A60A161616194F83520074951F81F
:1036D000323001EBC2018B4204D10549A36B8A68E9
:1036E0009A438A60BDE81040FCF744BD3C050020C9
:1036F000980000202DE9F04116460A461F4605466F
:103700000221FFF74FFF05F11404AC616C61AE8339
:103710006F720020BDE8F08170B50446FCF726FD0D
:103720000546606904F11401884208D0143800F09D
:1037300006FA2846FCF71EFDFFF764FF09E0A08BA0
:103740004FF6FF71884206D2401CA0832846FCF742
:1037500011FD002070BD2846FCF70CFD6FF0020043
:1037600070BD73B50546FCF701FD0646A88B28B170
:10377000401EA8833046FCF7FDFC21E0019808B309
:1037800000F0FCF90446002020636A7A214605F126
:103790001400FFF77BFD0198002809DD04F14400C7
:1037A00001AA0021054600F003FB284600F04CFB6F
:1037B0003046FCF7DFFCFFF725FF206B002800D127
:1037C00000207CBD3046FCF7D5FC6FF001007CBDCD
:1037D00008B509A0FFF784FD0AA0FFF781FD12A03C
:1037E000009005230122032112A0FFF779FDBDE817
:1037F000084018A0FFF774BD0A205C207C202F0A27
:10380000000000002D205254202D20202020205484
:103810006872656164204F7065726174696E6720BB
:1038200053797374656D0A00446563202033203238
:1038300030323500202F207C205C202020202025C5
:10384000642E25642E2564206275696C64202573BE
:103850000A0000002032303036202D203230323045
:1038600020436F707972696768742062792072747E
:103870002D746872656164207465616D0A000000D2
:10388000014600E0491C0A78002AFBD1081A70475B
:1038900010B5002A07D0034611F8014B03F8014B7D
:1038A0002CB1521EF8D110BD03F8011B00E000211D
:1038B000521EF9D110BD00000A46C11C10B522F0FD
:1038C000030321F00301182B20D9A3F118048C4223
:1038D0001CD3114C581A18382160E0604FF4F5528F
:1038E0000A8000230C30C1E901034B804B68194466
:1038F00061600A8001224A8048608860002307A135
:103900000848FFF7F7FE2068A06010BD0146BDE83B
:10391000104005A0FFF7E4BC40000020686561701E
:10392000000000001C0500206D656D20696E697443
:103930002C206572726F7220626567696E20616407
:10394000647265737320307825782C20616E642052
:10395000656E6420616464726573732030782578C5
:103960000A00000010B50A4900230A4C4B80184693
:1039700004EBC002401C526012602028F8DB1F20BC
:10398000087003484B600C308B604060006010BDD5
:10399000980000203C05002010B5074CA068FEF7F9
:1039A000ADF80649401E51F8300014386060BDE89B
:1039B00010401C30FCF70FBC980000203C05002094
:1039C0000148406000607047B000002070472DE95A
:1039D000FF478946DDE90C76824601461D46904642
:1039E0000120FFF782FD041E0DD02846FFF7C8FC1A
:1039F00060B103968DE8A10043464A4651462046F1
:103A0000FEF7FCF8204604B0BDE8F0872046FFF73B
:103A100094FD0020F7E7000070B514480468FCF737
:103A2000A5FB05462046FEF73AF92046FFF73EFE85
:103A3000042084F8340004F1440000F0DDF920464D
:103A4000FFF7D8FD01280CD004F114010848FFF756
:103A50005EFC00BFFFF7D6FD2846BDE87040FCF7CE
:103A600089BB2046FFF77CFDF4E700009C000020A6
:103A7000A400002000F002F8FCE700002DE97040EF
:103A8000FCF774FB05460F480168814214D00168B9
:103A9000A1F11404D1E900024260D1E900021060F2
:103AA000496009604869FFF7E7F92046FFF745FDDF
:103AB0002846FCF75FFBE3E72846BDE87040FCF7CB
:103AC00059BB0000A40000201FB5202308481F2276
:103AD000D9008DE80F000023064A07A1783800F0CE
:103AE0000FF804B00248BDE81040783800F06CB818
:103AF0001C030020753A00087469646C65000000BE
:103B00002DE9FF5F92460EAA0C4692E8E0010A46B4
:103B1000994683460121FFF745FD8DE8E0014B46BC
:103B2000524621465846FEF769F804B0BDE8F09FBA
:103B300010B500F0C1F8BDE8104000F025B870B530
:103B4000044690F8340000F00F00022802D04FF035
:103B5000FF3070BDFCF70AFB054604F11400FFF7C7
:103B6000FDFB04F1440000F0B1F92846FCF702FB2C
:103B70002046FFF773FD002070BD0000014800687B
:103B8000704700009C000020F1B5FCF7EFFA0546F5
:103B90000C480468204600F02DF804F144006A4601
:103BA0000021064600F004F9304600F04DF92846A1
:103BB000FCF7E0FAFFF726FD206B801C00D12063A4
:103BC0000020F8BD9C00002010B590F836100122AE
:103BD00080F835108A400221826380F83410FFF7A4
:103BE000AEFF0348006808B1FFF70CFD002010BDD0
:103BF0009C00002070B5044690F8340000F00F00DF
:103C0000012802D04FF0FF3070BDFCF7AFFA054637
:103C10002046FFF74BFD94F8340020F00F00801C85
:103C200084F8340004F1440000F050F92846FCF711
:103C3000A1FA002070BD10B504466FF001002063AA
:103C400004F11400FFF78AFB2046FFF707FDBDE8EB
:103C50001040FFF7D7BC000070B5FCF787FA0646A6
:103C60001348046894F8340000F00F00012819D1BB
:103C7000D4E90501884215D004F114000546FFF788
:103C80006DFB94F835000B4901EBC00041680D60F5
:103C900041686960456028603046FCF76BFAFFF7C1
:103CA000B1FC02E03046FCF765FA002070BD000070
:103CB0009C0000203C050020002802DA4FF0FF3075
:103CC00070474FF47A7190FBF1F290FBF1F301FB36
:103CD000130000EB40034A43C3EBC0104B1E03EB41
:103CE000C00090FBF1F010447047000001480068EC
:103CF0007047000038000020094810B50168491CD1
:103D00000160FFF73BFF016C491E016403D1C16BE9
:103D10000164FFF7A1FFBDE8104000F003B8000008
:103D2000380000202DE9FC41CDF804D0CDF800D0BA
:103D3000FFF7DCFF0646FCF719FA07461B4D2DE09E
:103D400060696FF00041301A143C884229D2204645
:103D5000FDF7A2FF607A810702D420F001006072B3
:103D600004F1140188466846FFF7D8FAD4E9071031
:103D70008847FFF7BBFF06460098694688420DD08A
:103D80004046FFF7F4FA607A810707D5C10705D0EE
:103D900020F001006072204600F056F82C68AC421A
:103DA000CED13846FCF7E6F9BDE8FC81B000002032
:103DB00070B515460E460446FCF7D8F9052E17D205
:103DC000DFE806F00503080C1100616A0FE02968BE
:103DD00061620DE0617A21F0020102E0617A41F056
:103DE0000201617204E0617AC90700D001212960F3
:103DF000FCF7C0F9002070BD70B50446FCF7B6F9B9
:103E000005462046FDF748FF607A20F00100607209
:103E10002846FCF7AFF92046FFF7A2FB002070BD53
:103E20002DE9F8439046DDE908450A461F46064657
:103E30000A21FFF7B7FB23463A4641463046009534
:103E4000FDF71CFFBDE8F8832DE9F8430446FCF7B5
:103E50008DF980462046FDF71FFF607A20F00100B3
:103E60006072FFF743FF616A174A4318A36200209C
:103E7000009202EBC002694656686FF000475DF899
:103E800020200AE01268A2EBC0056D699D4202D0B5
:103E9000ED1ABD4203D341F82020B242F2D10A48C4
:103EA000001F0168491C016004F114010098FFF72C
:103EB00035FA607A40F0010060724046FCF75AF92A
:103EC0000020BDE8F8830000B000002070B5044673
:103ED000407AC0070ED0FCF749F905462046FDF7A9
:103EE000DBFE607A20F0010060722846FCF742F9A0
:103EF000002070BD4FF0FF3070BD00002DE9FF4F76
:103F00008946044600EB090783B080464FF0FF3A2C
:103F10004FF0200BA74202D25746C8F1FF390BE100
:103F2000252803D0BC4200D2207080E000260599ED
:103F3000491C059108782D2811D02B2812D0202853
:103F400013D0232814D0302815D00A785546303A9B
:103F50000A2A13D205A800F049F905461AE046F0EE
:103F60001006E4E746F00406E1E746F00806DEE75F
:103F700046F02006DBE746F00106D8E72A2809D1FB
:103F80000698491C059120C80690002D02DA6D4262
:103F900046F010060598D44601782E2918D1401C09
:103FA00005900178A1F130020A2A04D205A800F098
:103FB0001DF9844607E02A2908D1401C059006987F
:103FC00050F804CB0690BCF1000F01DA4FF0000C62
:103FD000059A00201178682901D06C2902D1521C61
:103FE0000846059211780A236F2974D00CDC6329E6
:103FF0001FD004DC25296FD058290DD184E0642915
:1040000001D0692908D183E0702966D073292CD0AA
:1040100075297FD0782979D0BC4201D22520207023
:104020000598641C0178E9B3BC4200D22170641C7D
:104030007FE0F00608D458466D1E002D04DDBC421A
:1040400000D22070641CF7E70698BC4210F8041BED
:10405000069000D22170584602E0BC4200D2207087
:10406000641C6D1E002DF8DC63E0069802C8069003
:1040700001B941A1002000E0401CA84202D00A5C26
:10408000002AF9D1BCF1000F02DD604500DD604679
:10409000F2060BD45A462B466D1E834206DDBC4207
:1040A00002D200E054E02270641CF4E7002206E033
:1040B000BC4201D20B782370491C521C641C824202
:1040C000F6DB5A4629466D1E814232DDBC4200D2E3
:1040D0002270641CF6E715E010E0681C02D1082588
:1040E00046F00106CDE9005C06980296102304C84C
:1040F00006903946204619E00CE007E0BC4296D213
:10410000252011E7082305E046F04006102301E0D2
:1041100046F002066C2801D068281CD0069804C816
:104120000690CDE9005C394620460296FEF7A2FDD6
:1041300004460598401C05900598007800287FF4F7
:10414000EFAEB9F1000F11D0BC420DD220700DE0DE
:10415000401E0590EDE7069830F8041B06908AB2E1
:10416000B007DED512B2DCE707F8010C07B0A4EB0C
:104170000800BDE8F08F0000284E554C4C29000087
:1041800000207047002070470020704700207047D3
:1041900010B5FBF7EBFFFEF7D9FEFFF719FBFFF7B2
:1041A0000FFCFFF7DFFBFEF7FDFDFFF70FFCFFF74E
:1041B0008BFCFFF7F1FB002010BD000070B5054639
:1041C00004680BE0A4F1140106A0FFF789F8206849
:1041D000A84202D004A0FFF783F82468AC42F1D1D2
:1041E00070BD0000257300002F00000010B50146CF
:1041F00000206FF02F0307E0541C0C60127800EBD6
:10420000800003EB400010440A681478303C0A2C0C
:10421000F2D310BD0020704710B518A0FFF760F86A
:104220001A4C21881AA0FFF75BF82088C00702D03B
:104230001DA0FFF755F82088800702D51DA0FFF7C5
:104240004FF82088400702D51DA0FFF749F82088C5
:10425000000702D51CA0FFF743F82088C00502D54F
:104260001BA0FFF73DF82088800502D51BA0FFF7B3
:1042700037F8BDE8104004A0FFF732B875736167E6
:1042800065206661756C743A0A0000002AED00E052
:104290005343425F434653525F554653523A307838
:1042A0002530325820000000554E444546494E53B3
:1042B00054522000494E56535441544520000000AA
:1042C000494E5650432000004E4F435020000000FE
:1042D000554E414C49474E45442000004449564202
:1042E000595A45524F20000010B5FFF771FA0020CF
:1042F00010BD010202030405060708090A0B0C0D94
:104300000E0F101000000000000000000102030466
:104310000607080900000000010203040000010074
:10432000020001000300010002000100040001007E
:10433000020001000300010002000100050001006D
:10434000020001000300010002000100040001005E
:10435000020001000300010002000100060001004C
:10436000020001000300010002000100040001003E
:10437000020001000300010002000100050001002D
:10438000020001000300010002000100040001001E
:10439000020001000300010002000100070001000B
:1043A00002000100030001000200010004000100FE
:1043B00002000100030001000200010005000100ED
:1043C00002000100030001000200010004000100DE
:1043D00002000100030001000200010006000100CC
:1043E00002000100030001000200010004000100BE
:1043F00002000100030001000200010005000100AD
:10440000020001000300010002000100040001009D
:1044100002000100030001000200010030313233CC
:10442000343536373839616263646566003031325D
:10443000333435363738394142434445460000006D
:10444000252D2A2E73207072692020737461747573
:1044500073202020202020737020202020207374BF
:1044600061636B2073697A65206D6178207573656F
:1044700064206C656674207469636B2020657272B9
:104480006F720A0068656C6C6F00736179206865F3
:104490006C6C6F20776F726C640076657273696FF5
:1044A0006E0073686F772052542D54687265616492
:1044B0002076657273696F6E20696E666F726D61CA
:1044C00074696F6E005F5F636D645F7665727369B8
:1044D0006F6E0073686F772052542D546872656157
:1044E000642076657273696F6E20696E666F726D97
:1044F0006174696F6E006C6973745F746872656172
:1045000064006C69737420746872656164005F5F35
:10451000636D645F6C6973745F7468726561640075
:104520006C69737420746872656164006C6973747B
:104530005F73656D006C6973742073656D6170687D
:104540006F726520696E2073797374656D005F5FAB
:10455000636D645F6C6973745F73656D006C697320
:10456000742073656D6170686F726520696E207369
:10457000797374656D006C6973745F6D61696C62E9
:104580006F78006C697374206D61696C20626F785C
:1045900020696E2073797374656D005F5F636D646D
:1045A0005F6C6973745F6D61696C626F78006C69D0
:1045B0007374206D61696C20626F7820696E20735E
:1045C000797374656D006C6973745F74696D65727D
:1045D000006C6973742074696D657220696E207354
:1045E000797374656D005F5F636D645F6C6973748C
:1045F0005F74696D6572006C6973742074696D65B0
:104600007220696E2073797374656D006C697374C0
:10461000006C69737420616C6C2073796D626F6CCF
:1046200020696E2073797374656D005F5F636D64DC
:104630005F68656C700052542D5468726561642027
:104640007368656C6C2068656C702E005F5F636DCD
:10465000645F7073004C6973742074687265616480
:104660007320696E207468652073797374656D2E8C
:10467000005F5F636D645F667265650053686F77A6
:1046800020746865206D656D6F7279207573616740
:104690006520696E207468652073797374656D2E6A
:1046A000006C6973745F6D656D006C697374206D67
:1046B000656D6F727920757361676520696E666FCD
:1046C000726D6174696F6E008D410008854100084C
:1046D0001542000881410008391E00088941000880
:1046E000844400088A440008D12100089A44000844
:1046F000A2440008E9420008C5440008D344000869
:10470000E9420008F644000802450008AD2500080B
:104710000E45000820450008AD2500082C4500087E
:1047200035450008912400084E4500085D45000805
:10473000912400087645000883450008E12200081E
:104740009B450008AE450008E1220008C645000868
:10475000D145000865270008E6450008F745000830
:10476000652700080C46000811460008F1210008E2
:104770002B46000836460008BD2A00084C460008B3
:1047800055460008AF1D0008714600087C46000829
:10479000A51D0008A1460008AA4600082524000817
:1047A000C047000800000020B8000000401B0008BF
:1047B00078480008B800002088450000501B000819
:1047C00001000000100000000000000000127A004C
:1047D00000000000000000000000000000000000D9
:1047E00000000000000000000000000000000000C9
:1047F00000000000000000000000000000000000B9
:1048000000000000000000000000000000000000A8
:104810000000000000000000010000005C0000201B
:104820005C00002078000000020000006C00002006
:104830006C00002020000000050000007C0000202B
:104840007C000020300000000A0000008C000020E6
:104850008C0000202C000000000000000000000080
:104860000000000000000000000000000000000048
:08487000000000000000000040
:0400000508000131BD
:00000001FF
